{
	"data": {
		"bytecode": {
			"linkReferences": {},
			"object": "6080604052348015600e575f5ffd5b503360015f6101000a81548173ffffffffffffffffffffffffffffffffffffffff021916908373ffffffffffffffffffffffffffffffffffffffff16021790555061430a8061005c5f395ff3fe608060405260043610610143575f3560e01c8063768a4d8d116100b55780639b8ed4bf1161006e5780639b8ed4bf1461049d578063a7f6353a146104d9578063ad1a17b414610503578063b034438e1461053f578063ce6f8ca91461057b578063fa144d53146105a357610183565b8063768a4d8d1461038f57806382367b2d146103b7578063874d3e0e146103df578063897c77d1146103fb5780638c672ba1146104255780638cfeab351461046157610183565b80633330074d116101075780633330074d146102655780635b796ecc146102a15780635f593a61146102dd57806361203265146102f95780636d0f940814610323578063744cd69c1461036757610183565b80630f0faef31461018757806314c9b8a5146101af578063155dd5ee146101d75780631c823ef1146101ff578063227d4fe51461022757610183565b36610183576040517f08c379a000000000000000000000000000000000000000000000000000000000815260040161017a90612b57565b60405180910390fd5b5f5ffd5b348015610192575f5ffd5b506101ad60048036038101906101a89190612c13565b6105df565b005b3480156101ba575f5ffd5b506101d560048036038101906101d09190612c63565b610b75565b005b3480156101e2575f5ffd5b506101fd60048036038101906101f89190612c63565b610d27565b005b34801561020a575f5ffd5b5061022560048036038101906102209190612e00565b61114c565b005b348015610232575f5ffd5b5061024d60048036038101906102489190612e6c565b611472565b60405161025c93929190612ed9565b60405180910390f35b348015610270575f5ffd5b5061028b60048036038101906102869190612c63565b6114d1565b6040516102989190612f28565b60405180910390f35b3480156102ac575f5ffd5b506102c760048036038101906102c29190612f6b565b6116eb565b6040516102d49190612fa9565b60405180910390f35b6102f760048036038101906102f29190612c63565b61170b565b005b348015610304575f5ffd5b5061030d611a46565b60405161031a9190612fc2565b60405180910390f35b34801561032e575f5ffd5b5061034960048036038101906103449190612c63565b611a6b565b60405161035e999897969594939291906130bc565b60405180910390f35b348015610372575f5ffd5b5061038d60048036038101906103889190613178565b611b7e565b005b34801561039a575f5ffd5b506103b560048036038101906103b091906131b6565b611cb3565b005b3480156103c2575f5ffd5b506103dd60048036038101906103d89190612e6c565b611e6e565b005b6103f960048036038101906103f49190612e6c565b611fc8565b005b348015610406575f5ffd5b5061040f6123a0565b60405161041c9190612fa9565b60405180910390f35b348015610430575f5ffd5b5061044b60048036038101906104469190612e6c565b6123a5565b604051610458919061323f565b60405180910390f35b34801561046c575f5ffd5b5061048760048036038101906104829190613258565b61250f565b6040516104949190612fa9565b60405180910390f35b3480156104a8575f5ffd5b506104c360048036038101906104be9190612c63565b61253a565b6040516104d091906133dc565b60405180910390f35b3480156104e4575f5ffd5b506104ed612744565b6040516104fa9190612f28565b60405180910390f35b34801561050e575f5ffd5b5061052960048036038101906105249190612c63565b612756565b6040516105369190612fa9565b60405180910390f35b34801561054a575f5ffd5b50610565600480360381019061056091906131b6565b6127d5565b6040516105729190612f28565b60405180910390f35b348015610586575f5ffd5b506105a1600480360381019061059c91906133fc565b6127f2565b005b3480156105ae575f5ffd5b506105c960048036038101906105c49190612f6b565b6128d4565b6040516105d69190612fa9565b60405180910390f35b8160045f8281526020019081526020015f206005015f9054906101000a900460ff16610640576040517f08c379a000000000000000000000000000000000000000000000000000000000815260040161063790613471565b60405180910390fd5b8260045f8281526020019081526020015f206001015f9054906101000a900473ffffffffffffffffffffffffffffffffffffffff1673ffffffffffffffffffffffffffffffffffffffff163373ffffffffffffffffffffffffffffffffffffffff16146106e2576040517f08c379a00000000000000000000000000000000000000000000000000000000081526004016106d9906134d9565b60405180910390fd5b60095f9054906101000a900460ff1615610731576040517f08c379a000000000000000000000000000000000000000000000000000000000815260040161072890613541565b60405180910390fd5b600160095f6101000a81548160ff0219169083151502179055505f73ffffffffffffffffffffffffffffffffffffffff168573ffffffffffffffffffffffffffffffffffffffff16036107b9576040517f08c379a00000000000000000000000000000000000000000000000000000000081526004016107b0906135a9565b60405180910390fd5b5f83116107fb576040517f08c379a00000000000000000000000000000000000000000000000000000000081526004016107f290613611565b60405180910390fd5b5f60045f8681526020019081526020015f2090505f610819866128f4565b8260060154610828919061365c565b905080421061086c576040517f08c379a0000000000000000000000000000000000000000000000000000000008152600401610863906136d9565b60405180910390fd5b5f60075f8881526020019081526020015f205f8973ffffffffffffffffffffffffffffffffffffffff1673ffffffffffffffffffffffffffffffffffffffff1681526020019081526020015f205490505f81116108fe576040517f08c379a00000000000000000000000000000000000000000000000000000000081526004016108f590613767565b60405180910390fd5b5f60085f8981526020019081526020015f205f8a73ffffffffffffffffffffffffffffffffffffffff1673ffffffffffffffffffffffffffffffffffffffff1681526020019081526020015f2054905081878261095b919061365c565b111561099c576040517f08c379a0000000000000000000000000000000000000000000000000000000008152600401610993906137f5565b60405180910390fd5b86846004015410156109e3576040517f08c379a00000000000000000000000000000000000000000000000000000000081526004016109da90613883565b60405180910390fd5b86846004015f8282546109f691906138a1565b925050819055505f8973ffffffffffffffffffffffffffffffffffffffff1688604051610a2290613901565b5f6040518083038185875af1925050503d805f8114610a5c576040519150601f19603f3d011682016040523d82523d5f602084013e610a61565b606091505b5050905080610aa5576040517f08c379a0000000000000000000000000000000000000000000000000000000008152600401610a9c9061395f565b60405180910390fd5b8782610ab1919061365c565b60085f8b81526020019081526020015f205f8c73ffffffffffffffffffffffffffffffffffffffff1673ffffffffffffffffffffffffffffffffffffffff1681526020019081526020015f2081905550888a73ffffffffffffffffffffffffffffffffffffffff167f93c496f36ecab5f5583f216646cac3acb12a63aeacddb1a9251ceb81f0ee36e78a604051610b489190612fa9565b60405180910390a350505050505f60095f6101000a81548160ff0219169083151502179055505050505050565b8060045f8281526020019081526020015f206005015f9054906101000a900460ff16610bd6576040517f08c379a0000000000000000000000000000000000000000000000000000000008152600401610bcd90613471565b60405180910390fd5b8160045f8281526020019081526020015f206001015f9054906101000a900473ffffffffffffffffffffffffffffffffffffffff1673ffffffffffffffffffffffffffffffffffffffff163373ffffffffffffffffffffffffffffffffffffffff1614610c78576040517f08c379a0000000000000000000000000000000000000000000000000000000008152600401610c6f906134d9565b60405180910390fd5b5f60045f8581526020019081526020015f2090505f6001811115610c9f57610c9e613049565b5b816007015f9054906101000a900460ff166001811115610cc257610cc1613049565b5b03610d21576001816007015f6101000a81548160ff02191690836001811115610cee57610ced613049565b5b0217905550837f23b5bf095b0931da20d1d200dc9cd40f741c1f84aecfb5c73391814189857eb660405160405180910390a25b50505050565b8060045f8281526020019081526020015f206005015f9054906101000a900460ff16610d88576040517f08c379a0000000000000000000000000000000000000000000000000000000008152600401610d7f90613471565b60405180910390fd5b8160045f8281526020019081526020015f206001015f9054906101000a900473ffffffffffffffffffffffffffffffffffffffff1673ffffffffffffffffffffffffffffffffffffffff163373ffffffffffffffffffffffffffffffffffffffff1614610e2a576040517f08c379a0000000000000000000000000000000000000000000000000000000008152600401610e21906134d9565b60405180910390fd5b60095f9054906101000a900460ff1615610e79576040517f08c379a0000000000000000000000000000000000000000000000000000000008152600401610e7090613541565b60405180910390fd5b600160095f6101000a81548160ff0219169083151502179055505f60045f8581526020019081526020015f2090505f610eb1856128f4565b8260060154610ec0919061365c565b905080421015610f05576040517f08c379a0000000000000000000000000000000000000000000000000000000008152600401610efc906139c7565b60405180910390fd5b600180811115610f1857610f17613049565b5b826007015f9054906101000a900460ff166001811115610f3b57610f3a613049565b5b14610f9a576001826007015f6101000a81548160ff02191690836001811115610f6757610f66613049565b5b0217905550847fe98f832035383018ba3fb00c41e0fa51900f9de0f0ee1ce50e5c2af2c3c3293e60405160405180910390a25b5f826004015490505f8111610fe4576040517f08c379a0000000000000000000000000000000000000000000000000000000008152600401610fdb90613a2f565b60405180910390fd5b5f83600401819055505f836001015f9054906101000a900473ffffffffffffffffffffffffffffffffffffffff1673ffffffffffffffffffffffffffffffffffffffff168260405161103590613901565b5f6040518083038185875af1925050503d805f811461106f576040519150601f19603f3d011682016040523d82523d5f602084013e611074565b606091505b50509050806110b8576040517f08c379a00000000000000000000000000000000000000000000000000000000081526004016110af90613a97565b60405180910390fd5b86846001015f9054906101000a900473ffffffffffffffffffffffffffffffffffffffff1673ffffffffffffffffffffffffffffffffffffffff167ffbc3a599b784fe88772fc5abcc07223f64ca0b13acc341f4fb1e46bef0510eb4846040516111229190612fa9565b60405180910390a3505050505f60095f6101000a81548160ff021916908315150217905550505050565b60035f9054906101000a900460ff16156111ea5760025f3373ffffffffffffffffffffffffffffffffffffffff1673ffffffffffffffffffffffffffffffffffffffff1681526020019081526020015f205f9054906101000a900460ff166111e9576040517f08c379a00000000000000000000000000000000000000000000000000000000081526004016111e090613b25565b60405180910390fd5b5b60018260ff1610158015611202575060038260ff1611155b611241576040517f08c379a000000000000000000000000000000000000000000000000000000000815260040161123890613b8d565b60405180910390fd5b5f835111801561125357506040835111155b611292576040517f08c379a000000000000000000000000000000000000000000000000000000000815260040161128990613bf5565b60405180910390fd5b5f5f8154809291906112a390613c13565b91905055506040518061012001604052805f5481526020013373ffffffffffffffffffffffffffffffffffffffff1681526020018481526020018360ff1681526020015f81526020016001151581526020014281526020015f600181111561130e5761130d613049565b5b81526020018281525060045f5f5481526020019081526020015f205f820151815f01556020820151816001015f6101000a81548173ffffffffffffffffffffffffffffffffffffffff021916908373ffffffffffffffffffffffffffffffffffffffff160217905550604082015181600201908161138c9190613e57565b506060820151816003015f6101000a81548160ff021916908360ff1602179055506080820151816004015560a0820151816005015f6101000a81548160ff02191690831515021790555060c0820151816006015560e0820151816007015f6101000a81548160ff0219169083600181111561140a57611409613049565b5b021790555061010082015181600801559050503373ffffffffffffffffffffffffffffffffffffffff165f547f88020f8fc0cbb49c41e4167fdaf3799586a1a0ae1d10a8895b44f6df9337aa27836040516114659190612fa9565b60405180910390a3505050565b6006602052815f5260405f20818154811061148b575f80fd5b905f5260205f2090600302015f9150915050805f015f9054906101000a900473ffffffffffffffffffffffffffffffffffffffff16908060010154908060020154905083565b5f5f60045f8481526020019081526020015f20604051806101200160405290815f8201548152602001600182015f9054906101000a900473ffffffffffffffffffffffffffffffffffffffff1673ffffffffffffffffffffffffffffffffffffffff1673ffffffffffffffffffffffffffffffffffffffff16815260200160028201805461155e90613c87565b80601f016020809104026020016040519081016040528092919081815260200182805461158a90613c87565b80156115d55780601f106115ac576101008083540402835291602001916115d5565b820191905f5260205f20905b8154815290600101906020018083116115b857829003601f168201915b50505050508152602001600382015f9054906101000a900460ff1660ff1660ff16815260200160048201548152602001600582015f9054906101000a900460ff1615151515815260200160068201548152602001600782015f9054906101000a900460ff16600181111561164c5761164b613049565b5b600181111561165e5761165d613049565b5b815260200160088201548152505090508060a001516116815760019150506116e6565b60018081111561169457611693613049565b5b8160e0015160018111156116ab576116aa613049565b5b036116ba5760019150506116e6565b62015180816060015160ff166116d09190613f26565b8160c001516116df919061365c565b4210159150505b919050565b6008602052815f5260405f20602052805f5260405f205f91509150505481565b8060045f8281526020019081526020015f206005015f9054906101000a900460ff1661176c576040517f08c379a000000000000000000000000000000000000000000000000000000000815260040161176390613471565b60405180910390fd5b816117768161292e565b5f600181111561178957611788613049565b5b60045f8381526020019081526020015f206007015f9054906101000a900460ff1660018111156117bc576117bb613049565b5b146117fc576040517f08c379a00000000000000000000000000000000000000000000000000000000081526004016117f390613fb1565b60405180910390fd5b5f341161183e576040517f08c379a000000000000000000000000000000000000000000000000000000000815260040161183590614019565b60405180910390fd5b5f60045f8581526020019081526020015f20905034816004015f828254611865919061365c565b9250508190555060055f3373ffffffffffffffffffffffffffffffffffffffff1673ffffffffffffffffffffffffffffffffffffffff1681526020019081526020015f2084908060018154018082558091505060019003905f5260205f20015f909190919091505560065f8581526020019081526020015f2060405180606001604052803373ffffffffffffffffffffffffffffffffffffffff16815260200134815260200142815250908060018154018082558091505060019003905f5260205f2090600302015f909190919091505f820151815f015f6101000a81548173ffffffffffffffffffffffffffffffffffffffff021916908373ffffffffffffffffffffffffffffffffffffffff160217905550602082015181600101556040820151816002015550503460075f8681526020019081526020015f205f3373ffffffffffffffffffffffffffffffffffffffff1673ffffffffffffffffffffffffffffffffffffffff1681526020019081526020015f205f8282546119ea919061365c565b92505081905550833373ffffffffffffffffffffffffffffffffffffffff167fc65a4e529c0450a515882508bea7ee3485fbfdf8436e0bd13dc38dfbc859b1cb34604051611a389190612fa9565b60405180910390a350505050565b60015f9054906101000a900473ffffffffffffffffffffffffffffffffffffffff1681565b6004602052805f5260405f205f91509050805f015490806001015f9054906101000a900473ffffffffffffffffffffffffffffffffffffffff1690806002018054611ab590613c87565b80601f0160208091040260200160405190810160405280929190818152602001828054611ae190613c87565b8015611b2c5780601f10611b0357610100808354040283529160200191611b2c565b820191905f5260205f20905b815481529060010190602001808311611b0f57829003601f168201915b505050505090806003015f9054906101000a900460ff1690806004015490806005015f9054906101000a900460ff1690806006015490806007015f9054906101000a900460ff16908060080154905089565b60015f9054906101000a900473ffffffffffffffffffffffffffffffffffffffff1673ffffffffffffffffffffffffffffffffffffffff163373ffffffffffffffffffffffffffffffffffffffff1614611c0d576040517f08c379a0000000000000000000000000000000000000000000000000000000008152600401611c0490614081565b60405180910390fd5b8060025f8473ffffffffffffffffffffffffffffffffffffffff1673ffffffffffffffffffffffffffffffffffffffff1681526020019081526020015f205f6101000a81548160ff0219169083151502179055508173ffffffffffffffffffffffffffffffffffffffff167f30f1d11f11278ba2cc669fd4c95ee8d46ede2c82f6af0b74e4f427369b3522d382604051611ca79190612f28565b60405180910390a25050565b60015f9054906101000a900473ffffffffffffffffffffffffffffffffffffffff1673ffffffffffffffffffffffffffffffffffffffff163373ffffffffffffffffffffffffffffffffffffffff1614611d42576040517f08c379a0000000000000000000000000000000000000000000000000000000008152600401611d3990614081565b60405180910390fd5b5f73ffffffffffffffffffffffffffffffffffffffff168173ffffffffffffffffffffffffffffffffffffffff1603611db0576040517f08c379a0000000000000000000000000000000000000000000000000000000008152600401611da7906140e9565b60405180910390fd5b8073ffffffffffffffffffffffffffffffffffffffff1660015f9054906101000a900473ffffffffffffffffffffffffffffffffffffffff1673ffffffffffffffffffffffffffffffffffffffff167f14838e8afb969f97af6cf35bdd6625bd028b2b6bcd9e06c9e25ba0b1b1a454c160405160405180910390a38060015f6101000a81548173ffffffffffffffffffffffffffffffffffffffff021916908373ffffffffffffffffffffffffffffffffffffffff16021790555050565b8160045f8281526020019081526020015f206005015f9054906101000a900460ff16611ecf576040517f08c379a0000000000000000000000000000000000000000000000000000000008152600401611ec690613471565b60405180910390fd5b8260045f8281526020019081526020015f206001015f9054906101000a900473ffffffffffffffffffffffffffffffffffffffff1673ffffffffffffffffffffffffffffffffffffffff163373ffffffffffffffffffffffffffffffffffffffff1614611f71576040517f08c379a0000000000000000000000000000000000000000000000000000000008152600401611f68906134d9565b60405180910390fd5b8260045f8681526020019081526020015f2060080181905550837f945c1c4e99aa89f648fbfe3df471b916f719e16d960fcec0737d4d56bd69683884604051611fba9190612fa9565b60405180910390a250505050565b8160045f8281526020019081526020015f206005015f9054906101000a900460ff16612029576040517f08c379a000000000000000000000000000000000000000000000000000000000815260040161202090613471565b60405180910390fd5b826120338161292e565b5f600181111561204657612045613049565b5b60045f8381526020019081526020015f206007015f9054906101000a900460ff16600181111561207957612078613049565b5b146120b9576040517f08c379a00000000000000000000000000000000000000000000000000000000081526004016120b090613fb1565b60405180910390fd5b5f83116120fb576040517f08c379a00000000000000000000000000000000000000000000000000000000081526004016120f290614151565b60405180910390fd5b5f60045f8681526020019081526020015f2090505f816008015411612155576040517f08c379a000000000000000000000000000000000000000000000000000000000815260040161214c906141b9565b60405180910390fd5b5f8482600801546121669190613f26565b90508034146121aa576040517f08c379a00000000000000000000000000000000000000000000000000000000081526004016121a190614221565b60405180910390fd5b34826004015f8282546121bd919061365c565b9250508190555060055f3373ffffffffffffffffffffffffffffffffffffffff1673ffffffffffffffffffffffffffffffffffffffff1681526020019081526020015f2086908060018154018082558091505060019003905f5260205f20015f909190919091505560065f8781526020019081526020015f2060405180606001604052803373ffffffffffffffffffffffffffffffffffffffff16815260200134815260200142815250908060018154018082558091505060019003905f5260205f2090600302015f909190919091505f820151815f015f6101000a81548173ffffffffffffffffffffffffffffffffffffffff021916908373ffffffffffffffffffffffffffffffffffffffff160217905550602082015181600101556040820151816002015550503460075f8881526020019081526020015f205f3373ffffffffffffffffffffffffffffffffffffffff1673ffffffffffffffffffffffffffffffffffffffff1681526020019081526020015f205f828254612342919061365c565b92505081905550853373ffffffffffffffffffffffffffffffffffffffff167fc65a4e529c0450a515882508bea7ee3485fbfdf8436e0bd13dc38dfbc859b1cb346040516123909190612fa9565b60405180910390a3505050505050565b5f5481565b6123ad612a32565b8260045f8281526020019081526020015f206005015f9054906101000a900460ff1661240e576040517f08c379a000000000000000000000000000000000000000000000000000000000815260040161240590613471565b60405180910390fd5b60065f8581526020019081526020015f20805490508310612464576040517f08c379a000000000000000000000000000000000000000000000000000000000815260040161245b90614289565b60405180910390fd5b60065f8581526020019081526020015f208381548110612487576124866142a7565b5b905f5260205f2090600302016040518060600160405290815f82015f9054906101000a900473ffffffffffffffffffffffffffffffffffffffff1673ffffffffffffffffffffffffffffffffffffffff1673ffffffffffffffffffffffffffffffffffffffff1681526020016001820154815260200160028201548152505091505092915050565b6005602052815f5260405f208181548110612528575f80fd5b905f5260205f20015f91509150505481565b612542612a66565b8160045f8281526020019081526020015f206005015f9054906101000a900460ff166125a3576040517f08c379a000000000000000000000000000000000000000000000000000000000815260040161259a90613471565b60405180910390fd5b60045f8481526020019081526020015f20604051806101200160405290815f8201548152602001600182015f9054906101000a900473ffffffffffffffffffffffffffffffffffffffff1673ffffffffffffffffffffffffffffffffffffffff1673ffffffffffffffffffffffffffffffffffffffff16815260200160028201805461262e90613c87565b80601f016020809104026020016040519081016040528092919081815260200182805461265a90613c87565b80156126a55780601f1061267c576101008083540402835291602001916126a5565b820191905f5260205f20905b81548152906001019060200180831161268857829003601f168201915b50505050508152602001600382015f9054906101000a900460ff1660ff1660ff16815260200160048201548152602001600582015f9054906101000a900460ff1615151515815260200160068201548152602001600782015f9054906101000a900460ff16600181111561271c5761271b613049565b5b600181111561272e5761272d613049565b5b8152602001600882015481525050915050919050565b60035f9054906101000a900460ff1681565b5f8160045f8281526020019081526020015f206005015f9054906101000a900460ff166127b8576040517f08c379a00000000000000000000000000000000000000000000000000000000081526004016127af90613471565b60405180910390fd5b60065f8481526020019081526020015f2080549050915050919050565b6002602052805f5260405f205f915054906101000a900460ff1681565b60015f9054906101000a900473ffffffffffffffffffffffffffffffffffffffff1673ffffffffffffffffffffffffffffffffffffffff163373ffffffffffffffffffffffffffffffffffffffff1614612881576040517f08c379a000000000000000000000000000000000000000000000000000000000815260040161287890614081565b60405180910390fd5b8060035f6101000a81548160ff0219169083151502179055507fe7a1e87abc2ca43b742584d18b4c87c00f194a7f353acd09185db152815bc991816040516128c99190612f28565b60405180910390a150565b6007602052815f5260405f20602052805f5260405f205f91509150505481565b5f6201518060045f8481526020019081526020015f206003015f9054906101000a900460ff1660ff166129279190613f26565b9050919050565b5f60045f8381526020019081526020015f209050806005015f9054906101000a900460ff16801561299257505f600181111561296d5761296c613049565b5b816007015f9054906101000a900460ff1660018111156129905761298f613049565b5b145b15612a2e575f62015180826003015f9054906101000a900460ff1660ff166129ba9190613f26565b90508082600601546129cc919061365c565b4210612a2c576001826007015f6101000a81548160ff021916908360018111156129f9576129f8613049565b5b0217905550827fe98f832035383018ba3fb00c41e0fa51900f9de0f0ee1ce50e5c2af2c3c3293e60405160405180910390a25b505b5050565b60405180606001604052805f73ffffffffffffffffffffffffffffffffffffffff1681526020015f81526020015f81525090565b6040518061012001604052805f81526020015f73ffffffffffffffffffffffffffffffffffffffff168152602001606081526020015f60ff1681526020015f81526020015f151581526020015f81526020015f6001811115612acb57612aca613049565b5b81526020015f81525090565b5f82825260208201905092915050565b7f446972656374207061796d656e7473206e6f7420616c6c6f7765642e205573655f8201527f207061792f6275792e0000000000000000000000000000000000000000000000602082015250565b5f612b41602983612ad7565b9150612b4c82612ae7565b604082019050919050565b5f6020820190508181035f830152612b6e81612b35565b9050919050565b5f604051905090565b5f5ffd5b5f5ffd5b5f73ffffffffffffffffffffffffffffffffffffffff82169050919050565b5f612baf82612b86565b9050919050565b612bbf81612ba5565b8114612bc9575f5ffd5b50565b5f81359050612bda81612bb6565b92915050565b5f819050919050565b612bf281612be0565b8114612bfc575f5ffd5b50565b5f81359050612c0d81612be9565b92915050565b5f5f5f60608486031215612c2a57612c29612b7e565b5b5f612c3786828701612bcc565b9350506020612c4886828701612bff565b9250506040612c5986828701612bff565b9150509250925092565b5f60208284031215612c7857612c77612b7e565b5b5f612c8584828501612bff565b91505092915050565b5f5ffd5b5f5ffd5b5f601f19601f8301169050919050565b7f4e487b71000000000000000000000000000000000000000000000000000000005f52604160045260245ffd5b612cdc82612c96565b810181811067ffffffffffffffff82111715612cfb57612cfa612ca6565b5b80604052505050565b5f612d0d612b75565b9050612d198282612cd3565b919050565b5f67ffffffffffffffff821115612d3857612d37612ca6565b5b612d4182612c96565b9050602081019050919050565b828183375f83830152505050565b5f612d6e612d6984612d1e565b612d04565b905082815260208101848484011115612d8a57612d89612c92565b5b612d95848285612d4e565b509392505050565b5f82601f830112612db157612db0612c8e565b5b8135612dc1848260208601612d5c565b91505092915050565b5f60ff82169050919050565b612ddf81612dca565b8114612de9575f5ffd5b50565b5f81359050612dfa81612dd6565b92915050565b5f5f5f60608486031215612e1757612e16612b7e565b5b5f84013567ffffffffffffffff811115612e3457612e33612b82565b5b612e4086828701612d9d565b9350506020612e5186828701612dec565b9250506040612e6286828701612bff565b9150509250925092565b5f5f60408385031215612e8257612e81612b7e565b5b5f612e8f85828601612bff565b9250506020612ea085828601612bff565b9150509250929050565b5f612eb482612b86565b9050919050565b612ec481612eaa565b82525050565b612ed381612be0565b82525050565b5f606082019050612eec5f830186612ebb565b612ef96020830185612eca565b612f066040830184612eca565b949350505050565b5f8115159050919050565b612f2281612f0e565b82525050565b5f602082019050612f3b5f830184612f19565b92915050565b612f4a81612eaa565b8114612f54575f5ffd5b50565b5f81359050612f6581612f41565b92915050565b5f5f60408385031215612f8157612f80612b7e565b5b5f612f8e85828601612bff565b9250506020612f9f85828601612f57565b9150509250929050565b5f602082019050612fbc5f830184612eca565b92915050565b5f602082019050612fd55f830184612ebb565b92915050565b612fe481612ba5565b82525050565b5f81519050919050565b8281835e5f83830152505050565b5f61300c82612fea565b6130168185612ad7565b9350613026818560208601612ff4565b61302f81612c96565b840191505092915050565b61304381612dca565b82525050565b7f4e487b71000000000000000000000000000000000000000000000000000000005f52602160045260245ffd5b6002811061308757613086613049565b5b50565b5f81905061309782613076565b919050565b5f6130a68261308a565b9050919050565b6130b68161309c565b82525050565b5f610120820190506130d05f83018c612eca565b6130dd602083018b612fdb565b81810360408301526130ef818a613002565b90506130fe606083018961303a565b61310b6080830188612eca565b61311860a0830187612f19565b61312560c0830186612eca565b61313260e08301856130ad565b613140610100830184612eca565b9a9950505050505050505050565b61315781612f0e565b8114613161575f5ffd5b50565b5f813590506131728161314e565b92915050565b5f5f6040838503121561318e5761318d612b7e565b5b5f61319b85828601612f57565b92505060206131ac85828601613164565b9150509250929050565b5f602082840312156131cb576131ca612b7e565b5b5f6131d884828501612f57565b91505092915050565b6131ea81612eaa565b82525050565b6131f981612be0565b82525050565b606082015f8201516132135f8501826131e1565b50602082015161322660208501826131f0565b50604082015161323960408501826131f0565b50505050565b5f6060820190506132525f8301846131ff565b92915050565b5f5f6040838503121561326e5761326d612b7e565b5b5f61327b85828601612f57565b925050602061328c85828601612bff565b9150509250929050565b61329f81612ba5565b82525050565b5f82825260208201905092915050565b5f6132bf82612fea565b6132c981856132a5565b93506132d9818560208601612ff4565b6132e281612c96565b840191505092915050565b6132f681612dca565b82525050565b61330581612f0e565b82525050565b6133148161309c565b82525050565b5f61012083015f8301516133305f8601826131f0565b5060208301516133436020860182613296565b506040830151848203604086015261335b82826132b5565b915050606083015161337060608601826132ed565b50608083015161338360808601826131f0565b5060a083015161339660a08601826132fc565b5060c08301516133a960c08601826131f0565b5060e08301516133bc60e086018261330b565b506101008301516133d16101008601826131f0565b508091505092915050565b5f6020820190508181035f8301526133f4818461331a565b905092915050565b5f6020828403121561341157613410612b7e565b5b5f61341e84828501613164565b91505092915050565b7f5374616c6c3a206e6f7420666f756e64000000000000000000000000000000005f82015250565b5f61345b601083612ad7565b915061346682613427565b602082019050919050565b5f6020820190508181035f8301526134888161344f565b9050919050565b7f5374616c6c3a206e6f74206f776e6572000000000000000000000000000000005f82015250565b5f6134c3601083612ad7565b91506134ce8261348f565b602082019050919050565b5f6020820190508181035f8301526134f0816134b7565b9050919050565b7f5265656e7472616e637947756172643a207265656e7472616e740000000000005f82015250565b5f61352b601a83612ad7565b9150613536826134f7565b602082019050919050565b5f6020820190508181035f8301526135588161351f565b9050919050565b7f526566756e643a207a65726f20616464726573730000000000000000000000005f82015250565b5f613593601483612ad7565b915061359e8261355f565b602082019050919050565b5f6020820190508181035f8301526135c081613587565b9050919050565b7f526566756e643a20616d6f756e742072657175697265640000000000000000005f82015250565b5f6135fb601783612ad7565b9150613606826135c7565b602082019050919050565b5f6020820190508181035f830152613628816135ef565b9050919050565b7f4e487b71000000000000000000000000000000000000000000000000000000005f52601160045260245ffd5b5f61366682612be0565b915061367183612be0565b92508282019050808211156136895761368861362f565b5b92915050565b7f526566756e643a207374616c6c2068617320636c6f73656400000000000000005f82015250565b5f6136c3601883612ad7565b91506136ce8261368f565b602082019050919050565b5f6020820190508181035f8301526136f0816136b7565b9050919050565b7f526566756e643a20627579657220686173206e6f207061796d656e747320666f5f8201527f722074686973207374616c6c0000000000000000000000000000000000000000602082015250565b5f613751602c83612ad7565b915061375c826136f7565b604082019050919050565b5f6020820190508181035f83015261377e81613745565b9050919050565b7f526566756e642065786365656473206275796572277320746f74616c207061695f8201527f6400000000000000000000000000000000000000000000000000000000000000602082015250565b5f6137df602183612ad7565b91506137ea82613785565b604082019050919050565b5f6020820190508181035f83015261380c816137d3565b9050919050565b7f526566756e643a20696e73756666696369656e74207374616c6c2062616c616e5f8201527f6365000000000000000000000000000000000000000000000000000000000000602082015250565b5f61386d602283612ad7565b915061387882613813565b604082019050919050565b5f6020820190508181035f83015261389a81613861565b9050919050565b5f6138ab82612be0565b91506138b683612be0565b92508282039050818111156138ce576138cd61362f565b5b92915050565b5f81905092915050565b50565b5f6138ec5f836138d4565b91506138f7826138de565b5f82019050919050565b5f61390b826138e1565b9150819050919050565b7f526566756e643a207472616e73666572206661696c65640000000000000000005f82015250565b5f613949601783612ad7565b915061395482613915565b602082019050919050565b5f6020820190508181035f8301526139768161393d565b9050919050565b7f57697468647261773a207374616c6c207374696c6c206f7065726174696e67005f82015250565b5f6139b1601f83612ad7565b91506139bc8261397d565b602082019050919050565b5f6020820190508181035f8301526139de816139a5565b9050919050565b7f57697468647261773a206e6f2066756e647300000000000000000000000000005f82015250565b5f613a19601283612ad7565b9150613a24826139e5565b602082019050919050565b5f6020820190508181035f830152613a4681613a0d565b9050919050565b7f57697468647261773a207472616e73666572206661696c6564000000000000005f82015250565b5f613a81601983612ad7565b9150613a8c82613a4d565b602082019050919050565b5f6020820190508181035f830152613aae81613a75565b9050919050565b7f52656769737465723a206e6f7420616e20617574686f72697a6564206d656d625f8201527f6572000000000000000000000000000000000000000000000000000000000000602082015250565b5f613b0f602283612ad7565b9150613b1a82613ab5565b604082019050919050565b5f6020820190508181035f830152613b3c81613b03565b9050919050565b7f5374616c6c3a20696e76616c69642064617973000000000000000000000000005f82015250565b5f613b77601383612ad7565b9150613b8282613b43565b602082019050919050565b5f6020820190508181035f830152613ba481613b6b565b9050919050565b7f5374616c6c3a206e616d65206c656e67746800000000000000000000000000005f82015250565b5f613bdf601283612ad7565b9150613bea82613bab565b602082019050919050565b5f6020820190508181035f830152613c0c81613bd3565b9050919050565b5f613c1d82612be0565b91507fffffffffffffffffffffffffffffffffffffffffffffffffffffffffffffffff8203613c4f57613c4e61362f565b5b600182019050919050565b7f4e487b71000000000000000000000000000000000000000000000000000000005f52602260045260245ffd5b5f6002820490506001821680613c9e57607f821691505b602082108103613cb157613cb0613c5a565b5b50919050565b5f819050815f5260205f209050919050565b5f6020601f8301049050919050565b5f82821b905092915050565b5f60088302613d137fffffffffffffffffffffffffffffffffffffffffffffffffffffffffffffffff82613cd8565b613d1d8683613cd8565b95508019841693508086168417925050509392505050565b5f819050919050565b5f613d58613d53613d4e84612be0565b613d35565b612be0565b9050919050565b5f819050919050565b613d7183613d3e565b613d85613d7d82613d5f565b848454613ce4565b825550505050565b5f5f905090565b613d9c613d8d565b613da7818484613d68565b505050565b5b81811015613dca57613dbf5f82613d94565b600181019050613dad565b5050565b601f821115613e0f57613de081613cb7565b613de984613cc9565b81016020851015613df8578190505b613e0c613e0485613cc9565b830182613dac565b50505b505050565b5f82821c905092915050565b5f613e2f5f1984600802613e14565b1980831691505092915050565b5f613e478383613e20565b9150826002028217905092915050565b613e6082612fea565b67ffffffffffffffff811115613e7957613e78612ca6565b5b613e838254613c87565b613e8e828285613dce565b5f60209050601f831160018114613ebf575f8415613ead578287015190505b613eb78582613e3c565b865550613f1e565b601f198416613ecd86613cb7565b5f5b82811015613ef457848901518255600182019150602085019450602081019050613ecf565b86831015613f115784890151613f0d601f891682613e20565b8355505b6001600288020188555050505b505050505050565b5f613f3082612be0565b9150613f3b83612be0565b9250828202613f4981612be0565b91508282048414831517613f6057613f5f61362f565b5b5092915050565b7f5374616c6c3a20636c6f736564000000000000000000000000000000000000005f82015250565b5f613f9b600d83612ad7565b9150613fa682613f67565b602082019050919050565b5f6020820190508181035f830152613fc881613f8f565b9050919050565b7f5061793a20616d6f756e742072657175697265640000000000000000000000005f82015250565b5f614003601483612ad7565b915061400e82613fcf565b602082019050919050565b5f6020820190508181035f83015261403081613ff7565b9050919050565b7f4f6e6c79206f7267616e697a65720000000000000000000000000000000000005f82015250565b5f61406b600e83612ad7565b915061407682614037565b602082019050919050565b5f6020820190508181035f8301526140988161405f565b9050919050565b7f5a65726f206164647265737300000000000000000000000000000000000000005f82015250565b5f6140d3600c83612ad7565b91506140de8261409f565b602082019050919050565b5f6020820190508181035f830152614100816140c7565b9050919050565b7f4275793a20717479203e203000000000000000000000000000000000000000005f82015250565b5f61413b600c83612ad7565b915061414682614107565b602082019050919050565b5f6020820190508181035f8301526141688161412f565b9050919050565b7f4275793a207374616c6c206e6f742066697865642d70726963650000000000005f82015250565b5f6141a3601a83612ad7565b91506141ae8261416f565b602082019050919050565b5f6020820190508181035f8301526141d081614197565b9050919050565b7f4275793a20696e636f7272656374207061796d656e74000000000000000000005f82015250565b5f61420b601683612ad7565b9150614216826141d7565b602082019050919050565b5f6020820190508181035f830152614238816141ff565b9050919050565b7f5061793a20696e646578206f6f620000000000000000000000000000000000005f82015250565b5f614273600e83612ad7565b915061427e8261423f565b602082019050919050565b5f6020820190508181035f8301526142a081614267565b9050919050565b7f4e487b71000000000000000000000000000000000000000000000000000000005f52603260045260245ffdfea2646970667358221220274dbdf80d7684ebd0096038be409e19581d7ba4be4b52f6b1f4f94bc22741b364736f6c634300081e0033",
			"opcodes": "PUSH1 0x80 PUSH1 0x40 MSTORE CALLVALUE DUP1 ISZERO PUSH1 0xE JUMPI PUSH0 PUSH0 REVERT JUMPDEST POP CALLER PUSH1 0x1 PUSH0 PUSH2 0x100 EXP DUP2 SLOAD DUP2 PUSH20 0xFFFFFFFFFFFFFFFFFFFFFFFFFFFFFFFFFFFFFFFF MUL NOT AND SWAP1 DUP4 PUSH20 0xFFFFFFFFFFFFFFFFFFFFFFFFFFFFFFFFFFFFFFFF AND MUL OR SWAP1 SSTORE POP PUSH2 0x430A DUP1 PUSH2 0x5C PUSH0 CODECOPY PUSH0 RETURN INVALID PUSH1 0x80 PUSH1 0x40 MSTORE PUSH1 0x4 CALLDATASIZE LT PUSH2 0x143 JUMPI PUSH0 CALLDATALOAD PUSH1 0xE0 SHR DUP1 PUSH4 0x768A4D8D GT PUSH2 0xB5 JUMPI DUP1 PUSH4 0x9B8ED4BF GT PUSH2 0x6E JUMPI DUP1 PUSH4 0x9B8ED4BF EQ PUSH2 0x49D JUMPI DUP1 PUSH4 0xA7F6353A EQ PUSH2 0x4D9 JUMPI DUP1 PUSH4 0xAD1A17B4 EQ PUSH2 0x503 JUMPI DUP1 PUSH4 0xB034438E EQ PUSH2 0x53F JUMPI DUP1 PUSH4 0xCE6F8CA9 EQ PUSH2 0x57B JUMPI DUP1 PUSH4 0xFA144D53 EQ PUSH2 0x5A3 JUMPI PUSH2 0x183 JUMP JUMPDEST DUP1 PUSH4 0x768A4D8D EQ PUSH2 0x38F JUMPI DUP1 PUSH4 0x82367B2D EQ PUSH2 0x3B7 JUMPI DUP1 PUSH4 0x874D3E0E EQ PUSH2 0x3DF JUMPI DUP1 PUSH4 0x897C77D1 EQ PUSH2 0x3FB JUMPI DUP1 PUSH4 0x8C672BA1 EQ PUSH2 0x425 JUMPI DUP1 PUSH4 0x8CFEAB35 EQ PUSH2 0x461 JUMPI PUSH2 0x183 JUMP JUMPDEST DUP1 PUSH4 0x3330074D GT PUSH2 0x107 JUMPI DUP1 PUSH4 0x3330074D EQ PUSH2 0x265 JUMPI DUP1 PUSH4 0x5B796ECC EQ PUSH2 0x2A1 JUMPI DUP1 PUSH4 0x5F593A61 EQ PUSH2 0x2DD JUMPI DUP1 PUSH4 0x61203265 EQ PUSH2 0x2F9 JUMPI DUP1 PUSH4 0x6D0F9408 EQ PUSH2 0x323 JUMPI DUP1 PUSH4 0x744CD69C EQ PUSH2 0x367 JUMPI PUSH2 0x183 JUMP JUMPDEST DUP1 PUSH4 0xF0FAEF3 EQ PUSH2 0x187 JUMPI DUP1 PUSH4 0x14C9B8A5 EQ PUSH2 0x1AF JUMPI DUP1 PUSH4 0x155DD5EE EQ PUSH2 0x1D7 JUMPI DUP1 PUSH4 0x1C823EF1 EQ PUSH2 0x1FF JUMPI DUP1 PUSH4 0x227D4FE5 EQ PUSH2 0x227 JUMPI PUSH2 0x183 JUMP JUMPDEST CALLDATASIZE PUSH2 0x183 JUMPI PUSH1 0x40 MLOAD PUSH32 0x8C379A000000000000000000000000000000000000000000000000000000000 DUP2 MSTORE PUSH1 0x4 ADD PUSH2 0x17A SWAP1 PUSH2 0x2B57 JUMP JUMPDEST PUSH1 0x40 MLOAD DUP1 SWAP2 SUB SWAP1 REVERT JUMPDEST PUSH0 PUSH0 REVERT JUMPDEST CALLVALUE DUP1 ISZERO PUSH2 0x192 JUMPI PUSH0 PUSH0 REVERT JUMPDEST POP PUSH2 0x1AD PUSH1 0x4 DUP1 CALLDATASIZE SUB DUP2 ADD SWAP1 PUSH2 0x1A8 SWAP2 SWAP1 PUSH2 0x2C13 JUMP JUMPDEST PUSH2 0x5DF JUMP JUMPDEST STOP JUMPDEST CALLVALUE DUP1 ISZERO PUSH2 0x1BA JUMPI PUSH0 PUSH0 REVERT JUMPDEST POP PUSH2 0x1D5 PUSH1 0x4 DUP1 CALLDATASIZE SUB DUP2 ADD SWAP1 PUSH2 0x1D0 SWAP2 SWAP1 PUSH2 0x2C63 JUMP JUMPDEST PUSH2 0xB75 JUMP JUMPDEST STOP JUMPDEST CALLVALUE DUP1 ISZERO PUSH2 0x1E2 JUMPI PUSH0 PUSH0 REVERT JUMPDEST POP PUSH2 0x1FD PUSH1 0x4 DUP1 CALLDATASIZE SUB DUP2 ADD SWAP1 PUSH2 0x1F8 SWAP2 SWAP1 PUSH2 0x2C63 JUMP JUMPDEST PUSH2 0xD27 JUMP JUMPDEST STOP JUMPDEST CALLVALUE DUP1 ISZERO PUSH2 0x20A JUMPI PUSH0 PUSH0 REVERT JUMPDEST POP PUSH2 0x225 PUSH1 0x4 DUP1 CALLDATASIZE SUB DUP2 ADD SWAP1 PUSH2 0x220 SWAP2 SWAP1 PUSH2 0x2E00 JUMP JUMPDEST PUSH2 0x114C JUMP JUMPDEST STOP JUMPDEST CALLVALUE DUP1 ISZERO PUSH2 0x232 JUMPI PUSH0 PUSH0 REVERT JUMPDEST POP PUSH2 0x24D PUSH1 0x4 DUP1 CALLDATASIZE SUB DUP2 ADD SWAP1 PUSH2 0x248 SWAP2 SWAP1 PUSH2 0x2E6C JUMP JUMPDEST PUSH2 0x1472 JUMP JUMPDEST PUSH1 0x40 MLOAD PUSH2 0x25C SWAP4 SWAP3 SWAP2 SWAP1 PUSH2 0x2ED9 JUMP JUMPDEST PUSH1 0x40 MLOAD DUP1 SWAP2 SUB SWAP1 RETURN JUMPDEST CALLVALUE DUP1 ISZERO PUSH2 0x270 JUMPI PUSH0 PUSH0 REVERT JUMPDEST POP PUSH2 0x28B PUSH1 0x4 DUP1 CALLDATASIZE SUB DUP2 ADD SWAP1 PUSH2 0x286 SWAP2 SWAP1 PUSH2 0x2C63 JUMP JUMPDEST PUSH2 0x14D1 JUMP JUMPDEST PUSH1 0x40 MLOAD PUSH2 0x298 SWAP2 SWAP1 PUSH2 0x2F28 JUMP JUMPDEST PUSH1 0x40 MLOAD DUP1 SWAP2 SUB SWAP1 RETURN JUMPDEST CALLVALUE DUP1 ISZERO PUSH2 0x2AC JUMPI PUSH0 PUSH0 REVERT JUMPDEST POP PUSH2 0x2C7 PUSH1 0x4 DUP1 CALLDATASIZE SUB DUP2 ADD SWAP1 PUSH2 0x2C2 SWAP2 SWAP1 PUSH2 0x2F6B JUMP JUMPDEST PUSH2 0x16EB JUMP JUMPDEST PUSH1 0x40 MLOAD PUSH2 0x2D4 SWAP2 SWAP1 PUSH2 0x2FA9 JUMP JUMPDEST PUSH1 0x40 MLOAD DUP1 SWAP2 SUB SWAP1 RETURN JUMPDEST PUSH2 0x2F7 PUSH1 0x4 DUP1 CALLDATASIZE SUB DUP2 ADD SWAP1 PUSH2 0x2F2 SWAP2 SWAP1 PUSH2 0x2C63 JUMP JUMPDEST PUSH2 0x170B JUMP JUMPDEST STOP JUMPDEST CALLVALUE DUP1 ISZERO PUSH2 0x304 JUMPI PUSH0 PUSH0 REVERT JUMPDEST POP PUSH2 0x30D PUSH2 0x1A46 JUMP JUMPDEST PUSH1 0x40 MLOAD PUSH2 0x31A SWAP2 SWAP1 PUSH2 0x2FC2 JUMP JUMPDEST PUSH1 0x40 MLOAD DUP1 SWAP2 SUB SWAP1 RETURN JUMPDEST CALLVALUE DUP1 ISZERO PUSH2 0x32E JUMPI PUSH0 PUSH0 REVERT JUMPDEST POP PUSH2 0x349 PUSH1 0x4 DUP1 CALLDATASIZE SUB DUP2 ADD SWAP1 PUSH2 0x344 SWAP2 SWAP1 PUSH2 0x2C63 JUMP JUMPDEST PUSH2 0x1A6B JUMP JUMPDEST PUSH1 0x40 MLOAD PUSH2 0x35E SWAP10 SWAP9 SWAP8 SWAP7 SWAP6 SWAP5 SWAP4 SWAP3 SWAP2 SWAP1 PUSH2 0x30BC JUMP JUMPDEST PUSH1 0x40 MLOAD DUP1 SWAP2 SUB SWAP1 RETURN JUMPDEST CALLVALUE DUP1 ISZERO PUSH2 0x372 JUMPI PUSH0 PUSH0 REVERT JUMPDEST POP PUSH2 0x38D PUSH1 0x4 DUP1 CALLDATASIZE SUB DUP2 ADD SWAP1 PUSH2 0x388 SWAP2 SWAP1 PUSH2 0x3178 JUMP JUMPDEST PUSH2 0x1B7E JUMP JUMPDEST STOP JUMPDEST CALLVALUE DUP1 ISZERO PUSH2 0x39A JUMPI PUSH0 PUSH0 REVERT JUMPDEST POP PUSH2 0x3B5 PUSH1 0x4 DUP1 CALLDATASIZE SUB DUP2 ADD SWAP1 PUSH2 0x3B0 SWAP2 SWAP1 PUSH2 0x31B6 JUMP JUMPDEST PUSH2 0x1CB3 JUMP JUMPDEST STOP JUMPDEST CALLVALUE DUP1 ISZERO PUSH2 0x3C2 JUMPI PUSH0 PUSH0 REVERT JUMPDEST POP PUSH2 0x3DD PUSH1 0x4 DUP1 CALLDATASIZE SUB DUP2 ADD SWAP1 PUSH2 0x3D8 SWAP2 SWAP1 PUSH2 0x2E6C JUMP JUMPDEST PUSH2 0x1E6E JUMP JUMPDEST STOP JUMPDEST PUSH2 0x3F9 PUSH1 0x4 DUP1 CALLDATASIZE SUB DUP2 ADD SWAP1 PUSH2 0x3F4 SWAP2 SWAP1 PUSH2 0x2E6C JUMP JUMPDEST PUSH2 0x1FC8 JUMP JUMPDEST STOP JUMPDEST CALLVALUE DUP1 ISZERO PUSH2 0x406 JUMPI PUSH0 PUSH0 REVERT JUMPDEST POP PUSH2 0x40F PUSH2 0x23A0 JUMP JUMPDEST PUSH1 0x40 MLOAD PUSH2 0x41C SWAP2 SWAP1 PUSH2 0x2FA9 JUMP JUMPDEST PUSH1 0x40 MLOAD DUP1 SWAP2 SUB SWAP1 RETURN JUMPDEST CALLVALUE DUP1 ISZERO PUSH2 0x430 JUMPI PUSH0 PUSH0 REVERT JUMPDEST POP PUSH2 0x44B PUSH1 0x4 DUP1 CALLDATASIZE SUB DUP2 ADD SWAP1 PUSH2 0x446 SWAP2 SWAP1 PUSH2 0x2E6C JUMP JUMPDEST PUSH2 0x23A5 JUMP JUMPDEST PUSH1 0x40 MLOAD PUSH2 0x458 SWAP2 SWAP1 PUSH2 0x323F JUMP JUMPDEST PUSH1 0x40 MLOAD DUP1 SWAP2 SUB SWAP1 RETURN JUMPDEST CALLVALUE DUP1 ISZERO PUSH2 0x46C JUMPI PUSH0 PUSH0 REVERT JUMPDEST POP PUSH2 0x487 PUSH1 0x4 DUP1 CALLDATASIZE SUB DUP2 ADD SWAP1 PUSH2 0x482 SWAP2 SWAP1 PUSH2 0x3258 JUMP JUMPDEST PUSH2 0x250F JUMP JUMPDEST PUSH1 0x40 MLOAD PUSH2 0x494 SWAP2 SWAP1 PUSH2 0x2FA9 JUMP JUMPDEST PUSH1 0x40 MLOAD DUP1 SWAP2 SUB SWAP1 RETURN JUMPDEST CALLVALUE DUP1 ISZERO PUSH2 0x4A8 JUMPI PUSH0 PUSH0 REVERT JUMPDEST POP PUSH2 0x4C3 PUSH1 0x4 DUP1 CALLDATASIZE SUB DUP2 ADD SWAP1 PUSH2 0x4BE SWAP2 SWAP1 PUSH2 0x2C63 JUMP JUMPDEST PUSH2 0x253A JUMP JUMPDEST PUSH1 0x40 MLOAD PUSH2 0x4D0 SWAP2 SWAP1 PUSH2 0x33DC JUMP JUMPDEST PUSH1 0x40 MLOAD DUP1 SWAP2 SUB SWAP1 RETURN JUMPDEST CALLVALUE DUP1 ISZERO PUSH2 0x4E4 JUMPI PUSH0 PUSH0 REVERT JUMPDEST POP PUSH2 0x4ED PUSH2 0x2744 JUMP JUMPDEST PUSH1 0x40 MLOAD PUSH2 0x4FA SWAP2 SWAP1 PUSH2 0x2F28 JUMP JUMPDEST PUSH1 0x40 MLOAD DUP1 SWAP2 SUB SWAP1 RETURN JUMPDEST CALLVALUE DUP1 ISZERO PUSH2 0x50E JUMPI PUSH0 PUSH0 REVERT JUMPDEST POP PUSH2 0x529 PUSH1 0x4 DUP1 CALLDATASIZE SUB DUP2 ADD SWAP1 PUSH2 0x524 SWAP2 SWAP1 PUSH2 0x2C63 JUMP JUMPDEST PUSH2 0x2756 JUMP JUMPDEST PUSH1 0x40 MLOAD PUSH2 0x536 SWAP2 SWAP1 PUSH2 0x2FA9 JUMP JUMPDEST PUSH1 0x40 MLOAD DUP1 SWAP2 SUB SWAP1 RETURN JUMPDEST CALLVALUE DUP1 ISZERO PUSH2 0x54A JUMPI PUSH0 PUSH0 REVERT JUMPDEST POP PUSH2 0x565 PUSH1 0x4 DUP1 CALLDATASIZE SUB DUP2 ADD SWAP1 PUSH2 0x560 SWAP2 SWAP1 PUSH2 0x31B6 JUMP JUMPDEST PUSH2 0x27D5 JUMP JUMPDEST PUSH1 0x40 MLOAD PUSH2 0x572 SWAP2 SWAP1 PUSH2 0x2F28 JUMP JUMPDEST PUSH1 0x40 MLOAD DUP1 SWAP2 SUB SWAP1 RETURN JUMPDEST CALLVALUE DUP1 ISZERO PUSH2 0x586 JUMPI PUSH0 PUSH0 REVERT JUMPDEST POP PUSH2 0x5A1 PUSH1 0x4 DUP1 CALLDATASIZE SUB DUP2 ADD SWAP1 PUSH2 0x59C SWAP2 SWAP1 PUSH2 0x33FC JUMP JUMPDEST PUSH2 0x27F2 JUMP JUMPDEST STOP JUMPDEST CALLVALUE DUP1 ISZERO PUSH2 0x5AE JUMPI PUSH0 PUSH0 REVERT JUMPDEST POP PUSH2 0x5C9 PUSH1 0x4 DUP1 CALLDATASIZE SUB DUP2 ADD SWAP1 PUSH2 0x5C4 SWAP2 SWAP1 PUSH2 0x2F6B JUMP JUMPDEST PUSH2 0x28D4 JUMP JUMPDEST PUSH1 0x40 MLOAD PUSH2 0x5D6 SWAP2 SWAP1 PUSH2 0x2FA9 JUMP JUMPDEST PUSH1 0x40 MLOAD DUP1 SWAP2 SUB SWAP1 RETURN JUMPDEST DUP2 PUSH1 0x4 PUSH0 DUP3 DUP2 MSTORE PUSH1 0x20 ADD SWAP1 DUP2 MSTORE PUSH1 0x20 ADD PUSH0 KECCAK256 PUSH1 0x5 ADD PUSH0 SWAP1 SLOAD SWAP1 PUSH2 0x100 EXP SWAP1 DIV PUSH1 0xFF AND PUSH2 0x640 JUMPI PUSH1 0x40 MLOAD PUSH32 0x8C379A000000000000000000000000000000000000000000000000000000000 DUP2 MSTORE PUSH1 0x4 ADD PUSH2 0x637 SWAP1 PUSH2 0x3471 JUMP JUMPDEST PUSH1 0x40 MLOAD DUP1 SWAP2 SUB SWAP1 REVERT JUMPDEST DUP3 PUSH1 0x4 PUSH0 DUP3 DUP2 MSTORE PUSH1 0x20 ADD SWAP1 DUP2 MSTORE PUSH1 0x20 ADD PUSH0 KECCAK256 PUSH1 0x1 ADD PUSH0 SWAP1 SLOAD SWAP1 PUSH2 0x100 EXP SWAP1 DIV PUSH20 0xFFFFFFFFFFFFFFFFFFFFFFFFFFFFFFFFFFFFFFFF AND PUSH20 0xFFFFFFFFFFFFFFFFFFFFFFFFFFFFFFFFFFFFFFFF AND CALLER PUSH20 0xFFFFFFFFFFFFFFFFFFFFFFFFFFFFFFFFFFFFFFFF AND EQ PUSH2 0x6E2 JUMPI PUSH1 0x40 MLOAD PUSH32 0x8C379A000000000000000000000000000000000000000000000000000000000 DUP2 MSTORE PUSH1 0x4 ADD PUSH2 0x6D9 SWAP1 PUSH2 0x34D9 JUMP JUMPDEST PUSH1 0x40 MLOAD DUP1 SWAP2 SUB SWAP1 REVERT JUMPDEST PUSH1 0x9 PUSH0 SWAP1 SLOAD SWAP1 PUSH2 0x100 EXP SWAP1 DIV PUSH1 0xFF AND ISZERO PUSH2 0x731 JUMPI PUSH1 0x40 MLOAD PUSH32 0x8C379A000000000000000000000000000000000000000000000000000000000 DUP2 MSTORE PUSH1 0x4 ADD PUSH2 0x728 SWAP1 PUSH2 0x3541 JUMP JUMPDEST PUSH1 0x40 MLOAD DUP1 SWAP2 SUB SWAP1 REVERT JUMPDEST PUSH1 0x1 PUSH1 0x9 PUSH0 PUSH2 0x100 EXP DUP2 SLOAD DUP2 PUSH1 0xFF MUL NOT AND SWAP1 DUP4 ISZERO ISZERO MUL OR SWAP1 SSTORE POP PUSH0 PUSH20 0xFFFFFFFFFFFFFFFFFFFFFFFFFFFFFFFFFFFFFFFF AND DUP6 PUSH20 0xFFFFFFFFFFFFFFFFFFFFFFFFFFFFFFFFFFFFFFFF AND SUB PUSH2 0x7B9 JUMPI PUSH1 0x40 MLOAD PUSH32 0x8C379A000000000000000000000000000000000000000000000000000000000 DUP2 MSTORE PUSH1 0x4 ADD PUSH2 0x7B0 SWAP1 PUSH2 0x35A9 JUMP JUMPDEST PUSH1 0x40 MLOAD DUP1 SWAP2 SUB SWAP1 REVERT JUMPDEST PUSH0 DUP4 GT PUSH2 0x7FB JUMPI PUSH1 0x40 MLOAD PUSH32 0x8C379A000000000000000000000000000000000000000000000000000000000 DUP2 MSTORE PUSH1 0x4 ADD PUSH2 0x7F2 SWAP1 PUSH2 0x3611 JUMP JUMPDEST PUSH1 0x40 MLOAD DUP1 SWAP2 SUB SWAP1 REVERT JUMPDEST PUSH0 PUSH1 0x4 PUSH0 DUP7 DUP2 MSTORE PUSH1 0x20 ADD SWAP1 DUP2 MSTORE PUSH1 0x20 ADD PUSH0 KECCAK256 SWAP1 POP PUSH0 PUSH2 0x819 DUP7 PUSH2 0x28F4 JUMP JUMPDEST DUP3 PUSH1 0x6 ADD SLOAD PUSH2 0x828 SWAP2 SWAP1 PUSH2 0x365C JUMP JUMPDEST SWAP1 POP DUP1 TIMESTAMP LT PUSH2 0x86C JUMPI PUSH1 0x40 MLOAD PUSH32 0x8C379A000000000000000000000000000000000000000000000000000000000 DUP2 MSTORE PUSH1 0x4 ADD PUSH2 0x863 SWAP1 PUSH2 0x36D9 JUMP JUMPDEST PUSH1 0x40 MLOAD DUP1 SWAP2 SUB SWAP1 REVERT JUMPDEST PUSH0 PUSH1 0x7 PUSH0 DUP9 DUP2 MSTORE PUSH1 0x20 ADD SWAP1 DUP2 MSTORE PUSH1 0x20 ADD PUSH0 KECCAK256 PUSH0 DUP10 PUSH20 0xFFFFFFFFFFFFFFFFFFFFFFFFFFFFFFFFFFFFFFFF AND PUSH20 0xFFFFFFFFFFFFFFFFFFFFFFFFFFFFFFFFFFFFFFFF AND DUP2 MSTORE PUSH1 0x20 ADD SWAP1 DUP2 MSTORE PUSH1 0x20 ADD PUSH0 KECCAK256 SLOAD SWAP1 POP PUSH0 DUP2 GT PUSH2 0x8FE JUMPI PUSH1 0x40 MLOAD PUSH32 0x8C379A000000000000000000000000000000000000000000000000000000000 DUP2 MSTORE PUSH1 0x4 ADD PUSH2 0x8F5 SWAP1 PUSH2 0x3767 JUMP JUMPDEST PUSH1 0x40 MLOAD DUP1 SWAP2 SUB SWAP1 REVERT JUMPDEST PUSH0 PUSH1 0x8 PUSH0 DUP10 DUP2 MSTORE PUSH1 0x20 ADD SWAP1 DUP2 MSTORE PUSH1 0x20 ADD PUSH0 KECCAK256 PUSH0 DUP11 PUSH20 0xFFFFFFFFFFFFFFFFFFFFFFFFFFFFFFFFFFFFFFFF AND PUSH20 0xFFFFFFFFFFFFFFFFFFFFFFFFFFFFFFFFFFFFFFFF AND DUP2 MSTORE PUSH1 0x20 ADD SWAP1 DUP2 MSTORE PUSH1 0x20 ADD PUSH0 KECCAK256 SLOAD SWAP1 POP DUP2 DUP8 DUP3 PUSH2 0x95B SWAP2 SWAP1 PUSH2 0x365C JUMP JUMPDEST GT ISZERO PUSH2 0x99C JUMPI PUSH1 0x40 MLOAD PUSH32 0x8C379A000000000000000000000000000000000000000000000000000000000 DUP2 MSTORE PUSH1 0x4 ADD PUSH2 0x993 SWAP1 PUSH2 0x37F5 JUMP JUMPDEST PUSH1 0x40 MLOAD DUP1 SWAP2 SUB SWAP1 REVERT JUMPDEST DUP7 DUP5 PUSH1 0x4 ADD SLOAD LT ISZERO PUSH2 0x9E3 JUMPI PUSH1 0x40 MLOAD PUSH32 0x8C379A000000000000000000000000000000000000000000000000000000000 DUP2 MSTORE PUSH1 0x4 ADD PUSH2 0x9DA SWAP1 PUSH2 0x3883 JUMP JUMPDEST PUSH1 0x40 MLOAD DUP1 SWAP2 SUB SWAP1 REVERT JUMPDEST DUP7 DUP5 PUSH1 0x4 ADD PUSH0 DUP3 DUP3 SLOAD PUSH2 0x9F6 SWAP2 SWAP1 PUSH2 0x38A1 JUMP JUMPDEST SWAP3 POP POP DUP2 SWAP1 SSTORE POP PUSH0 DUP10 PUSH20 0xFFFFFFFFFFFFFFFFFFFFFFFFFFFFFFFFFFFFFFFF AND DUP9 PUSH1 0x40 MLOAD PUSH2 0xA22 SWAP1 PUSH2 0x3901 JUMP JUMPDEST PUSH0 PUSH1 0x40 MLOAD DUP1 DUP4 SUB DUP2 DUP6 DUP8 GAS CALL SWAP3 POP POP POP RETURNDATASIZE DUP1 PUSH0 DUP2 EQ PUSH2 0xA5C JUMPI PUSH1 0x40 MLOAD SWAP2 POP PUSH1 0x1F NOT PUSH1 0x3F RETURNDATASIZE ADD AND DUP3 ADD PUSH1 0x40 MSTORE RETURNDATASIZE DUP3 MSTORE RETURNDATASIZE PUSH0 PUSH1 0x20 DUP5 ADD RETURNDATACOPY PUSH2 0xA61 JUMP JUMPDEST PUSH1 0x60 SWAP2 POP JUMPDEST POP POP SWAP1 POP DUP1 PUSH2 0xAA5 JUMPI PUSH1 0x40 MLOAD PUSH32 0x8C379A000000000000000000000000000000000000000000000000000000000 DUP2 MSTORE PUSH1 0x4 ADD PUSH2 0xA9C SWAP1 PUSH2 0x395F JUMP JUMPDEST PUSH1 0x40 MLOAD DUP1 SWAP2 SUB SWAP1 REVERT JUMPDEST DUP8 DUP3 PUSH2 0xAB1 SWAP2 SWAP1 PUSH2 0x365C JUMP JUMPDEST PUSH1 0x8 PUSH0 DUP12 DUP2 MSTORE PUSH1 0x20 ADD SWAP1 DUP2 MSTORE PUSH1 0x20 ADD PUSH0 KECCAK256 PUSH0 DUP13 PUSH20 0xFFFFFFFFFFFFFFFFFFFFFFFFFFFFFFFFFFFFFFFF AND PUSH20 0xFFFFFFFFFFFFFFFFFFFFFFFFFFFFFFFFFFFFFFFF AND DUP2 MSTORE PUSH1 0x20 ADD SWAP1 DUP2 MSTORE PUSH1 0x20 ADD PUSH0 KECCAK256 DUP2 SWAP1 SSTORE POP DUP9 DUP11 PUSH20 0xFFFFFFFFFFFFFFFFFFFFFFFFFFFFFFFFFFFFFFFF AND PUSH32 0x93C496F36ECAB5F5583F216646CAC3ACB12A63AEACDDB1A9251CEB81F0EE36E7 DUP11 PUSH1 0x40 MLOAD PUSH2 0xB48 SWAP2 SWAP1 PUSH2 0x2FA9 JUMP JUMPDEST PUSH1 0x40 MLOAD DUP1 SWAP2 SUB SWAP1 LOG3 POP POP POP POP POP PUSH0 PUSH1 0x9 PUSH0 PUSH2 0x100 EXP DUP2 SLOAD DUP2 PUSH1 0xFF MUL NOT AND SWAP1 DUP4 ISZERO ISZERO MUL OR SWAP1 SSTORE POP POP POP POP POP POP JUMP JUMPDEST DUP1 PUSH1 0x4 PUSH0 DUP3 DUP2 MSTORE PUSH1 0x20 ADD SWAP1 DUP2 MSTORE PUSH1 0x20 ADD PUSH0 KECCAK256 PUSH1 0x5 ADD PUSH0 SWAP1 SLOAD SWAP1 PUSH2 0x100 EXP SWAP1 DIV PUSH1 0xFF AND PUSH2 0xBD6 JUMPI PUSH1 0x40 MLOAD PUSH32 0x8C379A000000000000000000000000000000000000000000000000000000000 DUP2 MSTORE PUSH1 0x4 ADD PUSH2 0xBCD SWAP1 PUSH2 0x3471 JUMP JUMPDEST PUSH1 0x40 MLOAD DUP1 SWAP2 SUB SWAP1 REVERT JUMPDEST DUP2 PUSH1 0x4 PUSH0 DUP3 DUP2 MSTORE PUSH1 0x20 ADD SWAP1 DUP2 MSTORE PUSH1 0x20 ADD PUSH0 KECCAK256 PUSH1 0x1 ADD PUSH0 SWAP1 SLOAD SWAP1 PUSH2 0x100 EXP SWAP1 DIV PUSH20 0xFFFFFFFFFFFFFFFFFFFFFFFFFFFFFFFFFFFFFFFF AND PUSH20 0xFFFFFFFFFFFFFFFFFFFFFFFFFFFFFFFFFFFFFFFF AND CALLER PUSH20 0xFFFFFFFFFFFFFFFFFFFFFFFFFFFFFFFFFFFFFFFF AND EQ PUSH2 0xC78 JUMPI PUSH1 0x40 MLOAD PUSH32 0x8C379A000000000000000000000000000000000000000000000000000000000 DUP2 MSTORE PUSH1 0x4 ADD PUSH2 0xC6F SWAP1 PUSH2 0x34D9 JUMP JUMPDEST PUSH1 0x40 MLOAD DUP1 SWAP2 SUB SWAP1 REVERT JUMPDEST PUSH0 PUSH1 0x4 PUSH0 DUP6 DUP2 MSTORE PUSH1 0x20 ADD SWAP1 DUP2 MSTORE PUSH1 0x20 ADD PUSH0 KECCAK256 SWAP1 POP PUSH0 PUSH1 0x1 DUP2 GT ISZERO PUSH2 0xC9F JUMPI PUSH2 0xC9E PUSH2 0x3049 JUMP JUMPDEST JUMPDEST DUP2 PUSH1 0x7 ADD PUSH0 SWAP1 SLOAD SWAP1 PUSH2 0x100 EXP SWAP1 DIV PUSH1 0xFF AND PUSH1 0x1 DUP2 GT ISZERO PUSH2 0xCC2 JUMPI PUSH2 0xCC1 PUSH2 0x3049 JUMP JUMPDEST JUMPDEST SUB PUSH2 0xD21 JUMPI PUSH1 0x1 DUP2 PUSH1 0x7 ADD PUSH0 PUSH2 0x100 EXP DUP2 SLOAD DUP2 PUSH1 0xFF MUL NOT AND SWAP1 DUP4 PUSH1 0x1 DUP2 GT ISZERO PUSH2 0xCEE JUMPI PUSH2 0xCED PUSH2 0x3049 JUMP JUMPDEST JUMPDEST MUL OR SWAP1 SSTORE POP DUP4 PUSH32 0x23B5BF095B0931DA20D1D200DC9CD40F741C1F84AECFB5C73391814189857EB6 PUSH1 0x40 MLOAD PUSH1 0x40 MLOAD DUP1 SWAP2 SUB SWAP1 LOG2 JUMPDEST POP POP POP POP JUMP JUMPDEST DUP1 PUSH1 0x4 PUSH0 DUP3 DUP2 MSTORE PUSH1 0x20 ADD SWAP1 DUP2 MSTORE PUSH1 0x20 ADD PUSH0 KECCAK256 PUSH1 0x5 ADD PUSH0 SWAP1 SLOAD SWAP1 PUSH2 0x100 EXP SWAP1 DIV PUSH1 0xFF AND PUSH2 0xD88 JUMPI PUSH1 0x40 MLOAD PUSH32 0x8C379A000000000000000000000000000000000000000000000000000000000 DUP2 MSTORE PUSH1 0x4 ADD PUSH2 0xD7F SWAP1 PUSH2 0x3471 JUMP JUMPDEST PUSH1 0x40 MLOAD DUP1 SWAP2 SUB SWAP1 REVERT JUMPDEST DUP2 PUSH1 0x4 PUSH0 DUP3 DUP2 MSTORE PUSH1 0x20 ADD SWAP1 DUP2 MSTORE PUSH1 0x20 ADD PUSH0 KECCAK256 PUSH1 0x1 ADD PUSH0 SWAP1 SLOAD SWAP1 PUSH2 0x100 EXP SWAP1 DIV PUSH20 0xFFFFFFFFFFFFFFFFFFFFFFFFFFFFFFFFFFFFFFFF AND PUSH20 0xFFFFFFFFFFFFFFFFFFFFFFFFFFFFFFFFFFFFFFFF AND CALLER PUSH20 0xFFFFFFFFFFFFFFFFFFFFFFFFFFFFFFFFFFFFFFFF AND EQ PUSH2 0xE2A JUMPI PUSH1 0x40 MLOAD PUSH32 0x8C379A000000000000000000000000000000000000000000000000000000000 DUP2 MSTORE PUSH1 0x4 ADD PUSH2 0xE21 SWAP1 PUSH2 0x34D9 JUMP JUMPDEST PUSH1 0x40 MLOAD DUP1 SWAP2 SUB SWAP1 REVERT JUMPDEST PUSH1 0x9 PUSH0 SWAP1 SLOAD SWAP1 PUSH2 0x100 EXP SWAP1 DIV PUSH1 0xFF AND ISZERO PUSH2 0xE79 JUMPI PUSH1 0x40 MLOAD PUSH32 0x8C379A000000000000000000000000000000000000000000000000000000000 DUP2 MSTORE PUSH1 0x4 ADD PUSH2 0xE70 SWAP1 PUSH2 0x3541 JUMP JUMPDEST PUSH1 0x40 MLOAD DUP1 SWAP2 SUB SWAP1 REVERT JUMPDEST PUSH1 0x1 PUSH1 0x9 PUSH0 PUSH2 0x100 EXP DUP2 SLOAD DUP2 PUSH1 0xFF MUL NOT AND SWAP1 DUP4 ISZERO ISZERO MUL OR SWAP1 SSTORE POP PUSH0 PUSH1 0x4 PUSH0 DUP6 DUP2 MSTORE PUSH1 0x20 ADD SWAP1 DUP2 MSTORE PUSH1 0x20 ADD PUSH0 KECCAK256 SWAP1 POP PUSH0 PUSH2 0xEB1 DUP6 PUSH2 0x28F4 JUMP JUMPDEST DUP3 PUSH1 0x6 ADD SLOAD PUSH2 0xEC0 SWAP2 SWAP1 PUSH2 0x365C JUMP JUMPDEST SWAP1 POP DUP1 TIMESTAMP LT ISZERO PUSH2 0xF05 JUMPI PUSH1 0x40 MLOAD PUSH32 0x8C379A000000000000000000000000000000000000000000000000000000000 DUP2 MSTORE PUSH1 0x4 ADD PUSH2 0xEFC SWAP1 PUSH2 0x39C7 JUMP JUMPDEST PUSH1 0x40 MLOAD DUP1 SWAP2 SUB SWAP1 REVERT JUMPDEST PUSH1 0x1 DUP1 DUP2 GT ISZERO PUSH2 0xF18 JUMPI PUSH2 0xF17 PUSH2 0x3049 JUMP JUMPDEST JUMPDEST DUP3 PUSH1 0x7 ADD PUSH0 SWAP1 SLOAD SWAP1 PUSH2 0x100 EXP SWAP1 DIV PUSH1 0xFF AND PUSH1 0x1 DUP2 GT ISZERO PUSH2 0xF3B JUMPI PUSH2 0xF3A PUSH2 0x3049 JUMP JUMPDEST JUMPDEST EQ PUSH2 0xF9A JUMPI PUSH1 0x1 DUP3 PUSH1 0x7 ADD PUSH0 PUSH2 0x100 EXP DUP2 SLOAD DUP2 PUSH1 0xFF MUL NOT AND SWAP1 DUP4 PUSH1 0x1 DUP2 GT ISZERO PUSH2 0xF67 JUMPI PUSH2 0xF66 PUSH2 0x3049 JUMP JUMPDEST JUMPDEST MUL OR SWAP1 SSTORE POP DUP5 PUSH32 0xE98F832035383018BA3FB00C41E0FA51900F9DE0F0EE1CE50E5C2AF2C3C3293E PUSH1 0x40 MLOAD PUSH1 0x40 MLOAD DUP1 SWAP2 SUB SWAP1 LOG2 JUMPDEST PUSH0 DUP3 PUSH1 0x4 ADD SLOAD SWAP1 POP PUSH0 DUP2 GT PUSH2 0xFE4 JUMPI PUSH1 0x40 MLOAD PUSH32 0x8C379A000000000000000000000000000000000000000000000000000000000 DUP2 MSTORE PUSH1 0x4 ADD PUSH2 0xFDB SWAP1 PUSH2 0x3A2F JUMP JUMPDEST PUSH1 0x40 MLOAD DUP1 SWAP2 SUB SWAP1 REVERT JUMPDEST PUSH0 DUP4 PUSH1 0x4 ADD DUP2 SWAP1 SSTORE POP PUSH0 DUP4 PUSH1 0x1 ADD PUSH0 SWAP1 SLOAD SWAP1 PUSH2 0x100 EXP SWAP1 DIV PUSH20 0xFFFFFFFFFFFFFFFFFFFFFFFFFFFFFFFFFFFFFFFF AND PUSH20 0xFFFFFFFFFFFFFFFFFFFFFFFFFFFFFFFFFFFFFFFF AND DUP3 PUSH1 0x40 MLOAD PUSH2 0x1035 SWAP1 PUSH2 0x3901 JUMP JUMPDEST PUSH0 PUSH1 0x40 MLOAD DUP1 DUP4 SUB DUP2 DUP6 DUP8 GAS CALL SWAP3 POP POP POP RETURNDATASIZE DUP1 PUSH0 DUP2 EQ PUSH2 0x106F JUMPI PUSH1 0x40 MLOAD SWAP2 POP PUSH1 0x1F NOT PUSH1 0x3F RETURNDATASIZE ADD AND DUP3 ADD PUSH1 0x40 MSTORE RETURNDATASIZE DUP3 MSTORE RETURNDATASIZE PUSH0 PUSH1 0x20 DUP5 ADD RETURNDATACOPY PUSH2 0x1074 JUMP JUMPDEST PUSH1 0x60 SWAP2 POP JUMPDEST POP POP SWAP1 POP DUP1 PUSH2 0x10B8 JUMPI PUSH1 0x40 MLOAD PUSH32 0x8C379A000000000000000000000000000000000000000000000000000000000 DUP2 MSTORE PUSH1 0x4 ADD PUSH2 0x10AF SWAP1 PUSH2 0x3A97 JUMP JUMPDEST PUSH1 0x40 MLOAD DUP1 SWAP2 SUB SWAP1 REVERT JUMPDEST DUP7 DUP5 PUSH1 0x1 ADD PUSH0 SWAP1 SLOAD SWAP1 PUSH2 0x100 EXP SWAP1 DIV PUSH20 0xFFFFFFFFFFFFFFFFFFFFFFFFFFFFFFFFFFFFFFFF AND PUSH20 0xFFFFFFFFFFFFFFFFFFFFFFFFFFFFFFFFFFFFFFFF AND PUSH32 0xFBC3A599B784FE88772FC5ABCC07223F64CA0B13ACC341F4FB1E46BEF0510EB4 DUP5 PUSH1 0x40 MLOAD PUSH2 0x1122 SWAP2 SWAP1 PUSH2 0x2FA9 JUMP JUMPDEST PUSH1 0x40 MLOAD DUP1 SWAP2 SUB SWAP1 LOG3 POP POP POP POP PUSH0 PUSH1 0x9 PUSH0 PUSH2 0x100 EXP DUP2 SLOAD DUP2 PUSH1 0xFF MUL NOT AND SWAP1 DUP4 ISZERO ISZERO MUL OR SWAP1 SSTORE POP POP POP POP JUMP JUMPDEST PUSH1 0x3 PUSH0 SWAP1 SLOAD SWAP1 PUSH2 0x100 EXP SWAP1 DIV PUSH1 0xFF AND ISZERO PUSH2 0x11EA JUMPI PUSH1 0x2 PUSH0 CALLER PUSH20 0xFFFFFFFFFFFFFFFFFFFFFFFFFFFFFFFFFFFFFFFF AND PUSH20 0xFFFFFFFFFFFFFFFFFFFFFFFFFFFFFFFFFFFFFFFF AND DUP2 MSTORE PUSH1 0x20 ADD SWAP1 DUP2 MSTORE PUSH1 0x20 ADD PUSH0 KECCAK256 PUSH0 SWAP1 SLOAD SWAP1 PUSH2 0x100 EXP SWAP1 DIV PUSH1 0xFF AND PUSH2 0x11E9 JUMPI PUSH1 0x40 MLOAD PUSH32 0x8C379A000000000000000000000000000000000000000000000000000000000 DUP2 MSTORE PUSH1 0x4 ADD PUSH2 0x11E0 SWAP1 PUSH2 0x3B25 JUMP JUMPDEST PUSH1 0x40 MLOAD DUP1 SWAP2 SUB SWAP1 REVERT JUMPDEST JUMPDEST PUSH1 0x1 DUP3 PUSH1 0xFF AND LT ISZERO DUP1 ISZERO PUSH2 0x1202 JUMPI POP PUSH1 0x3 DUP3 PUSH1 0xFF AND GT ISZERO JUMPDEST PUSH2 0x1241 JUMPI PUSH1 0x40 MLOAD PUSH32 0x8C379A000000000000000000000000000000000000000000000000000000000 DUP2 MSTORE PUSH1 0x4 ADD PUSH2 0x1238 SWAP1 PUSH2 0x3B8D JUMP JUMPDEST PUSH1 0x40 MLOAD DUP1 SWAP2 SUB SWAP1 REVERT JUMPDEST PUSH0 DUP4 MLOAD GT DUP1 ISZERO PUSH2 0x1253 JUMPI POP PUSH1 0x40 DUP4 MLOAD GT ISZERO JUMPDEST PUSH2 0x1292 JUMPI PUSH1 0x40 MLOAD PUSH32 0x8C379A000000000000000000000000000000000000000000000000000000000 DUP2 MSTORE PUSH1 0x4 ADD PUSH2 0x1289 SWAP1 PUSH2 0x3BF5 JUMP JUMPDEST PUSH1 0x40 MLOAD DUP1 SWAP2 SUB SWAP1 REVERT JUMPDEST PUSH0 PUSH0 DUP2 SLOAD DUP1 SWAP3 SWAP2 SWAP1 PUSH2 0x12A3 SWAP1 PUSH2 0x3C13 JUMP JUMPDEST SWAP2 SWAP1 POP SSTORE POP PUSH1 0x40 MLOAD DUP1 PUSH2 0x120 ADD PUSH1 0x40 MSTORE DUP1 PUSH0 SLOAD DUP2 MSTORE PUSH1 0x20 ADD CALLER PUSH20 0xFFFFFFFFFFFFFFFFFFFFFFFFFFFFFFFFFFFFFFFF AND DUP2 MSTORE PUSH1 0x20 ADD DUP5 DUP2 MSTORE PUSH1 0x20 ADD DUP4 PUSH1 0xFF AND DUP2 MSTORE PUSH1 0x20 ADD PUSH0 DUP2 MSTORE PUSH1 0x20 ADD PUSH1 0x1 ISZERO ISZERO DUP2 MSTORE PUSH1 0x20 ADD TIMESTAMP DUP2 MSTORE PUSH1 0x20 ADD PUSH0 PUSH1 0x1 DUP2 GT ISZERO PUSH2 0x130E JUMPI PUSH2 0x130D PUSH2 0x3049 JUMP JUMPDEST JUMPDEST DUP2 MSTORE PUSH1 0x20 ADD DUP3 DUP2 MSTORE POP PUSH1 0x4 PUSH0 PUSH0 SLOAD DUP2 MSTORE PUSH1 0x20 ADD SWAP1 DUP2 MSTORE PUSH1 0x20 ADD PUSH0 KECCAK256 PUSH0 DUP3 ADD MLOAD DUP2 PUSH0 ADD SSTORE PUSH1 0x20 DUP3 ADD MLOAD DUP2 PUSH1 0x1 ADD PUSH0 PUSH2 0x100 EXP DUP2 SLOAD DUP2 PUSH20 0xFFFFFFFFFFFFFFFFFFFFFFFFFFFFFFFFFFFFFFFF MUL NOT AND SWAP1 DUP4 PUSH20 0xFFFFFFFFFFFFFFFFFFFFFFFFFFFFFFFFFFFFFFFF AND MUL OR SWAP1 SSTORE POP PUSH1 0x40 DUP3 ADD MLOAD DUP2 PUSH1 0x2 ADD SWAP1 DUP2 PUSH2 0x138C SWAP2 SWAP1 PUSH2 0x3E57 JUMP JUMPDEST POP PUSH1 0x60 DUP3 ADD MLOAD DUP2 PUSH1 0x3 ADD PUSH0 PUSH2 0x100 EXP DUP2 SLOAD DUP2 PUSH1 0xFF MUL NOT AND SWAP1 DUP4 PUSH1 0xFF AND MUL OR SWAP1 SSTORE POP PUSH1 0x80 DUP3 ADD MLOAD DUP2 PUSH1 0x4 ADD SSTORE PUSH1 0xA0 DUP3 ADD MLOAD DUP2 PUSH1 0x5 ADD PUSH0 PUSH2 0x100 EXP DUP2 SLOAD DUP2 PUSH1 0xFF MUL NOT AND SWAP1 DUP4 ISZERO ISZERO MUL OR SWAP1 SSTORE POP PUSH1 0xC0 DUP3 ADD MLOAD DUP2 PUSH1 0x6 ADD SSTORE PUSH1 0xE0 DUP3 ADD MLOAD DUP2 PUSH1 0x7 ADD PUSH0 PUSH2 0x100 EXP DUP2 SLOAD DUP2 PUSH1 0xFF MUL NOT AND SWAP1 DUP4 PUSH1 0x1 DUP2 GT ISZERO PUSH2 0x140A JUMPI PUSH2 0x1409 PUSH2 0x3049 JUMP JUMPDEST JUMPDEST MUL OR SWAP1 SSTORE POP PUSH2 0x100 DUP3 ADD MLOAD DUP2 PUSH1 0x8 ADD SSTORE SWAP1 POP POP CALLER PUSH20 0xFFFFFFFFFFFFFFFFFFFFFFFFFFFFFFFFFFFFFFFF AND PUSH0 SLOAD PUSH32 0x88020F8FC0CBB49C41E4167FDAF3799586A1A0AE1D10A8895B44F6DF9337AA27 DUP4 PUSH1 0x40 MLOAD PUSH2 0x1465 SWAP2 SWAP1 PUSH2 0x2FA9 JUMP JUMPDEST PUSH1 0x40 MLOAD DUP1 SWAP2 SUB SWAP1 LOG3 POP POP POP JUMP JUMPDEST PUSH1 0x6 PUSH1 0x20 MSTORE DUP2 PUSH0 MSTORE PUSH1 0x40 PUSH0 KECCAK256 DUP2 DUP2 SLOAD DUP2 LT PUSH2 0x148B JUMPI PUSH0 DUP1 REVERT JUMPDEST SWAP1 PUSH0 MSTORE PUSH1 0x20 PUSH0 KECCAK256 SWAP1 PUSH1 0x3 MUL ADD PUSH0 SWAP2 POP SWAP2 POP POP DUP1 PUSH0 ADD PUSH0 SWAP1 SLOAD SWAP1 PUSH2 0x100 EXP SWAP1 DIV PUSH20 0xFFFFFFFFFFFFFFFFFFFFFFFFFFFFFFFFFFFFFFFF AND SWAP1 DUP1 PUSH1 0x1 ADD SLOAD SWAP1 DUP1 PUSH1 0x2 ADD SLOAD SWAP1 POP DUP4 JUMP JUMPDEST PUSH0 PUSH0 PUSH1 0x4 PUSH0 DUP5 DUP2 MSTORE PUSH1 0x20 ADD SWAP1 DUP2 MSTORE PUSH1 0x20 ADD PUSH0 KECCAK256 PUSH1 0x40 MLOAD DUP1 PUSH2 0x120 ADD PUSH1 0x40 MSTORE SWAP1 DUP2 PUSH0 DUP3 ADD SLOAD DUP2 MSTORE PUSH1 0x20 ADD PUSH1 0x1 DUP3 ADD PUSH0 SWAP1 SLOAD SWAP1 PUSH2 0x100 EXP SWAP1 DIV PUSH20 0xFFFFFFFFFFFFFFFFFFFFFFFFFFFFFFFFFFFFFFFF AND PUSH20 0xFFFFFFFFFFFFFFFFFFFFFFFFFFFFFFFFFFFFFFFF AND PUSH20 0xFFFFFFFFFFFFFFFFFFFFFFFFFFFFFFFFFFFFFFFF AND DUP2 MSTORE PUSH1 0x20 ADD PUSH1 0x2 DUP3 ADD DUP1 SLOAD PUSH2 0x155E SWAP1 PUSH2 0x3C87 JUMP JUMPDEST DUP1 PUSH1 0x1F ADD PUSH1 0x20 DUP1 SWAP2 DIV MUL PUSH1 0x20 ADD PUSH1 0x40 MLOAD SWAP1 DUP2 ADD PUSH1 0x40 MSTORE DUP1 SWAP3 SWAP2 SWAP1 DUP2 DUP2 MSTORE PUSH1 0x20 ADD DUP3 DUP1 SLOAD PUSH2 0x158A SWAP1 PUSH2 0x3C87 JUMP JUMPDEST DUP1 ISZERO PUSH2 0x15D5 JUMPI DUP1 PUSH1 0x1F LT PUSH2 0x15AC JUMPI PUSH2 0x100 DUP1 DUP4 SLOAD DIV MUL DUP4 MSTORE SWAP2 PUSH1 0x20 ADD SWAP2 PUSH2 0x15D5 JUMP JUMPDEST DUP3 ADD SWAP2 SWAP1 PUSH0 MSTORE PUSH1 0x20 PUSH0 KECCAK256 SWAP1 JUMPDEST DUP2 SLOAD DUP2 MSTORE SWAP1 PUSH1 0x1 ADD SWAP1 PUSH1 0x20 ADD DUP1 DUP4 GT PUSH2 0x15B8 JUMPI DUP3 SWAP1 SUB PUSH1 0x1F AND DUP3 ADD SWAP2 JUMPDEST POP POP POP POP POP DUP2 MSTORE PUSH1 0x20 ADD PUSH1 0x3 DUP3 ADD PUSH0 SWAP1 SLOAD SWAP1 PUSH2 0x100 EXP SWAP1 DIV PUSH1 0xFF AND PUSH1 0xFF AND PUSH1 0xFF AND DUP2 MSTORE PUSH1 0x20 ADD PUSH1 0x4 DUP3 ADD SLOAD DUP2 MSTORE PUSH1 0x20 ADD PUSH1 0x5 DUP3 ADD PUSH0 SWAP1 SLOAD SWAP1 PUSH2 0x100 EXP SWAP1 DIV PUSH1 0xFF AND ISZERO ISZERO ISZERO ISZERO DUP2 MSTORE PUSH1 0x20 ADD PUSH1 0x6 DUP3 ADD SLOAD DUP2 MSTORE PUSH1 0x20 ADD PUSH1 0x7 DUP3 ADD PUSH0 SWAP1 SLOAD SWAP1 PUSH2 0x100 EXP SWAP1 DIV PUSH1 0xFF AND PUSH1 0x1 DUP2 GT ISZERO PUSH2 0x164C JUMPI PUSH2 0x164B PUSH2 0x3049 JUMP JUMPDEST JUMPDEST PUSH1 0x1 DUP2 GT ISZERO PUSH2 0x165E JUMPI PUSH2 0x165D PUSH2 0x3049 JUMP JUMPDEST JUMPDEST DUP2 MSTORE PUSH1 0x20 ADD PUSH1 0x8 DUP3 ADD SLOAD DUP2 MSTORE POP POP SWAP1 POP DUP1 PUSH1 0xA0 ADD MLOAD PUSH2 0x1681 JUMPI PUSH1 0x1 SWAP2 POP POP PUSH2 0x16E6 JUMP JUMPDEST PUSH1 0x1 DUP1 DUP2 GT ISZERO PUSH2 0x1694 JUMPI PUSH2 0x1693 PUSH2 0x3049 JUMP JUMPDEST JUMPDEST DUP2 PUSH1 0xE0 ADD MLOAD PUSH1 0x1 DUP2 GT ISZERO PUSH2 0x16AB JUMPI PUSH2 0x16AA PUSH2 0x3049 JUMP JUMPDEST JUMPDEST SUB PUSH2 0x16BA JUMPI PUSH1 0x1 SWAP2 POP POP PUSH2 0x16E6 JUMP JUMPDEST PUSH3 0x15180 DUP2 PUSH1 0x60 ADD MLOAD PUSH1 0xFF AND PUSH2 0x16D0 SWAP2 SWAP1 PUSH2 0x3F26 JUMP JUMPDEST DUP2 PUSH1 0xC0 ADD MLOAD PUSH2 0x16DF SWAP2 SWAP1 PUSH2 0x365C JUMP JUMPDEST TIMESTAMP LT ISZERO SWAP2 POP POP JUMPDEST SWAP2 SWAP1 POP JUMP JUMPDEST PUSH1 0x8 PUSH1 0x20 MSTORE DUP2 PUSH0 MSTORE PUSH1 0x40 PUSH0 KECCAK256 PUSH1 0x20 MSTORE DUP1 PUSH0 MSTORE PUSH1 0x40 PUSH0 KECCAK256 PUSH0 SWAP2 POP SWAP2 POP POP SLOAD DUP2 JUMP JUMPDEST DUP1 PUSH1 0x4 PUSH0 DUP3 DUP2 MSTORE PUSH1 0x20 ADD SWAP1 DUP2 MSTORE PUSH1 0x20 ADD PUSH0 KECCAK256 PUSH1 0x5 ADD PUSH0 SWAP1 SLOAD SWAP1 PUSH2 0x100 EXP SWAP1 DIV PUSH1 0xFF AND PUSH2 0x176C JUMPI PUSH1 0x40 MLOAD PUSH32 0x8C379A000000000000000000000000000000000000000000000000000000000 DUP2 MSTORE PUSH1 0x4 ADD PUSH2 0x1763 SWAP1 PUSH2 0x3471 JUMP JUMPDEST PUSH1 0x40 MLOAD DUP1 SWAP2 SUB SWAP1 REVERT JUMPDEST DUP2 PUSH2 0x1776 DUP2 PUSH2 0x292E JUMP JUMPDEST PUSH0 PUSH1 0x1 DUP2 GT ISZERO PUSH2 0x1789 JUMPI PUSH2 0x1788 PUSH2 0x3049 JUMP JUMPDEST JUMPDEST PUSH1 0x4 PUSH0 DUP4 DUP2 MSTORE PUSH1 0x20 ADD SWAP1 DUP2 MSTORE PUSH1 0x20 ADD PUSH0 KECCAK256 PUSH1 0x7 ADD PUSH0 SWAP1 SLOAD SWAP1 PUSH2 0x100 EXP SWAP1 DIV PUSH1 0xFF AND PUSH1 0x1 DUP2 GT ISZERO PUSH2 0x17BC JUMPI PUSH2 0x17BB PUSH2 0x3049 JUMP JUMPDEST JUMPDEST EQ PUSH2 0x17FC JUMPI PUSH1 0x40 MLOAD PUSH32 0x8C379A000000000000000000000000000000000000000000000000000000000 DUP2 MSTORE PUSH1 0x4 ADD PUSH2 0x17F3 SWAP1 PUSH2 0x3FB1 JUMP JUMPDEST PUSH1 0x40 MLOAD DUP1 SWAP2 SUB SWAP1 REVERT JUMPDEST PUSH0 CALLVALUE GT PUSH2 0x183E JUMPI PUSH1 0x40 MLOAD PUSH32 0x8C379A000000000000000000000000000000000000000000000000000000000 DUP2 MSTORE PUSH1 0x4 ADD PUSH2 0x1835 SWAP1 PUSH2 0x4019 JUMP JUMPDEST PUSH1 0x40 MLOAD DUP1 SWAP2 SUB SWAP1 REVERT JUMPDEST PUSH0 PUSH1 0x4 PUSH0 DUP6 DUP2 MSTORE PUSH1 0x20 ADD SWAP1 DUP2 MSTORE PUSH1 0x20 ADD PUSH0 KECCAK256 SWAP1 POP CALLVALUE DUP2 PUSH1 0x4 ADD PUSH0 DUP3 DUP3 SLOAD PUSH2 0x1865 SWAP2 SWAP1 PUSH2 0x365C JUMP JUMPDEST SWAP3 POP POP DUP2 SWAP1 SSTORE POP PUSH1 0x5 PUSH0 CALLER PUSH20 0xFFFFFFFFFFFFFFFFFFFFFFFFFFFFFFFFFFFFFFFF AND PUSH20 0xFFFFFFFFFFFFFFFFFFFFFFFFFFFFFFFFFFFFFFFF AND DUP2 MSTORE PUSH1 0x20 ADD SWAP1 DUP2 MSTORE PUSH1 0x20 ADD PUSH0 KECCAK256 DUP5 SWAP1 DUP1 PUSH1 0x1 DUP2 SLOAD ADD DUP1 DUP3 SSTORE DUP1 SWAP2 POP POP PUSH1 0x1 SWAP1 SUB SWAP1 PUSH0 MSTORE PUSH1 0x20 PUSH0 KECCAK256 ADD PUSH0 SWAP1 SWAP2 SWAP1 SWAP2 SWAP1 SWAP2 POP SSTORE PUSH1 0x6 PUSH0 DUP6 DUP2 MSTORE PUSH1 0x20 ADD SWAP1 DUP2 MSTORE PUSH1 0x20 ADD PUSH0 KECCAK256 PUSH1 0x40 MLOAD DUP1 PUSH1 0x60 ADD PUSH1 0x40 MSTORE DUP1 CALLER PUSH20 0xFFFFFFFFFFFFFFFFFFFFFFFFFFFFFFFFFFFFFFFF AND DUP2 MSTORE PUSH1 0x20 ADD CALLVALUE DUP2 MSTORE PUSH1 0x20 ADD TIMESTAMP DUP2 MSTORE POP SWAP1 DUP1 PUSH1 0x1 DUP2 SLOAD ADD DUP1 DUP3 SSTORE DUP1 SWAP2 POP POP PUSH1 0x1 SWAP1 SUB SWAP1 PUSH0 MSTORE PUSH1 0x20 PUSH0 KECCAK256 SWAP1 PUSH1 0x3 MUL ADD PUSH0 SWAP1 SWAP2 SWAP1 SWAP2 SWAP1 SWAP2 POP PUSH0 DUP3 ADD MLOAD DUP2 PUSH0 ADD PUSH0 PUSH2 0x100 EXP DUP2 SLOAD DUP2 PUSH20 0xFFFFFFFFFFFFFFFFFFFFFFFFFFFFFFFFFFFFFFFF MUL NOT AND SWAP1 DUP4 PUSH20 0xFFFFFFFFFFFFFFFFFFFFFFFFFFFFFFFFFFFFFFFF AND MUL OR SWAP1 SSTORE POP PUSH1 0x20 DUP3 ADD MLOAD DUP2 PUSH1 0x1 ADD SSTORE PUSH1 0x40 DUP3 ADD MLOAD DUP2 PUSH1 0x2 ADD SSTORE POP POP CALLVALUE PUSH1 0x7 PUSH0 DUP7 DUP2 MSTORE PUSH1 0x20 ADD SWAP1 DUP2 MSTORE PUSH1 0x20 ADD PUSH0 KECCAK256 PUSH0 CALLER PUSH20 0xFFFFFFFFFFFFFFFFFFFFFFFFFFFFFFFFFFFFFFFF AND PUSH20 0xFFFFFFFFFFFFFFFFFFFFFFFFFFFFFFFFFFFFFFFF AND DUP2 MSTORE PUSH1 0x20 ADD SWAP1 DUP2 MSTORE PUSH1 0x20 ADD PUSH0 KECCAK256 PUSH0 DUP3 DUP3 SLOAD PUSH2 0x19EA SWAP2 SWAP1 PUSH2 0x365C JUMP JUMPDEST SWAP3 POP POP DUP2 SWAP1 SSTORE POP DUP4 CALLER PUSH20 0xFFFFFFFFFFFFFFFFFFFFFFFFFFFFFFFFFFFFFFFF AND PUSH32 0xC65A4E529C0450A515882508BEA7EE3485FBFDF8436E0BD13DC38DFBC859B1CB CALLVALUE PUSH1 0x40 MLOAD PUSH2 0x1A38 SWAP2 SWAP1 PUSH2 0x2FA9 JUMP JUMPDEST PUSH1 0x40 MLOAD DUP1 SWAP2 SUB SWAP1 LOG3 POP POP POP POP JUMP JUMPDEST PUSH1 0x1 PUSH0 SWAP1 SLOAD SWAP1 PUSH2 0x100 EXP SWAP1 DIV PUSH20 0xFFFFFFFFFFFFFFFFFFFFFFFFFFFFFFFFFFFFFFFF AND DUP2 JUMP JUMPDEST PUSH1 0x4 PUSH1 0x20 MSTORE DUP1 PUSH0 MSTORE PUSH1 0x40 PUSH0 KECCAK256 PUSH0 SWAP2 POP SWAP1 POP DUP1 PUSH0 ADD SLOAD SWAP1 DUP1 PUSH1 0x1 ADD PUSH0 SWAP1 SLOAD SWAP1 PUSH2 0x100 EXP SWAP1 DIV PUSH20 0xFFFFFFFFFFFFFFFFFFFFFFFFFFFFFFFFFFFFFFFF AND SWAP1 DUP1 PUSH1 0x2 ADD DUP1 SLOAD PUSH2 0x1AB5 SWAP1 PUSH2 0x3C87 JUMP JUMPDEST DUP1 PUSH1 0x1F ADD PUSH1 0x20 DUP1 SWAP2 DIV MUL PUSH1 0x20 ADD PUSH1 0x40 MLOAD SWAP1 DUP2 ADD PUSH1 0x40 MSTORE DUP1 SWAP3 SWAP2 SWAP1 DUP2 DUP2 MSTORE PUSH1 0x20 ADD DUP3 DUP1 SLOAD PUSH2 0x1AE1 SWAP1 PUSH2 0x3C87 JUMP JUMPDEST DUP1 ISZERO PUSH2 0x1B2C JUMPI DUP1 PUSH1 0x1F LT PUSH2 0x1B03 JUMPI PUSH2 0x100 DUP1 DUP4 SLOAD DIV MUL DUP4 MSTORE SWAP2 PUSH1 0x20 ADD SWAP2 PUSH2 0x1B2C JUMP JUMPDEST DUP3 ADD SWAP2 SWAP1 PUSH0 MSTORE PUSH1 0x20 PUSH0 KECCAK256 SWAP1 JUMPDEST DUP2 SLOAD DUP2 MSTORE SWAP1 PUSH1 0x1 ADD SWAP1 PUSH1 0x20 ADD DUP1 DUP4 GT PUSH2 0x1B0F JUMPI DUP3 SWAP1 SUB PUSH1 0x1F AND DUP3 ADD SWAP2 JUMPDEST POP POP POP POP POP SWAP1 DUP1 PUSH1 0x3 ADD PUSH0 SWAP1 SLOAD SWAP1 PUSH2 0x100 EXP SWAP1 DIV PUSH1 0xFF AND SWAP1 DUP1 PUSH1 0x4 ADD SLOAD SWAP1 DUP1 PUSH1 0x5 ADD PUSH0 SWAP1 SLOAD SWAP1 PUSH2 0x100 EXP SWAP1 DIV PUSH1 0xFF AND SWAP1 DUP1 PUSH1 0x6 ADD SLOAD SWAP1 DUP1 PUSH1 0x7 ADD PUSH0 SWAP1 SLOAD SWAP1 PUSH2 0x100 EXP SWAP1 DIV PUSH1 0xFF AND SWAP1 DUP1 PUSH1 0x8 ADD SLOAD SWAP1 POP DUP10 JUMP JUMPDEST PUSH1 0x1 PUSH0 SWAP1 SLOAD SWAP1 PUSH2 0x100 EXP SWAP1 DIV PUSH20 0xFFFFFFFFFFFFFFFFFFFFFFFFFFFFFFFFFFFFFFFF AND PUSH20 0xFFFFFFFFFFFFFFFFFFFFFFFFFFFFFFFFFFFFFFFF AND CALLER PUSH20 0xFFFFFFFFFFFFFFFFFFFFFFFFFFFFFFFFFFFFFFFF AND EQ PUSH2 0x1C0D JUMPI PUSH1 0x40 MLOAD PUSH32 0x8C379A000000000000000000000000000000000000000000000000000000000 DUP2 MSTORE PUSH1 0x4 ADD PUSH2 0x1C04 SWAP1 PUSH2 0x4081 JUMP JUMPDEST PUSH1 0x40 MLOAD DUP1 SWAP2 SUB SWAP1 REVERT JUMPDEST DUP1 PUSH1 0x2 PUSH0 DUP5 PUSH20 0xFFFFFFFFFFFFFFFFFFFFFFFFFFFFFFFFFFFFFFFF AND PUSH20 0xFFFFFFFFFFFFFFFFFFFFFFFFFFFFFFFFFFFFFFFF AND DUP2 MSTORE PUSH1 0x20 ADD SWAP1 DUP2 MSTORE PUSH1 0x20 ADD PUSH0 KECCAK256 PUSH0 PUSH2 0x100 EXP DUP2 SLOAD DUP2 PUSH1 0xFF MUL NOT AND SWAP1 DUP4 ISZERO ISZERO MUL OR SWAP1 SSTORE POP DUP2 PUSH20 0xFFFFFFFFFFFFFFFFFFFFFFFFFFFFFFFFFFFFFFFF AND PUSH32 0x30F1D11F11278BA2CC669FD4C95EE8D46EDE2C82F6AF0B74E4F427369B3522D3 DUP3 PUSH1 0x40 MLOAD PUSH2 0x1CA7 SWAP2 SWAP1 PUSH2 0x2F28 JUMP JUMPDEST PUSH1 0x40 MLOAD DUP1 SWAP2 SUB SWAP1 LOG2 POP POP JUMP JUMPDEST PUSH1 0x1 PUSH0 SWAP1 SLOAD SWAP1 PUSH2 0x100 EXP SWAP1 DIV PUSH20 0xFFFFFFFFFFFFFFFFFFFFFFFFFFFFFFFFFFFFFFFF AND PUSH20 0xFFFFFFFFFFFFFFFFFFFFFFFFFFFFFFFFFFFFFFFF AND CALLER PUSH20 0xFFFFFFFFFFFFFFFFFFFFFFFFFFFFFFFFFFFFFFFF AND EQ PUSH2 0x1D42 JUMPI PUSH1 0x40 MLOAD PUSH32 0x8C379A000000000000000000000000000000000000000000000000000000000 DUP2 MSTORE PUSH1 0x4 ADD PUSH2 0x1D39 SWAP1 PUSH2 0x4081 JUMP JUMPDEST PUSH1 0x40 MLOAD DUP1 SWAP2 SUB SWAP1 REVERT JUMPDEST PUSH0 PUSH20 0xFFFFFFFFFFFFFFFFFFFFFFFFFFFFFFFFFFFFFFFF AND DUP2 PUSH20 0xFFFFFFFFFFFFFFFFFFFFFFFFFFFFFFFFFFFFFFFF AND SUB PUSH2 0x1DB0 JUMPI PUSH1 0x40 MLOAD PUSH32 0x8C379A000000000000000000000000000000000000000000000000000000000 DUP2 MSTORE PUSH1 0x4 ADD PUSH2 0x1DA7 SWAP1 PUSH2 0x40E9 JUMP JUMPDEST PUSH1 0x40 MLOAD DUP1 SWAP2 SUB SWAP1 REVERT JUMPDEST DUP1 PUSH20 0xFFFFFFFFFFFFFFFFFFFFFFFFFFFFFFFFFFFFFFFF AND PUSH1 0x1 PUSH0 SWAP1 SLOAD SWAP1 PUSH2 0x100 EXP SWAP1 DIV PUSH20 0xFFFFFFFFFFFFFFFFFFFFFFFFFFFFFFFFFFFFFFFF AND PUSH20 0xFFFFFFFFFFFFFFFFFFFFFFFFFFFFFFFFFFFFFFFF AND PUSH32 0x14838E8AFB969F97AF6CF35BDD6625BD028B2B6BCD9E06C9E25BA0B1B1A454C1 PUSH1 0x40 MLOAD PUSH1 0x40 MLOAD DUP1 SWAP2 SUB SWAP1 LOG3 DUP1 PUSH1 0x1 PUSH0 PUSH2 0x100 EXP DUP2 SLOAD DUP2 PUSH20 0xFFFFFFFFFFFFFFFFFFFFFFFFFFFFFFFFFFFFFFFF MUL NOT AND SWAP1 DUP4 PUSH20 0xFFFFFFFFFFFFFFFFFFFFFFFFFFFFFFFFFFFFFFFF AND MUL OR SWAP1 SSTORE POP POP JUMP JUMPDEST DUP2 PUSH1 0x4 PUSH0 DUP3 DUP2 MSTORE PUSH1 0x20 ADD SWAP1 DUP2 MSTORE PUSH1 0x20 ADD PUSH0 KECCAK256 PUSH1 0x5 ADD PUSH0 SWAP1 SLOAD SWAP1 PUSH2 0x100 EXP SWAP1 DIV PUSH1 0xFF AND PUSH2 0x1ECF JUMPI PUSH1 0x40 MLOAD PUSH32 0x8C379A000000000000000000000000000000000000000000000000000000000 DUP2 MSTORE PUSH1 0x4 ADD PUSH2 0x1EC6 SWAP1 PUSH2 0x3471 JUMP JUMPDEST PUSH1 0x40 MLOAD DUP1 SWAP2 SUB SWAP1 REVERT JUMPDEST DUP3 PUSH1 0x4 PUSH0 DUP3 DUP2 MSTORE PUSH1 0x20 ADD SWAP1 DUP2 MSTORE PUSH1 0x20 ADD PUSH0 KECCAK256 PUSH1 0x1 ADD PUSH0 SWAP1 SLOAD SWAP1 PUSH2 0x100 EXP SWAP1 DIV PUSH20 0xFFFFFFFFFFFFFFFFFFFFFFFFFFFFFFFFFFFFFFFF AND PUSH20 0xFFFFFFFFFFFFFFFFFFFFFFFFFFFFFFFFFFFFFFFF AND CALLER PUSH20 0xFFFFFFFFFFFFFFFFFFFFFFFFFFFFFFFFFFFFFFFF AND EQ PUSH2 0x1F71 JUMPI PUSH1 0x40 MLOAD PUSH32 0x8C379A000000000000000000000000000000000000000000000000000000000 DUP2 MSTORE PUSH1 0x4 ADD PUSH2 0x1F68 SWAP1 PUSH2 0x34D9 JUMP JUMPDEST PUSH1 0x40 MLOAD DUP1 SWAP2 SUB SWAP1 REVERT JUMPDEST DUP3 PUSH1 0x4 PUSH0 DUP7 DUP2 MSTORE PUSH1 0x20 ADD SWAP1 DUP2 MSTORE PUSH1 0x20 ADD PUSH0 KECCAK256 PUSH1 0x8 ADD DUP2 SWAP1 SSTORE POP DUP4 PUSH32 0x945C1C4E99AA89F648FBFE3DF471B916F719E16D960FCEC0737D4D56BD696838 DUP5 PUSH1 0x40 MLOAD PUSH2 0x1FBA SWAP2 SWAP1 PUSH2 0x2FA9 JUMP JUMPDEST PUSH1 0x40 MLOAD DUP1 SWAP2 SUB SWAP1 LOG2 POP POP POP POP JUMP JUMPDEST DUP2 PUSH1 0x4 PUSH0 DUP3 DUP2 MSTORE PUSH1 0x20 ADD SWAP1 DUP2 MSTORE PUSH1 0x20 ADD PUSH0 KECCAK256 PUSH1 0x5 ADD PUSH0 SWAP1 SLOAD SWAP1 PUSH2 0x100 EXP SWAP1 DIV PUSH1 0xFF AND PUSH2 0x2029 JUMPI PUSH1 0x40 MLOAD PUSH32 0x8C379A000000000000000000000000000000000000000000000000000000000 DUP2 MSTORE PUSH1 0x4 ADD PUSH2 0x2020 SWAP1 PUSH2 0x3471 JUMP JUMPDEST PUSH1 0x40 MLOAD DUP1 SWAP2 SUB SWAP1 REVERT JUMPDEST DUP3 PUSH2 0x2033 DUP2 PUSH2 0x292E JUMP JUMPDEST PUSH0 PUSH1 0x1 DUP2 GT ISZERO PUSH2 0x2046 JUMPI PUSH2 0x2045 PUSH2 0x3049 JUMP JUMPDEST JUMPDEST PUSH1 0x4 PUSH0 DUP4 DUP2 MSTORE PUSH1 0x20 ADD SWAP1 DUP2 MSTORE PUSH1 0x20 ADD PUSH0 KECCAK256 PUSH1 0x7 ADD PUSH0 SWAP1 SLOAD SWAP1 PUSH2 0x100 EXP SWAP1 DIV PUSH1 0xFF AND PUSH1 0x1 DUP2 GT ISZERO PUSH2 0x2079 JUMPI PUSH2 0x2078 PUSH2 0x3049 JUMP JUMPDEST JUMPDEST EQ PUSH2 0x20B9 JUMPI PUSH1 0x40 MLOAD PUSH32 0x8C379A000000000000000000000000000000000000000000000000000000000 DUP2 MSTORE PUSH1 0x4 ADD PUSH2 0x20B0 SWAP1 PUSH2 0x3FB1 JUMP JUMPDEST PUSH1 0x40 MLOAD DUP1 SWAP2 SUB SWAP1 REVERT JUMPDEST PUSH0 DUP4 GT PUSH2 0x20FB JUMPI PUSH1 0x40 MLOAD PUSH32 0x8C379A000000000000000000000000000000000000000000000000000000000 DUP2 MSTORE PUSH1 0x4 ADD PUSH2 0x20F2 SWAP1 PUSH2 0x4151 JUMP JUMPDEST PUSH1 0x40 MLOAD DUP1 SWAP2 SUB SWAP1 REVERT JUMPDEST PUSH0 PUSH1 0x4 PUSH0 DUP7 DUP2 MSTORE PUSH1 0x20 ADD SWAP1 DUP2 MSTORE PUSH1 0x20 ADD PUSH0 KECCAK256 SWAP1 POP PUSH0 DUP2 PUSH1 0x8 ADD SLOAD GT PUSH2 0x2155 JUMPI PUSH1 0x40 MLOAD PUSH32 0x8C379A000000000000000000000000000000000000000000000000000000000 DUP2 MSTORE PUSH1 0x4 ADD PUSH2 0x214C SWAP1 PUSH2 0x41B9 JUMP JUMPDEST PUSH1 0x40 MLOAD DUP1 SWAP2 SUB SWAP1 REVERT JUMPDEST PUSH0 DUP5 DUP3 PUSH1 0x8 ADD SLOAD PUSH2 0x2166 SWAP2 SWAP1 PUSH2 0x3F26 JUMP JUMPDEST SWAP1 POP DUP1 CALLVALUE EQ PUSH2 0x21AA JUMPI PUSH1 0x40 MLOAD PUSH32 0x8C379A000000000000000000000000000000000000000000000000000000000 DUP2 MSTORE PUSH1 0x4 ADD PUSH2 0x21A1 SWAP1 PUSH2 0x4221 JUMP JUMPDEST PUSH1 0x40 MLOAD DUP1 SWAP2 SUB SWAP1 REVERT JUMPDEST CALLVALUE DUP3 PUSH1 0x4 ADD PUSH0 DUP3 DUP3 SLOAD PUSH2 0x21BD SWAP2 SWAP1 PUSH2 0x365C JUMP JUMPDEST SWAP3 POP POP DUP2 SWAP1 SSTORE POP PUSH1 0x5 PUSH0 CALLER PUSH20 0xFFFFFFFFFFFFFFFFFFFFFFFFFFFFFFFFFFFFFFFF AND PUSH20 0xFFFFFFFFFFFFFFFFFFFFFFFFFFFFFFFFFFFFFFFF AND DUP2 MSTORE PUSH1 0x20 ADD SWAP1 DUP2 MSTORE PUSH1 0x20 ADD PUSH0 KECCAK256 DUP7 SWAP1 DUP1 PUSH1 0x1 DUP2 SLOAD ADD DUP1 DUP3 SSTORE DUP1 SWAP2 POP POP PUSH1 0x1 SWAP1 SUB SWAP1 PUSH0 MSTORE PUSH1 0x20 PUSH0 KECCAK256 ADD PUSH0 SWAP1 SWAP2 SWAP1 SWAP2 SWAP1 SWAP2 POP SSTORE PUSH1 0x6 PUSH0 DUP8 DUP2 MSTORE PUSH1 0x20 ADD SWAP1 DUP2 MSTORE PUSH1 0x20 ADD PUSH0 KECCAK256 PUSH1 0x40 MLOAD DUP1 PUSH1 0x60 ADD PUSH1 0x40 MSTORE DUP1 CALLER PUSH20 0xFFFFFFFFFFFFFFFFFFFFFFFFFFFFFFFFFFFFFFFF AND DUP2 MSTORE PUSH1 0x20 ADD CALLVALUE DUP2 MSTORE PUSH1 0x20 ADD TIMESTAMP DUP2 MSTORE POP SWAP1 DUP1 PUSH1 0x1 DUP2 SLOAD ADD DUP1 DUP3 SSTORE DUP1 SWAP2 POP POP PUSH1 0x1 SWAP1 SUB SWAP1 PUSH0 MSTORE PUSH1 0x20 PUSH0 KECCAK256 SWAP1 PUSH1 0x3 MUL ADD PUSH0 SWAP1 SWAP2 SWAP1 SWAP2 SWAP1 SWAP2 POP PUSH0 DUP3 ADD MLOAD DUP2 PUSH0 ADD PUSH0 PUSH2 0x100 EXP DUP2 SLOAD DUP2 PUSH20 0xFFFFFFFFFFFFFFFFFFFFFFFFFFFFFFFFFFFFFFFF MUL NOT AND SWAP1 DUP4 PUSH20 0xFFFFFFFFFFFFFFFFFFFFFFFFFFFFFFFFFFFFFFFF AND MUL OR SWAP1 SSTORE POP PUSH1 0x20 DUP3 ADD MLOAD DUP2 PUSH1 0x1 ADD SSTORE PUSH1 0x40 DUP3 ADD MLOAD DUP2 PUSH1 0x2 ADD SSTORE POP POP CALLVALUE PUSH1 0x7 PUSH0 DUP9 DUP2 MSTORE PUSH1 0x20 ADD SWAP1 DUP2 MSTORE PUSH1 0x20 ADD PUSH0 KECCAK256 PUSH0 CALLER PUSH20 0xFFFFFFFFFFFFFFFFFFFFFFFFFFFFFFFFFFFFFFFF AND PUSH20 0xFFFFFFFFFFFFFFFFFFFFFFFFFFFFFFFFFFFFFFFF AND DUP2 MSTORE PUSH1 0x20 ADD SWAP1 DUP2 MSTORE PUSH1 0x20 ADD PUSH0 KECCAK256 PUSH0 DUP3 DUP3 SLOAD PUSH2 0x2342 SWAP2 SWAP1 PUSH2 0x365C JUMP JUMPDEST SWAP3 POP POP DUP2 SWAP1 SSTORE POP DUP6 CALLER PUSH20 0xFFFFFFFFFFFFFFFFFFFFFFFFFFFFFFFFFFFFFFFF AND PUSH32 0xC65A4E529C0450A515882508BEA7EE3485FBFDF8436E0BD13DC38DFBC859B1CB CALLVALUE PUSH1 0x40 MLOAD PUSH2 0x2390 SWAP2 SWAP1 PUSH2 0x2FA9 JUMP JUMPDEST PUSH1 0x40 MLOAD DUP1 SWAP2 SUB SWAP1 LOG3 POP POP POP POP POP POP JUMP JUMPDEST PUSH0 SLOAD DUP2 JUMP JUMPDEST PUSH2 0x23AD PUSH2 0x2A32 JUMP JUMPDEST DUP3 PUSH1 0x4 PUSH0 DUP3 DUP2 MSTORE PUSH1 0x20 ADD SWAP1 DUP2 MSTORE PUSH1 0x20 ADD PUSH0 KECCAK256 PUSH1 0x5 ADD PUSH0 SWAP1 SLOAD SWAP1 PUSH2 0x100 EXP SWAP1 DIV PUSH1 0xFF AND PUSH2 0x240E JUMPI PUSH1 0x40 MLOAD PUSH32 0x8C379A000000000000000000000000000000000000000000000000000000000 DUP2 MSTORE PUSH1 0x4 ADD PUSH2 0x2405 SWAP1 PUSH2 0x3471 JUMP JUMPDEST PUSH1 0x40 MLOAD DUP1 SWAP2 SUB SWAP1 REVERT JUMPDEST PUSH1 0x6 PUSH0 DUP6 DUP2 MSTORE PUSH1 0x20 ADD SWAP1 DUP2 MSTORE PUSH1 0x20 ADD PUSH0 KECCAK256 DUP1 SLOAD SWAP1 POP DUP4 LT PUSH2 0x2464 JUMPI PUSH1 0x40 MLOAD PUSH32 0x8C379A000000000000000000000000000000000000000000000000000000000 DUP2 MSTORE PUSH1 0x4 ADD PUSH2 0x245B SWAP1 PUSH2 0x4289 JUMP JUMPDEST PUSH1 0x40 MLOAD DUP1 SWAP2 SUB SWAP1 REVERT JUMPDEST PUSH1 0x6 PUSH0 DUP6 DUP2 MSTORE PUSH1 0x20 ADD SWAP1 DUP2 MSTORE PUSH1 0x20 ADD PUSH0 KECCAK256 DUP4 DUP2 SLOAD DUP2 LT PUSH2 0x2487 JUMPI PUSH2 0x2486 PUSH2 0x42A7 JUMP JUMPDEST JUMPDEST SWAP1 PUSH0 MSTORE PUSH1 0x20 PUSH0 KECCAK256 SWAP1 PUSH1 0x3 MUL ADD PUSH1 0x40 MLOAD DUP1 PUSH1 0x60 ADD PUSH1 0x40 MSTORE SWAP1 DUP2 PUSH0 DUP3 ADD PUSH0 SWAP1 SLOAD SWAP1 PUSH2 0x100 EXP SWAP1 DIV PUSH20 0xFFFFFFFFFFFFFFFFFFFFFFFFFFFFFFFFFFFFFFFF AND PUSH20 0xFFFFFFFFFFFFFFFFFFFFFFFFFFFFFFFFFFFFFFFF AND PUSH20 0xFFFFFFFFFFFFFFFFFFFFFFFFFFFFFFFFFFFFFFFF AND DUP2 MSTORE PUSH1 0x20 ADD PUSH1 0x1 DUP3 ADD SLOAD DUP2 MSTORE PUSH1 0x20 ADD PUSH1 0x2 DUP3 ADD SLOAD DUP2 MSTORE POP POP SWAP2 POP POP SWAP3 SWAP2 POP POP JUMP JUMPDEST PUSH1 0x5 PUSH1 0x20 MSTORE DUP2 PUSH0 MSTORE PUSH1 0x40 PUSH0 KECCAK256 DUP2 DUP2 SLOAD DUP2 LT PUSH2 0x2528 JUMPI PUSH0 DUP1 REVERT JUMPDEST SWAP1 PUSH0 MSTORE PUSH1 0x20 PUSH0 KECCAK256 ADD PUSH0 SWAP2 POP SWAP2 POP POP SLOAD DUP2 JUMP JUMPDEST PUSH2 0x2542 PUSH2 0x2A66 JUMP JUMPDEST DUP2 PUSH1 0x4 PUSH0 DUP3 DUP2 MSTORE PUSH1 0x20 ADD SWAP1 DUP2 MSTORE PUSH1 0x20 ADD PUSH0 KECCAK256 PUSH1 0x5 ADD PUSH0 SWAP1 SLOAD SWAP1 PUSH2 0x100 EXP SWAP1 DIV PUSH1 0xFF AND PUSH2 0x25A3 JUMPI PUSH1 0x40 MLOAD PUSH32 0x8C379A000000000000000000000000000000000000000000000000000000000 DUP2 MSTORE PUSH1 0x4 ADD PUSH2 0x259A SWAP1 PUSH2 0x3471 JUMP JUMPDEST PUSH1 0x40 MLOAD DUP1 SWAP2 SUB SWAP1 REVERT JUMPDEST PUSH1 0x4 PUSH0 DUP5 DUP2 MSTORE PUSH1 0x20 ADD SWAP1 DUP2 MSTORE PUSH1 0x20 ADD PUSH0 KECCAK256 PUSH1 0x40 MLOAD DUP1 PUSH2 0x120 ADD PUSH1 0x40 MSTORE SWAP1 DUP2 PUSH0 DUP3 ADD SLOAD DUP2 MSTORE PUSH1 0x20 ADD PUSH1 0x1 DUP3 ADD PUSH0 SWAP1 SLOAD SWAP1 PUSH2 0x100 EXP SWAP1 DIV PUSH20 0xFFFFFFFFFFFFFFFFFFFFFFFFFFFFFFFFFFFFFFFF AND PUSH20 0xFFFFFFFFFFFFFFFFFFFFFFFFFFFFFFFFFFFFFFFF AND PUSH20 0xFFFFFFFFFFFFFFFFFFFFFFFFFFFFFFFFFFFFFFFF AND DUP2 MSTORE PUSH1 0x20 ADD PUSH1 0x2 DUP3 ADD DUP1 SLOAD PUSH2 0x262E SWAP1 PUSH2 0x3C87 JUMP JUMPDEST DUP1 PUSH1 0x1F ADD PUSH1 0x20 DUP1 SWAP2 DIV MUL PUSH1 0x20 ADD PUSH1 0x40 MLOAD SWAP1 DUP2 ADD PUSH1 0x40 MSTORE DUP1 SWAP3 SWAP2 SWAP1 DUP2 DUP2 MSTORE PUSH1 0x20 ADD DUP3 DUP1 SLOAD PUSH2 0x265A SWAP1 PUSH2 0x3C87 JUMP JUMPDEST DUP1 ISZERO PUSH2 0x26A5 JUMPI DUP1 PUSH1 0x1F LT PUSH2 0x267C JUMPI PUSH2 0x100 DUP1 DUP4 SLOAD DIV MUL DUP4 MSTORE SWAP2 PUSH1 0x20 ADD SWAP2 PUSH2 0x26A5 JUMP JUMPDEST DUP3 ADD SWAP2 SWAP1 PUSH0 MSTORE PUSH1 0x20 PUSH0 KECCAK256 SWAP1 JUMPDEST DUP2 SLOAD DUP2 MSTORE SWAP1 PUSH1 0x1 ADD SWAP1 PUSH1 0x20 ADD DUP1 DUP4 GT PUSH2 0x2688 JUMPI DUP3 SWAP1 SUB PUSH1 0x1F AND DUP3 ADD SWAP2 JUMPDEST POP POP POP POP POP DUP2 MSTORE PUSH1 0x20 ADD PUSH1 0x3 DUP3 ADD PUSH0 SWAP1 SLOAD SWAP1 PUSH2 0x100 EXP SWAP1 DIV PUSH1 0xFF AND PUSH1 0xFF AND PUSH1 0xFF AND DUP2 MSTORE PUSH1 0x20 ADD PUSH1 0x4 DUP3 ADD SLOAD DUP2 MSTORE PUSH1 0x20 ADD PUSH1 0x5 DUP3 ADD PUSH0 SWAP1 SLOAD SWAP1 PUSH2 0x100 EXP SWAP1 DIV PUSH1 0xFF AND ISZERO ISZERO ISZERO ISZERO DUP2 MSTORE PUSH1 0x20 ADD PUSH1 0x6 DUP3 ADD SLOAD DUP2 MSTORE PUSH1 0x20 ADD PUSH1 0x7 DUP3 ADD PUSH0 SWAP1 SLOAD SWAP1 PUSH2 0x100 EXP SWAP1 DIV PUSH1 0xFF AND PUSH1 0x1 DUP2 GT ISZERO PUSH2 0x271C JUMPI PUSH2 0x271B PUSH2 0x3049 JUMP JUMPDEST JUMPDEST PUSH1 0x1 DUP2 GT ISZERO PUSH2 0x272E JUMPI PUSH2 0x272D PUSH2 0x3049 JUMP JUMPDEST JUMPDEST DUP2 MSTORE PUSH1 0x20 ADD PUSH1 0x8 DUP3 ADD SLOAD DUP2 MSTORE POP POP SWAP2 POP POP SWAP2 SWAP1 POP JUMP JUMPDEST PUSH1 0x3 PUSH0 SWAP1 SLOAD SWAP1 PUSH2 0x100 EXP SWAP1 DIV PUSH1 0xFF AND DUP2 JUMP JUMPDEST PUSH0 DUP2 PUSH1 0x4 PUSH0 DUP3 DUP2 MSTORE PUSH1 0x20 ADD SWAP1 DUP2 MSTORE PUSH1 0x20 ADD PUSH0 KECCAK256 PUSH1 0x5 ADD PUSH0 SWAP1 SLOAD SWAP1 PUSH2 0x100 EXP SWAP1 DIV PUSH1 0xFF AND PUSH2 0x27B8 JUMPI PUSH1 0x40 MLOAD PUSH32 0x8C379A000000000000000000000000000000000000000000000000000000000 DUP2 MSTORE PUSH1 0x4 ADD PUSH2 0x27AF SWAP1 PUSH2 0x3471 JUMP JUMPDEST PUSH1 0x40 MLOAD DUP1 SWAP2 SUB SWAP1 REVERT JUMPDEST PUSH1 0x6 PUSH0 DUP5 DUP2 MSTORE PUSH1 0x20 ADD SWAP1 DUP2 MSTORE PUSH1 0x20 ADD PUSH0 KECCAK256 DUP1 SLOAD SWAP1 POP SWAP2 POP POP SWAP2 SWAP1 POP JUMP JUMPDEST PUSH1 0x2 PUSH1 0x20 MSTORE DUP1 PUSH0 MSTORE PUSH1 0x40 PUSH0 KECCAK256 PUSH0 SWAP2 POP SLOAD SWAP1 PUSH2 0x100 EXP SWAP1 DIV PUSH1 0xFF AND DUP2 JUMP JUMPDEST PUSH1 0x1 PUSH0 SWAP1 SLOAD SWAP1 PUSH2 0x100 EXP SWAP1 DIV PUSH20 0xFFFFFFFFFFFFFFFFFFFFFFFFFFFFFFFFFFFFFFFF AND PUSH20 0xFFFFFFFFFFFFFFFFFFFFFFFFFFFFFFFFFFFFFFFF AND CALLER PUSH20 0xFFFFFFFFFFFFFFFFFFFFFFFFFFFFFFFFFFFFFFFF AND EQ PUSH2 0x2881 JUMPI PUSH1 0x40 MLOAD PUSH32 0x8C379A000000000000000000000000000000000000000000000000000000000 DUP2 MSTORE PUSH1 0x4 ADD PUSH2 0x2878 SWAP1 PUSH2 0x4081 JUMP JUMPDEST PUSH1 0x40 MLOAD DUP1 SWAP2 SUB SWAP1 REVERT JUMPDEST DUP1 PUSH1 0x3 PUSH0 PUSH2 0x100 EXP DUP2 SLOAD DUP2 PUSH1 0xFF MUL NOT AND SWAP1 DUP4 ISZERO ISZERO MUL OR SWAP1 SSTORE POP PUSH32 0xE7A1E87ABC2CA43B742584D18B4C87C00F194A7F353ACD09185DB152815BC991 DUP2 PUSH1 0x40 MLOAD PUSH2 0x28C9 SWAP2 SWAP1 PUSH2 0x2F28 JUMP JUMPDEST PUSH1 0x40 MLOAD DUP1 SWAP2 SUB SWAP1 LOG1 POP JUMP JUMPDEST PUSH1 0x7 PUSH1 0x20 MSTORE DUP2 PUSH0 MSTORE PUSH1 0x40 PUSH0 KECCAK256 PUSH1 0x20 MSTORE DUP1 PUSH0 MSTORE PUSH1 0x40 PUSH0 KECCAK256 PUSH0 SWAP2 POP SWAP2 POP POP SLOAD DUP2 JUMP JUMPDEST PUSH0 PUSH3 0x15180 PUSH1 0x4 PUSH0 DUP5 DUP2 MSTORE PUSH1 0x20 ADD SWAP1 DUP2 MSTORE PUSH1 0x20 ADD PUSH0 KECCAK256 PUSH1 0x3 ADD PUSH0 SWAP1 SLOAD SWAP1 PUSH2 0x100 EXP SWAP1 DIV PUSH1 0xFF AND PUSH1 0xFF AND PUSH2 0x2927 SWAP2 SWAP1 PUSH2 0x3F26 JUMP JUMPDEST SWAP1 POP SWAP2 SWAP1 POP JUMP JUMPDEST PUSH0 PUSH1 0x4 PUSH0 DUP4 DUP2 MSTORE PUSH1 0x20 ADD SWAP1 DUP2 MSTORE PUSH1 0x20 ADD PUSH0 KECCAK256 SWAP1 POP DUP1 PUSH1 0x5 ADD PUSH0 SWAP1 SLOAD SWAP1 PUSH2 0x100 EXP SWAP1 DIV PUSH1 0xFF AND DUP1 ISZERO PUSH2 0x2992 JUMPI POP PUSH0 PUSH1 0x1 DUP2 GT ISZERO PUSH2 0x296D JUMPI PUSH2 0x296C PUSH2 0x3049 JUMP JUMPDEST JUMPDEST DUP2 PUSH1 0x7 ADD PUSH0 SWAP1 SLOAD SWAP1 PUSH2 0x100 EXP SWAP1 DIV PUSH1 0xFF AND PUSH1 0x1 DUP2 GT ISZERO PUSH2 0x2990 JUMPI PUSH2 0x298F PUSH2 0x3049 JUMP JUMPDEST JUMPDEST EQ JUMPDEST ISZERO PUSH2 0x2A2E JUMPI PUSH0 PUSH3 0x15180 DUP3 PUSH1 0x3 ADD PUSH0 SWAP1 SLOAD SWAP1 PUSH2 0x100 EXP SWAP1 DIV PUSH1 0xFF AND PUSH1 0xFF AND PUSH2 0x29BA SWAP2 SWAP1 PUSH2 0x3F26 JUMP JUMPDEST SWAP1 POP DUP1 DUP3 PUSH1 0x6 ADD SLOAD PUSH2 0x29CC SWAP2 SWAP1 PUSH2 0x365C JUMP JUMPDEST TIMESTAMP LT PUSH2 0x2A2C JUMPI PUSH1 0x1 DUP3 PUSH1 0x7 ADD PUSH0 PUSH2 0x100 EXP DUP2 SLOAD DUP2 PUSH1 0xFF MUL NOT AND SWAP1 DUP4 PUSH1 0x1 DUP2 GT ISZERO PUSH2 0x29F9 JUMPI PUSH2 0x29F8 PUSH2 0x3049 JUMP JUMPDEST JUMPDEST MUL OR SWAP1 SSTORE POP DUP3 PUSH32 0xE98F832035383018BA3FB00C41E0FA51900F9DE0F0EE1CE50E5C2AF2C3C3293E PUSH1 0x40 MLOAD PUSH1 0x40 MLOAD DUP1 SWAP2 SUB SWAP1 LOG2 JUMPDEST POP JUMPDEST POP POP JUMP JUMPDEST PUSH1 0x40 MLOAD DUP1 PUSH1 0x60 ADD PUSH1 0x40 MSTORE DUP1 PUSH0 PUSH20 0xFFFFFFFFFFFFFFFFFFFFFFFFFFFFFFFFFFFFFFFF AND DUP2 MSTORE PUSH1 0x20 ADD PUSH0 DUP2 MSTORE PUSH1 0x20 ADD PUSH0 DUP2 MSTORE POP SWAP1 JUMP JUMPDEST PUSH1 0x40 MLOAD DUP1 PUSH2 0x120 ADD PUSH1 0x40 MSTORE DUP1 PUSH0 DUP2 MSTORE PUSH1 0x20 ADD PUSH0 PUSH20 0xFFFFFFFFFFFFFFFFFFFFFFFFFFFFFFFFFFFFFFFF AND DUP2 MSTORE PUSH1 0x20 ADD PUSH1 0x60 DUP2 MSTORE PUSH1 0x20 ADD PUSH0 PUSH1 0xFF AND DUP2 MSTORE PUSH1 0x20 ADD PUSH0 DUP2 MSTORE PUSH1 0x20 ADD PUSH0 ISZERO ISZERO DUP2 MSTORE PUSH1 0x20 ADD PUSH0 DUP2 MSTORE PUSH1 0x20 ADD PUSH0 PUSH1 0x1 DUP2 GT ISZERO PUSH2 0x2ACB JUMPI PUSH2 0x2ACA PUSH2 0x3049 JUMP JUMPDEST JUMPDEST DUP2 MSTORE PUSH1 0x20 ADD PUSH0 DUP2 MSTORE POP SWAP1 JUMP JUMPDEST PUSH0 DUP3 DUP3 MSTORE PUSH1 0x20 DUP3 ADD SWAP1 POP SWAP3 SWAP2 POP POP JUMP JUMPDEST PUSH32 0x446972656374207061796D656E7473206E6F7420616C6C6F7765642E20557365 PUSH0 DUP3 ADD MSTORE PUSH32 0x207061792F6275792E0000000000000000000000000000000000000000000000 PUSH1 0x20 DUP3 ADD MSTORE POP JUMP JUMPDEST PUSH0 PUSH2 0x2B41 PUSH1 0x29 DUP4 PUSH2 0x2AD7 JUMP JUMPDEST SWAP2 POP PUSH2 0x2B4C DUP3 PUSH2 0x2AE7 JUMP JUMPDEST PUSH1 0x40 DUP3 ADD SWAP1 POP SWAP2 SWAP1 POP JUMP JUMPDEST PUSH0 PUSH1 0x20 DUP3 ADD SWAP1 POP DUP2 DUP2 SUB PUSH0 DUP4 ADD MSTORE PUSH2 0x2B6E DUP2 PUSH2 0x2B35 JUMP JUMPDEST SWAP1 POP SWAP2 SWAP1 POP JUMP JUMPDEST PUSH0 PUSH1 0x40 MLOAD SWAP1 POP SWAP1 JUMP JUMPDEST PUSH0 PUSH0 REVERT JUMPDEST PUSH0 PUSH0 REVERT JUMPDEST PUSH0 PUSH20 0xFFFFFFFFFFFFFFFFFFFFFFFFFFFFFFFFFFFFFFFF DUP3 AND SWAP1 POP SWAP2 SWAP1 POP JUMP JUMPDEST PUSH0 PUSH2 0x2BAF DUP3 PUSH2 0x2B86 JUMP JUMPDEST SWAP1 POP SWAP2 SWAP1 POP JUMP JUMPDEST PUSH2 0x2BBF DUP2 PUSH2 0x2BA5 JUMP JUMPDEST DUP2 EQ PUSH2 0x2BC9 JUMPI PUSH0 PUSH0 REVERT JUMPDEST POP JUMP JUMPDEST PUSH0 DUP2 CALLDATALOAD SWAP1 POP PUSH2 0x2BDA DUP2 PUSH2 0x2BB6 JUMP JUMPDEST SWAP3 SWAP2 POP POP JUMP JUMPDEST PUSH0 DUP2 SWAP1 POP SWAP2 SWAP1 POP JUMP JUMPDEST PUSH2 0x2BF2 DUP2 PUSH2 0x2BE0 JUMP JUMPDEST DUP2 EQ PUSH2 0x2BFC JUMPI PUSH0 PUSH0 REVERT JUMPDEST POP JUMP JUMPDEST PUSH0 DUP2 CALLDATALOAD SWAP1 POP PUSH2 0x2C0D DUP2 PUSH2 0x2BE9 JUMP JUMPDEST SWAP3 SWAP2 POP POP JUMP JUMPDEST PUSH0 PUSH0 PUSH0 PUSH1 0x60 DUP5 DUP7 SUB SLT ISZERO PUSH2 0x2C2A JUMPI PUSH2 0x2C29 PUSH2 0x2B7E JUMP JUMPDEST JUMPDEST PUSH0 PUSH2 0x2C37 DUP7 DUP3 DUP8 ADD PUSH2 0x2BCC JUMP JUMPDEST SWAP4 POP POP PUSH1 0x20 PUSH2 0x2C48 DUP7 DUP3 DUP8 ADD PUSH2 0x2BFF JUMP JUMPDEST SWAP3 POP POP PUSH1 0x40 PUSH2 0x2C59 DUP7 DUP3 DUP8 ADD PUSH2 0x2BFF JUMP JUMPDEST SWAP2 POP POP SWAP3 POP SWAP3 POP SWAP3 JUMP JUMPDEST PUSH0 PUSH1 0x20 DUP3 DUP5 SUB SLT ISZERO PUSH2 0x2C78 JUMPI PUSH2 0x2C77 PUSH2 0x2B7E JUMP JUMPDEST JUMPDEST PUSH0 PUSH2 0x2C85 DUP5 DUP3 DUP6 ADD PUSH2 0x2BFF JUMP JUMPDEST SWAP2 POP POP SWAP3 SWAP2 POP POP JUMP JUMPDEST PUSH0 PUSH0 REVERT JUMPDEST PUSH0 PUSH0 REVERT JUMPDEST PUSH0 PUSH1 0x1F NOT PUSH1 0x1F DUP4 ADD AND SWAP1 POP SWAP2 SWAP1 POP JUMP JUMPDEST PUSH32 0x4E487B7100000000000000000000000000000000000000000000000000000000 PUSH0 MSTORE PUSH1 0x41 PUSH1 0x4 MSTORE PUSH1 0x24 PUSH0 REVERT JUMPDEST PUSH2 0x2CDC DUP3 PUSH2 0x2C96 JUMP JUMPDEST DUP2 ADD DUP2 DUP2 LT PUSH8 0xFFFFFFFFFFFFFFFF DUP3 GT OR ISZERO PUSH2 0x2CFB JUMPI PUSH2 0x2CFA PUSH2 0x2CA6 JUMP JUMPDEST JUMPDEST DUP1 PUSH1 0x40 MSTORE POP POP POP JUMP JUMPDEST PUSH0 PUSH2 0x2D0D PUSH2 0x2B75 JUMP JUMPDEST SWAP1 POP PUSH2 0x2D19 DUP3 DUP3 PUSH2 0x2CD3 JUMP JUMPDEST SWAP2 SWAP1 POP JUMP JUMPDEST PUSH0 PUSH8 0xFFFFFFFFFFFFFFFF DUP3 GT ISZERO PUSH2 0x2D38 JUMPI PUSH2 0x2D37 PUSH2 0x2CA6 JUMP JUMPDEST JUMPDEST PUSH2 0x2D41 DUP3 PUSH2 0x2C96 JUMP JUMPDEST SWAP1 POP PUSH1 0x20 DUP2 ADD SWAP1 POP SWAP2 SWAP1 POP JUMP JUMPDEST DUP3 DUP2 DUP4 CALLDATACOPY PUSH0 DUP4 DUP4 ADD MSTORE POP POP POP JUMP JUMPDEST PUSH0 PUSH2 0x2D6E PUSH2 0x2D69 DUP5 PUSH2 0x2D1E JUMP JUMPDEST PUSH2 0x2D04 JUMP JUMPDEST SWAP1 POP DUP3 DUP2 MSTORE PUSH1 0x20 DUP2 ADD DUP5 DUP5 DUP5 ADD GT ISZERO PUSH2 0x2D8A JUMPI PUSH2 0x2D89 PUSH2 0x2C92 JUMP JUMPDEST JUMPDEST PUSH2 0x2D95 DUP5 DUP3 DUP6 PUSH2 0x2D4E JUMP JUMPDEST POP SWAP4 SWAP3 POP POP POP JUMP JUMPDEST PUSH0 DUP3 PUSH1 0x1F DUP4 ADD SLT PUSH2 0x2DB1 JUMPI PUSH2 0x2DB0 PUSH2 0x2C8E JUMP JUMPDEST JUMPDEST DUP2 CALLDATALOAD PUSH2 0x2DC1 DUP5 DUP3 PUSH1 0x20 DUP7 ADD PUSH2 0x2D5C JUMP JUMPDEST SWAP2 POP POP SWAP3 SWAP2 POP POP JUMP JUMPDEST PUSH0 PUSH1 0xFF DUP3 AND SWAP1 POP SWAP2 SWAP1 POP JUMP JUMPDEST PUSH2 0x2DDF DUP2 PUSH2 0x2DCA JUMP JUMPDEST DUP2 EQ PUSH2 0x2DE9 JUMPI PUSH0 PUSH0 REVERT JUMPDEST POP JUMP JUMPDEST PUSH0 DUP2 CALLDATALOAD SWAP1 POP PUSH2 0x2DFA DUP2 PUSH2 0x2DD6 JUMP JUMPDEST SWAP3 SWAP2 POP POP JUMP JUMPDEST PUSH0 PUSH0 PUSH0 PUSH1 0x60 DUP5 DUP7 SUB SLT ISZERO PUSH2 0x2E17 JUMPI PUSH2 0x2E16 PUSH2 0x2B7E JUMP JUMPDEST JUMPDEST PUSH0 DUP5 ADD CALLDATALOAD PUSH8 0xFFFFFFFFFFFFFFFF DUP2 GT ISZERO PUSH2 0x2E34 JUMPI PUSH2 0x2E33 PUSH2 0x2B82 JUMP JUMPDEST JUMPDEST PUSH2 0x2E40 DUP7 DUP3 DUP8 ADD PUSH2 0x2D9D JUMP JUMPDEST SWAP4 POP POP PUSH1 0x20 PUSH2 0x2E51 DUP7 DUP3 DUP8 ADD PUSH2 0x2DEC JUMP JUMPDEST SWAP3 POP POP PUSH1 0x40 PUSH2 0x2E62 DUP7 DUP3 DUP8 ADD PUSH2 0x2BFF JUMP JUMPDEST SWAP2 POP POP SWAP3 POP SWAP3 POP SWAP3 JUMP JUMPDEST PUSH0 PUSH0 PUSH1 0x40 DUP4 DUP6 SUB SLT ISZERO PUSH2 0x2E82 JUMPI PUSH2 0x2E81 PUSH2 0x2B7E JUMP JUMPDEST JUMPDEST PUSH0 PUSH2 0x2E8F DUP6 DUP3 DUP7 ADD PUSH2 0x2BFF JUMP JUMPDEST SWAP3 POP POP PUSH1 0x20 PUSH2 0x2EA0 DUP6 DUP3 DUP7 ADD PUSH2 0x2BFF JUMP JUMPDEST SWAP2 POP POP SWAP3 POP SWAP3 SWAP1 POP JUMP JUMPDEST PUSH0 PUSH2 0x2EB4 DUP3 PUSH2 0x2B86 JUMP JUMPDEST SWAP1 POP SWAP2 SWAP1 POP JUMP JUMPDEST PUSH2 0x2EC4 DUP2 PUSH2 0x2EAA JUMP JUMPDEST DUP3 MSTORE POP POP JUMP JUMPDEST PUSH2 0x2ED3 DUP2 PUSH2 0x2BE0 JUMP JUMPDEST DUP3 MSTORE POP POP JUMP JUMPDEST PUSH0 PUSH1 0x60 DUP3 ADD SWAP1 POP PUSH2 0x2EEC PUSH0 DUP4 ADD DUP7 PUSH2 0x2EBB JUMP JUMPDEST PUSH2 0x2EF9 PUSH1 0x20 DUP4 ADD DUP6 PUSH2 0x2ECA JUMP JUMPDEST PUSH2 0x2F06 PUSH1 0x40 DUP4 ADD DUP5 PUSH2 0x2ECA JUMP JUMPDEST SWAP5 SWAP4 POP POP POP POP JUMP JUMPDEST PUSH0 DUP2 ISZERO ISZERO SWAP1 POP SWAP2 SWAP1 POP JUMP JUMPDEST PUSH2 0x2F22 DUP2 PUSH2 0x2F0E JUMP JUMPDEST DUP3 MSTORE POP POP JUMP JUMPDEST PUSH0 PUSH1 0x20 DUP3 ADD SWAP1 POP PUSH2 0x2F3B PUSH0 DUP4 ADD DUP5 PUSH2 0x2F19 JUMP JUMPDEST SWAP3 SWAP2 POP POP JUMP JUMPDEST PUSH2 0x2F4A DUP2 PUSH2 0x2EAA JUMP JUMPDEST DUP2 EQ PUSH2 0x2F54 JUMPI PUSH0 PUSH0 REVERT JUMPDEST POP JUMP JUMPDEST PUSH0 DUP2 CALLDATALOAD SWAP1 POP PUSH2 0x2F65 DUP2 PUSH2 0x2F41 JUMP JUMPDEST SWAP3 SWAP2 POP POP JUMP JUMPDEST PUSH0 PUSH0 PUSH1 0x40 DUP4 DUP6 SUB SLT ISZERO PUSH2 0x2F81 JUMPI PUSH2 0x2F80 PUSH2 0x2B7E JUMP JUMPDEST JUMPDEST PUSH0 PUSH2 0x2F8E DUP6 DUP3 DUP7 ADD PUSH2 0x2BFF JUMP JUMPDEST SWAP3 POP POP PUSH1 0x20 PUSH2 0x2F9F DUP6 DUP3 DUP7 ADD PUSH2 0x2F57 JUMP JUMPDEST SWAP2 POP POP SWAP3 POP SWAP3 SWAP1 POP JUMP JUMPDEST PUSH0 PUSH1 0x20 DUP3 ADD SWAP1 POP PUSH2 0x2FBC PUSH0 DUP4 ADD DUP5 PUSH2 0x2ECA JUMP JUMPDEST SWAP3 SWAP2 POP POP JUMP JUMPDEST PUSH0 PUSH1 0x20 DUP3 ADD SWAP1 POP PUSH2 0x2FD5 PUSH0 DUP4 ADD DUP5 PUSH2 0x2EBB JUMP JUMPDEST SWAP3 SWAP2 POP POP JUMP JUMPDEST PUSH2 0x2FE4 DUP2 PUSH2 0x2BA5 JUMP JUMPDEST DUP3 MSTORE POP POP JUMP JUMPDEST PUSH0 DUP2 MLOAD SWAP1 POP SWAP2 SWAP1 POP JUMP JUMPDEST DUP3 DUP2 DUP4 MCOPY PUSH0 DUP4 DUP4 ADD MSTORE POP POP POP JUMP JUMPDEST PUSH0 PUSH2 0x300C DUP3 PUSH2 0x2FEA JUMP JUMPDEST PUSH2 0x3016 DUP2 DUP6 PUSH2 0x2AD7 JUMP JUMPDEST SWAP4 POP PUSH2 0x3026 DUP2 DUP6 PUSH1 0x20 DUP7 ADD PUSH2 0x2FF4 JUMP JUMPDEST PUSH2 0x302F DUP2 PUSH2 0x2C96 JUMP JUMPDEST DUP5 ADD SWAP2 POP POP SWAP3 SWAP2 POP POP JUMP JUMPDEST PUSH2 0x3043 DUP2 PUSH2 0x2DCA JUMP JUMPDEST DUP3 MSTORE POP POP JUMP JUMPDEST PUSH32 0x4E487B7100000000000000000000000000000000000000000000000000000000 PUSH0 MSTORE PUSH1 0x21 PUSH1 0x4 MSTORE PUSH1 0x24 PUSH0 REVERT JUMPDEST PUSH1 0x2 DUP2 LT PUSH2 0x3087 JUMPI PUSH2 0x3086 PUSH2 0x3049 JUMP JUMPDEST JUMPDEST POP JUMP JUMPDEST PUSH0 DUP2 SWAP1 POP PUSH2 0x3097 DUP3 PUSH2 0x3076 JUMP JUMPDEST SWAP2 SWAP1 POP JUMP JUMPDEST PUSH0 PUSH2 0x30A6 DUP3 PUSH2 0x308A JUMP JUMPDEST SWAP1 POP SWAP2 SWAP1 POP JUMP JUMPDEST PUSH2 0x30B6 DUP2 PUSH2 0x309C JUMP JUMPDEST DUP3 MSTORE POP POP JUMP JUMPDEST PUSH0 PUSH2 0x120 DUP3 ADD SWAP1 POP PUSH2 0x30D0 PUSH0 DUP4 ADD DUP13 PUSH2 0x2ECA JUMP JUMPDEST PUSH2 0x30DD PUSH1 0x20 DUP4 ADD DUP12 PUSH2 0x2FDB JUMP JUMPDEST DUP2 DUP2 SUB PUSH1 0x40 DUP4 ADD MSTORE PUSH2 0x30EF DUP2 DUP11 PUSH2 0x3002 JUMP JUMPDEST SWAP1 POP PUSH2 0x30FE PUSH1 0x60 DUP4 ADD DUP10 PUSH2 0x303A JUMP JUMPDEST PUSH2 0x310B PUSH1 0x80 DUP4 ADD DUP9 PUSH2 0x2ECA JUMP JUMPDEST PUSH2 0x3118 PUSH1 0xA0 DUP4 ADD DUP8 PUSH2 0x2F19 JUMP JUMPDEST PUSH2 0x3125 PUSH1 0xC0 DUP4 ADD DUP7 PUSH2 0x2ECA JUMP JUMPDEST PUSH2 0x3132 PUSH1 0xE0 DUP4 ADD DUP6 PUSH2 0x30AD JUMP JUMPDEST PUSH2 0x3140 PUSH2 0x100 DUP4 ADD DUP5 PUSH2 0x2ECA JUMP JUMPDEST SWAP11 SWAP10 POP POP POP POP POP POP POP POP POP POP JUMP JUMPDEST PUSH2 0x3157 DUP2 PUSH2 0x2F0E JUMP JUMPDEST DUP2 EQ PUSH2 0x3161 JUMPI PUSH0 PUSH0 REVERT JUMPDEST POP JUMP JUMPDEST PUSH0 DUP2 CALLDATALOAD SWAP1 POP PUSH2 0x3172 DUP2 PUSH2 0x314E JUMP JUMPDEST SWAP3 SWAP2 POP POP JUMP JUMPDEST PUSH0 PUSH0 PUSH1 0x40 DUP4 DUP6 SUB SLT ISZERO PUSH2 0x318E JUMPI PUSH2 0x318D PUSH2 0x2B7E JUMP JUMPDEST JUMPDEST PUSH0 PUSH2 0x319B DUP6 DUP3 DUP7 ADD PUSH2 0x2F57 JUMP JUMPDEST SWAP3 POP POP PUSH1 0x20 PUSH2 0x31AC DUP6 DUP3 DUP7 ADD PUSH2 0x3164 JUMP JUMPDEST SWAP2 POP POP SWAP3 POP SWAP3 SWAP1 POP JUMP JUMPDEST PUSH0 PUSH1 0x20 DUP3 DUP5 SUB SLT ISZERO PUSH2 0x31CB JUMPI PUSH2 0x31CA PUSH2 0x2B7E JUMP JUMPDEST JUMPDEST PUSH0 PUSH2 0x31D8 DUP5 DUP3 DUP6 ADD PUSH2 0x2F57 JUMP JUMPDEST SWAP2 POP POP SWAP3 SWAP2 POP POP JUMP JUMPDEST PUSH2 0x31EA DUP2 PUSH2 0x2EAA JUMP JUMPDEST DUP3 MSTORE POP POP JUMP JUMPDEST PUSH2 0x31F9 DUP2 PUSH2 0x2BE0 JUMP JUMPDEST DUP3 MSTORE POP POP JUMP JUMPDEST PUSH1 0x60 DUP3 ADD PUSH0 DUP3 ADD MLOAD PUSH2 0x3213 PUSH0 DUP6 ADD DUP3 PUSH2 0x31E1 JUMP JUMPDEST POP PUSH1 0x20 DUP3 ADD MLOAD PUSH2 0x3226 PUSH1 0x20 DUP6 ADD DUP3 PUSH2 0x31F0 JUMP JUMPDEST POP PUSH1 0x40 DUP3 ADD MLOAD PUSH2 0x3239 PUSH1 0x40 DUP6 ADD DUP3 PUSH2 0x31F0 JUMP JUMPDEST POP POP POP POP JUMP JUMPDEST PUSH0 PUSH1 0x60 DUP3 ADD SWAP1 POP PUSH2 0x3252 PUSH0 DUP4 ADD DUP5 PUSH2 0x31FF JUMP JUMPDEST SWAP3 SWAP2 POP POP JUMP JUMPDEST PUSH0 PUSH0 PUSH1 0x40 DUP4 DUP6 SUB SLT ISZERO PUSH2 0x326E JUMPI PUSH2 0x326D PUSH2 0x2B7E JUMP JUMPDEST JUMPDEST PUSH0 PUSH2 0x327B DUP6 DUP3 DUP7 ADD PUSH2 0x2F57 JUMP JUMPDEST SWAP3 POP POP PUSH1 0x20 PUSH2 0x328C DUP6 DUP3 DUP7 ADD PUSH2 0x2BFF JUMP JUMPDEST SWAP2 POP POP SWAP3 POP SWAP3 SWAP1 POP JUMP JUMPDEST PUSH2 0x329F DUP2 PUSH2 0x2BA5 JUMP JUMPDEST DUP3 MSTORE POP POP JUMP JUMPDEST PUSH0 DUP3 DUP3 MSTORE PUSH1 0x20 DUP3 ADD SWAP1 POP SWAP3 SWAP2 POP POP JUMP JUMPDEST PUSH0 PUSH2 0x32BF DUP3 PUSH2 0x2FEA JUMP JUMPDEST PUSH2 0x32C9 DUP2 DUP6 PUSH2 0x32A5 JUMP JUMPDEST SWAP4 POP PUSH2 0x32D9 DUP2 DUP6 PUSH1 0x20 DUP7 ADD PUSH2 0x2FF4 JUMP JUMPDEST PUSH2 0x32E2 DUP2 PUSH2 0x2C96 JUMP JUMPDEST DUP5 ADD SWAP2 POP POP SWAP3 SWAP2 POP POP JUMP JUMPDEST PUSH2 0x32F6 DUP2 PUSH2 0x2DCA JUMP JUMPDEST DUP3 MSTORE POP POP JUMP JUMPDEST PUSH2 0x3305 DUP2 PUSH2 0x2F0E JUMP JUMPDEST DUP3 MSTORE POP POP JUMP JUMPDEST PUSH2 0x3314 DUP2 PUSH2 0x309C JUMP JUMPDEST DUP3 MSTORE POP POP JUMP JUMPDEST PUSH0 PUSH2 0x120 DUP4 ADD PUSH0 DUP4 ADD MLOAD PUSH2 0x3330 PUSH0 DUP7 ADD DUP3 PUSH2 0x31F0 JUMP JUMPDEST POP PUSH1 0x20 DUP4 ADD MLOAD PUSH2 0x3343 PUSH1 0x20 DUP7 ADD DUP3 PUSH2 0x3296 JUMP JUMPDEST POP PUSH1 0x40 DUP4 ADD MLOAD DUP5 DUP3 SUB PUSH1 0x40 DUP7 ADD MSTORE PUSH2 0x335B DUP3 DUP3 PUSH2 0x32B5 JUMP JUMPDEST SWAP2 POP POP PUSH1 0x60 DUP4 ADD MLOAD PUSH2 0x3370 PUSH1 0x60 DUP7 ADD DUP3 PUSH2 0x32ED JUMP JUMPDEST POP PUSH1 0x80 DUP4 ADD MLOAD PUSH2 0x3383 PUSH1 0x80 DUP7 ADD DUP3 PUSH2 0x31F0 JUMP JUMPDEST POP PUSH1 0xA0 DUP4 ADD MLOAD PUSH2 0x3396 PUSH1 0xA0 DUP7 ADD DUP3 PUSH2 0x32FC JUMP JUMPDEST POP PUSH1 0xC0 DUP4 ADD MLOAD PUSH2 0x33A9 PUSH1 0xC0 DUP7 ADD DUP3 PUSH2 0x31F0 JUMP JUMPDEST POP PUSH1 0xE0 DUP4 ADD MLOAD PUSH2 0x33BC PUSH1 0xE0 DUP7 ADD DUP3 PUSH2 0x330B JUMP JUMPDEST POP PUSH2 0x100 DUP4 ADD MLOAD PUSH2 0x33D1 PUSH2 0x100 DUP7 ADD DUP3 PUSH2 0x31F0 JUMP JUMPDEST POP DUP1 SWAP2 POP POP SWAP3 SWAP2 POP POP JUMP JUMPDEST PUSH0 PUSH1 0x20 DUP3 ADD SWAP1 POP DUP2 DUP2 SUB PUSH0 DUP4 ADD MSTORE PUSH2 0x33F4 DUP2 DUP5 PUSH2 0x331A JUMP JUMPDEST SWAP1 POP SWAP3 SWAP2 POP POP JUMP JUMPDEST PUSH0 PUSH1 0x20 DUP3 DUP5 SUB SLT ISZERO PUSH2 0x3411 JUMPI PUSH2 0x3410 PUSH2 0x2B7E JUMP JUMPDEST JUMPDEST PUSH0 PUSH2 0x341E DUP5 DUP3 DUP6 ADD PUSH2 0x3164 JUMP JUMPDEST SWAP2 POP POP SWAP3 SWAP2 POP POP JUMP JUMPDEST PUSH32 0x5374616C6C3A206E6F7420666F756E6400000000000000000000000000000000 PUSH0 DUP3 ADD MSTORE POP JUMP JUMPDEST PUSH0 PUSH2 0x345B PUSH1 0x10 DUP4 PUSH2 0x2AD7 JUMP JUMPDEST SWAP2 POP PUSH2 0x3466 DUP3 PUSH2 0x3427 JUMP JUMPDEST PUSH1 0x20 DUP3 ADD SWAP1 POP SWAP2 SWAP1 POP JUMP JUMPDEST PUSH0 PUSH1 0x20 DUP3 ADD SWAP1 POP DUP2 DUP2 SUB PUSH0 DUP4 ADD MSTORE PUSH2 0x3488 DUP2 PUSH2 0x344F JUMP JUMPDEST SWAP1 POP SWAP2 SWAP1 POP JUMP JUMPDEST PUSH32 0x5374616C6C3A206E6F74206F776E657200000000000000000000000000000000 PUSH0 DUP3 ADD MSTORE POP JUMP JUMPDEST PUSH0 PUSH2 0x34C3 PUSH1 0x10 DUP4 PUSH2 0x2AD7 JUMP JUMPDEST SWAP2 POP PUSH2 0x34CE DUP3 PUSH2 0x348F JUMP JUMPDEST PUSH1 0x20 DUP3 ADD SWAP1 POP SWAP2 SWAP1 POP JUMP JUMPDEST PUSH0 PUSH1 0x20 DUP3 ADD SWAP1 POP DUP2 DUP2 SUB PUSH0 DUP4 ADD MSTORE PUSH2 0x34F0 DUP2 PUSH2 0x34B7 JUMP JUMPDEST SWAP1 POP SWAP2 SWAP1 POP JUMP JUMPDEST PUSH32 0x5265656E7472616E637947756172643A207265656E7472616E74000000000000 PUSH0 DUP3 ADD MSTORE POP JUMP JUMPDEST PUSH0 PUSH2 0x352B PUSH1 0x1A DUP4 PUSH2 0x2AD7 JUMP JUMPDEST SWAP2 POP PUSH2 0x3536 DUP3 PUSH2 0x34F7 JUMP JUMPDEST PUSH1 0x20 DUP3 ADD SWAP1 POP SWAP2 SWAP1 POP JUMP JUMPDEST PUSH0 PUSH1 0x20 DUP3 ADD SWAP1 POP DUP2 DUP2 SUB PUSH0 DUP4 ADD MSTORE PUSH2 0x3558 DUP2 PUSH2 0x351F JUMP JUMPDEST SWAP1 POP SWAP2 SWAP1 POP JUMP JUMPDEST PUSH32 0x526566756E643A207A65726F2061646472657373000000000000000000000000 PUSH0 DUP3 ADD MSTORE POP JUMP JUMPDEST PUSH0 PUSH2 0x3593 PUSH1 0x14 DUP4 PUSH2 0x2AD7 JUMP JUMPDEST SWAP2 POP PUSH2 0x359E DUP3 PUSH2 0x355F JUMP JUMPDEST PUSH1 0x20 DUP3 ADD SWAP1 POP SWAP2 SWAP1 POP JUMP JUMPDEST PUSH0 PUSH1 0x20 DUP3 ADD SWAP1 POP DUP2 DUP2 SUB PUSH0 DUP4 ADD MSTORE PUSH2 0x35C0 DUP2 PUSH2 0x3587 JUMP JUMPDEST SWAP1 POP SWAP2 SWAP1 POP JUMP JUMPDEST PUSH32 0x526566756E643A20616D6F756E74207265717569726564000000000000000000 PUSH0 DUP3 ADD MSTORE POP JUMP JUMPDEST PUSH0 PUSH2 0x35FB PUSH1 0x17 DUP4 PUSH2 0x2AD7 JUMP JUMPDEST SWAP2 POP PUSH2 0x3606 DUP3 PUSH2 0x35C7 JUMP JUMPDEST PUSH1 0x20 DUP3 ADD SWAP1 POP SWAP2 SWAP1 POP JUMP JUMPDEST PUSH0 PUSH1 0x20 DUP3 ADD SWAP1 POP DUP2 DUP2 SUB PUSH0 DUP4 ADD MSTORE PUSH2 0x3628 DUP2 PUSH2 0x35EF JUMP JUMPDEST SWAP1 POP SWAP2 SWAP1 POP JUMP JUMPDEST PUSH32 0x4E487B7100000000000000000000000000000000000000000000000000000000 PUSH0 MSTORE PUSH1 0x11 PUSH1 0x4 MSTORE PUSH1 0x24 PUSH0 REVERT JUMPDEST PUSH0 PUSH2 0x3666 DUP3 PUSH2 0x2BE0 JUMP JUMPDEST SWAP2 POP PUSH2 0x3671 DUP4 PUSH2 0x2BE0 JUMP JUMPDEST SWAP3 POP DUP3 DUP3 ADD SWAP1 POP DUP1 DUP3 GT ISZERO PUSH2 0x3689 JUMPI PUSH2 0x3688 PUSH2 0x362F JUMP JUMPDEST JUMPDEST SWAP3 SWAP2 POP POP JUMP JUMPDEST PUSH32 0x526566756E643A207374616C6C2068617320636C6F7365640000000000000000 PUSH0 DUP3 ADD MSTORE POP JUMP JUMPDEST PUSH0 PUSH2 0x36C3 PUSH1 0x18 DUP4 PUSH2 0x2AD7 JUMP JUMPDEST SWAP2 POP PUSH2 0x36CE DUP3 PUSH2 0x368F JUMP JUMPDEST PUSH1 0x20 DUP3 ADD SWAP1 POP SWAP2 SWAP1 POP JUMP JUMPDEST PUSH0 PUSH1 0x20 DUP3 ADD SWAP1 POP DUP2 DUP2 SUB PUSH0 DUP4 ADD MSTORE PUSH2 0x36F0 DUP2 PUSH2 0x36B7 JUMP JUMPDEST SWAP1 POP SWAP2 SWAP1 POP JUMP JUMPDEST PUSH32 0x526566756E643A20627579657220686173206E6F207061796D656E747320666F PUSH0 DUP3 ADD MSTORE PUSH32 0x722074686973207374616C6C0000000000000000000000000000000000000000 PUSH1 0x20 DUP3 ADD MSTORE POP JUMP JUMPDEST PUSH0 PUSH2 0x3751 PUSH1 0x2C DUP4 PUSH2 0x2AD7 JUMP JUMPDEST SWAP2 POP PUSH2 0x375C DUP3 PUSH2 0x36F7 JUMP JUMPDEST PUSH1 0x40 DUP3 ADD SWAP1 POP SWAP2 SWAP1 POP JUMP JUMPDEST PUSH0 PUSH1 0x20 DUP3 ADD SWAP1 POP DUP2 DUP2 SUB PUSH0 DUP4 ADD MSTORE PUSH2 0x377E DUP2 PUSH2 0x3745 JUMP JUMPDEST SWAP1 POP SWAP2 SWAP1 POP JUMP JUMPDEST PUSH32 0x526566756E642065786365656473206275796572277320746F74616C20706169 PUSH0 DUP3 ADD MSTORE PUSH32 0x6400000000000000000000000000000000000000000000000000000000000000 PUSH1 0x20 DUP3 ADD MSTORE POP JUMP JUMPDEST PUSH0 PUSH2 0x37DF PUSH1 0x21 DUP4 PUSH2 0x2AD7 JUMP JUMPDEST SWAP2 POP PUSH2 0x37EA DUP3 PUSH2 0x3785 JUMP JUMPDEST PUSH1 0x40 DUP3 ADD SWAP1 POP SWAP2 SWAP1 POP JUMP JUMPDEST PUSH0 PUSH1 0x20 DUP3 ADD SWAP1 POP DUP2 DUP2 SUB PUSH0 DUP4 ADD MSTORE PUSH2 0x380C DUP2 PUSH2 0x37D3 JUMP JUMPDEST SWAP1 POP SWAP2 SWAP1 POP JUMP JUMPDEST PUSH32 0x526566756E643A20696E73756666696369656E74207374616C6C2062616C616E PUSH0 DUP3 ADD MSTORE PUSH32 0x6365000000000000000000000000000000000000000000000000000000000000 PUSH1 0x20 DUP3 ADD MSTORE POP JUMP JUMPDEST PUSH0 PUSH2 0x386D PUSH1 0x22 DUP4 PUSH2 0x2AD7 JUMP JUMPDEST SWAP2 POP PUSH2 0x3878 DUP3 PUSH2 0x3813 JUMP JUMPDEST PUSH1 0x40 DUP3 ADD SWAP1 POP SWAP2 SWAP1 POP JUMP JUMPDEST PUSH0 PUSH1 0x20 DUP3 ADD SWAP1 POP DUP2 DUP2 SUB PUSH0 DUP4 ADD MSTORE PUSH2 0x389A DUP2 PUSH2 0x3861 JUMP JUMPDEST SWAP1 POP SWAP2 SWAP1 POP JUMP JUMPDEST PUSH0 PUSH2 0x38AB DUP3 PUSH2 0x2BE0 JUMP JUMPDEST SWAP2 POP PUSH2 0x38B6 DUP4 PUSH2 0x2BE0 JUMP JUMPDEST SWAP3 POP DUP3 DUP3 SUB SWAP1 POP DUP2 DUP2 GT ISZERO PUSH2 0x38CE JUMPI PUSH2 0x38CD PUSH2 0x362F JUMP JUMPDEST JUMPDEST SWAP3 SWAP2 POP POP JUMP JUMPDEST PUSH0 DUP2 SWAP1 POP SWAP3 SWAP2 POP POP JUMP JUMPDEST POP JUMP JUMPDEST PUSH0 PUSH2 0x38EC PUSH0 DUP4 PUSH2 0x38D4 JUMP JUMPDEST SWAP2 POP PUSH2 0x38F7 DUP3 PUSH2 0x38DE JUMP JUMPDEST PUSH0 DUP3 ADD SWAP1 POP SWAP2 SWAP1 POP JUMP JUMPDEST PUSH0 PUSH2 0x390B DUP3 PUSH2 0x38E1 JUMP JUMPDEST SWAP2 POP DUP2 SWAP1 POP SWAP2 SWAP1 POP JUMP JUMPDEST PUSH32 0x526566756E643A207472616E73666572206661696C6564000000000000000000 PUSH0 DUP3 ADD MSTORE POP JUMP JUMPDEST PUSH0 PUSH2 0x3949 PUSH1 0x17 DUP4 PUSH2 0x2AD7 JUMP JUMPDEST SWAP2 POP PUSH2 0x3954 DUP3 PUSH2 0x3915 JUMP JUMPDEST PUSH1 0x20 DUP3 ADD SWAP1 POP SWAP2 SWAP1 POP JUMP JUMPDEST PUSH0 PUSH1 0x20 DUP3 ADD SWAP1 POP DUP2 DUP2 SUB PUSH0 DUP4 ADD MSTORE PUSH2 0x3976 DUP2 PUSH2 0x393D JUMP JUMPDEST SWAP1 POP SWAP2 SWAP1 POP JUMP JUMPDEST PUSH32 0x57697468647261773A207374616C6C207374696C6C206F7065726174696E6700 PUSH0 DUP3 ADD MSTORE POP JUMP JUMPDEST PUSH0 PUSH2 0x39B1 PUSH1 0x1F DUP4 PUSH2 0x2AD7 JUMP JUMPDEST SWAP2 POP PUSH2 0x39BC DUP3 PUSH2 0x397D JUMP JUMPDEST PUSH1 0x20 DUP3 ADD SWAP1 POP SWAP2 SWAP1 POP JUMP JUMPDEST PUSH0 PUSH1 0x20 DUP3 ADD SWAP1 POP DUP2 DUP2 SUB PUSH0 DUP4 ADD MSTORE PUSH2 0x39DE DUP2 PUSH2 0x39A5 JUMP JUMPDEST SWAP1 POP SWAP2 SWAP1 POP JUMP JUMPDEST PUSH32 0x57697468647261773A206E6F2066756E64730000000000000000000000000000 PUSH0 DUP3 ADD MSTORE POP JUMP JUMPDEST PUSH0 PUSH2 0x3A19 PUSH1 0x12 DUP4 PUSH2 0x2AD7 JUMP JUMPDEST SWAP2 POP PUSH2 0x3A24 DUP3 PUSH2 0x39E5 JUMP JUMPDEST PUSH1 0x20 DUP3 ADD SWAP1 POP SWAP2 SWAP1 POP JUMP JUMPDEST PUSH0 PUSH1 0x20 DUP3 ADD SWAP1 POP DUP2 DUP2 SUB PUSH0 DUP4 ADD MSTORE PUSH2 0x3A46 DUP2 PUSH2 0x3A0D JUMP JUMPDEST SWAP1 POP SWAP2 SWAP1 POP JUMP JUMPDEST PUSH32 0x57697468647261773A207472616E73666572206661696C656400000000000000 PUSH0 DUP3 ADD MSTORE POP JUMP JUMPDEST PUSH0 PUSH2 0x3A81 PUSH1 0x19 DUP4 PUSH2 0x2AD7 JUMP JUMPDEST SWAP2 POP PUSH2 0x3A8C DUP3 PUSH2 0x3A4D JUMP JUMPDEST PUSH1 0x20 DUP3 ADD SWAP1 POP SWAP2 SWAP1 POP JUMP JUMPDEST PUSH0 PUSH1 0x20 DUP3 ADD SWAP1 POP DUP2 DUP2 SUB PUSH0 DUP4 ADD MSTORE PUSH2 0x3AAE DUP2 PUSH2 0x3A75 JUMP JUMPDEST SWAP1 POP SWAP2 SWAP1 POP JUMP JUMPDEST PUSH32 0x52656769737465723A206E6F7420616E20617574686F72697A6564206D656D62 PUSH0 DUP3 ADD MSTORE PUSH32 0x6572000000000000000000000000000000000000000000000000000000000000 PUSH1 0x20 DUP3 ADD MSTORE POP JUMP JUMPDEST PUSH0 PUSH2 0x3B0F PUSH1 0x22 DUP4 PUSH2 0x2AD7 JUMP JUMPDEST SWAP2 POP PUSH2 0x3B1A DUP3 PUSH2 0x3AB5 JUMP JUMPDEST PUSH1 0x40 DUP3 ADD SWAP1 POP SWAP2 SWAP1 POP JUMP JUMPDEST PUSH0 PUSH1 0x20 DUP3 ADD SWAP1 POP DUP2 DUP2 SUB PUSH0 DUP4 ADD MSTORE PUSH2 0x3B3C DUP2 PUSH2 0x3B03 JUMP JUMPDEST SWAP1 POP SWAP2 SWAP1 POP JUMP JUMPDEST PUSH32 0x5374616C6C3A20696E76616C6964206461797300000000000000000000000000 PUSH0 DUP3 ADD MSTORE POP JUMP JUMPDEST PUSH0 PUSH2 0x3B77 PUSH1 0x13 DUP4 PUSH2 0x2AD7 JUMP JUMPDEST SWAP2 POP PUSH2 0x3B82 DUP3 PUSH2 0x3B43 JUMP JUMPDEST PUSH1 0x20 DUP3 ADD SWAP1 POP SWAP2 SWAP1 POP JUMP JUMPDEST PUSH0 PUSH1 0x20 DUP3 ADD SWAP1 POP DUP2 DUP2 SUB PUSH0 DUP4 ADD MSTORE PUSH2 0x3BA4 DUP2 PUSH2 0x3B6B JUMP JUMPDEST SWAP1 POP SWAP2 SWAP1 POP JUMP JUMPDEST PUSH32 0x5374616C6C3A206E616D65206C656E6774680000000000000000000000000000 PUSH0 DUP3 ADD MSTORE POP JUMP JUMPDEST PUSH0 PUSH2 0x3BDF PUSH1 0x12 DUP4 PUSH2 0x2AD7 JUMP JUMPDEST SWAP2 POP PUSH2 0x3BEA DUP3 PUSH2 0x3BAB JUMP JUMPDEST PUSH1 0x20 DUP3 ADD SWAP1 POP SWAP2 SWAP1 POP JUMP JUMPDEST PUSH0 PUSH1 0x20 DUP3 ADD SWAP1 POP DUP2 DUP2 SUB PUSH0 DUP4 ADD MSTORE PUSH2 0x3C0C DUP2 PUSH2 0x3BD3 JUMP JUMPDEST SWAP1 POP SWAP2 SWAP1 POP JUMP JUMPDEST PUSH0 PUSH2 0x3C1D DUP3 PUSH2 0x2BE0 JUMP JUMPDEST SWAP2 POP PUSH32 0xFFFFFFFFFFFFFFFFFFFFFFFFFFFFFFFFFFFFFFFFFFFFFFFFFFFFFFFFFFFFFFFF DUP3 SUB PUSH2 0x3C4F JUMPI PUSH2 0x3C4E PUSH2 0x362F JUMP JUMPDEST JUMPDEST PUSH1 0x1 DUP3 ADD SWAP1 POP SWAP2 SWAP1 POP JUMP JUMPDEST PUSH32 0x4E487B7100000000000000000000000000000000000000000000000000000000 PUSH0 MSTORE PUSH1 0x22 PUSH1 0x4 MSTORE PUSH1 0x24 PUSH0 REVERT JUMPDEST PUSH0 PUSH1 0x2 DUP3 DIV SWAP1 POP PUSH1 0x1 DUP3 AND DUP1 PUSH2 0x3C9E JUMPI PUSH1 0x7F DUP3 AND SWAP2 POP JUMPDEST PUSH1 0x20 DUP3 LT DUP2 SUB PUSH2 0x3CB1 JUMPI PUSH2 0x3CB0 PUSH2 0x3C5A JUMP JUMPDEST JUMPDEST POP SWAP2 SWAP1 POP JUMP JUMPDEST PUSH0 DUP2 SWAP1 POP DUP2 PUSH0 MSTORE PUSH1 0x20 PUSH0 KECCAK256 SWAP1 POP SWAP2 SWAP1 POP JUMP JUMPDEST PUSH0 PUSH1 0x20 PUSH1 0x1F DUP4 ADD DIV SWAP1 POP SWAP2 SWAP1 POP JUMP JUMPDEST PUSH0 DUP3 DUP3 SHL SWAP1 POP SWAP3 SWAP2 POP POP JUMP JUMPDEST PUSH0 PUSH1 0x8 DUP4 MUL PUSH2 0x3D13 PUSH32 0xFFFFFFFFFFFFFFFFFFFFFFFFFFFFFFFFFFFFFFFFFFFFFFFFFFFFFFFFFFFFFFFF DUP3 PUSH2 0x3CD8 JUMP JUMPDEST PUSH2 0x3D1D DUP7 DUP4 PUSH2 0x3CD8 JUMP JUMPDEST SWAP6 POP DUP1 NOT DUP5 AND SWAP4 POP DUP1 DUP7 AND DUP5 OR SWAP3 POP POP POP SWAP4 SWAP3 POP POP POP JUMP JUMPDEST PUSH0 DUP2 SWAP1 POP SWAP2 SWAP1 POP JUMP JUMPDEST PUSH0 PUSH2 0x3D58 PUSH2 0x3D53 PUSH2 0x3D4E DUP5 PUSH2 0x2BE0 JUMP JUMPDEST PUSH2 0x3D35 JUMP JUMPDEST PUSH2 0x2BE0 JUMP JUMPDEST SWAP1 POP SWAP2 SWAP1 POP JUMP JUMPDEST PUSH0 DUP2 SWAP1 POP SWAP2 SWAP1 POP JUMP JUMPDEST PUSH2 0x3D71 DUP4 PUSH2 0x3D3E JUMP JUMPDEST PUSH2 0x3D85 PUSH2 0x3D7D DUP3 PUSH2 0x3D5F JUMP JUMPDEST DUP5 DUP5 SLOAD PUSH2 0x3CE4 JUMP JUMPDEST DUP3 SSTORE POP POP POP POP JUMP JUMPDEST PUSH0 PUSH0 SWAP1 POP SWAP1 JUMP JUMPDEST PUSH2 0x3D9C PUSH2 0x3D8D JUMP JUMPDEST PUSH2 0x3DA7 DUP2 DUP5 DUP5 PUSH2 0x3D68 JUMP JUMPDEST POP POP POP JUMP JUMPDEST JUMPDEST DUP2 DUP2 LT ISZERO PUSH2 0x3DCA JUMPI PUSH2 0x3DBF PUSH0 DUP3 PUSH2 0x3D94 JUMP JUMPDEST PUSH1 0x1 DUP2 ADD SWAP1 POP PUSH2 0x3DAD JUMP JUMPDEST POP POP JUMP JUMPDEST PUSH1 0x1F DUP3 GT ISZERO PUSH2 0x3E0F JUMPI PUSH2 0x3DE0 DUP2 PUSH2 0x3CB7 JUMP JUMPDEST PUSH2 0x3DE9 DUP5 PUSH2 0x3CC9 JUMP JUMPDEST DUP2 ADD PUSH1 0x20 DUP6 LT ISZERO PUSH2 0x3DF8 JUMPI DUP2 SWAP1 POP JUMPDEST PUSH2 0x3E0C PUSH2 0x3E04 DUP6 PUSH2 0x3CC9 JUMP JUMPDEST DUP4 ADD DUP3 PUSH2 0x3DAC JUMP JUMPDEST POP POP JUMPDEST POP POP POP JUMP JUMPDEST PUSH0 DUP3 DUP3 SHR SWAP1 POP SWAP3 SWAP2 POP POP JUMP JUMPDEST PUSH0 PUSH2 0x3E2F PUSH0 NOT DUP5 PUSH1 0x8 MUL PUSH2 0x3E14 JUMP JUMPDEST NOT DUP1 DUP4 AND SWAP2 POP POP SWAP3 SWAP2 POP POP JUMP JUMPDEST PUSH0 PUSH2 0x3E47 DUP4 DUP4 PUSH2 0x3E20 JUMP JUMPDEST SWAP2 POP DUP3 PUSH1 0x2 MUL DUP3 OR SWAP1 POP SWAP3 SWAP2 POP POP JUMP JUMPDEST PUSH2 0x3E60 DUP3 PUSH2 0x2FEA JUMP JUMPDEST PUSH8 0xFFFFFFFFFFFFFFFF DUP2 GT ISZERO PUSH2 0x3E79 JUMPI PUSH2 0x3E78 PUSH2 0x2CA6 JUMP JUMPDEST JUMPDEST PUSH2 0x3E83 DUP3 SLOAD PUSH2 0x3C87 JUMP JUMPDEST PUSH2 0x3E8E DUP3 DUP3 DUP6 PUSH2 0x3DCE JUMP JUMPDEST PUSH0 PUSH1 0x20 SWAP1 POP PUSH1 0x1F DUP4 GT PUSH1 0x1 DUP2 EQ PUSH2 0x3EBF JUMPI PUSH0 DUP5 ISZERO PUSH2 0x3EAD JUMPI DUP3 DUP8 ADD MLOAD SWAP1 POP JUMPDEST PUSH2 0x3EB7 DUP6 DUP3 PUSH2 0x3E3C JUMP JUMPDEST DUP7 SSTORE POP PUSH2 0x3F1E JUMP JUMPDEST PUSH1 0x1F NOT DUP5 AND PUSH2 0x3ECD DUP7 PUSH2 0x3CB7 JUMP JUMPDEST PUSH0 JUMPDEST DUP3 DUP2 LT ISZERO PUSH2 0x3EF4 JUMPI DUP5 DUP10 ADD MLOAD DUP3 SSTORE PUSH1 0x1 DUP3 ADD SWAP2 POP PUSH1 0x20 DUP6 ADD SWAP5 POP PUSH1 0x20 DUP2 ADD SWAP1 POP PUSH2 0x3ECF JUMP JUMPDEST DUP7 DUP4 LT ISZERO PUSH2 0x3F11 JUMPI DUP5 DUP10 ADD MLOAD PUSH2 0x3F0D PUSH1 0x1F DUP10 AND DUP3 PUSH2 0x3E20 JUMP JUMPDEST DUP4 SSTORE POP JUMPDEST PUSH1 0x1 PUSH1 0x2 DUP9 MUL ADD DUP9 SSTORE POP POP POP JUMPDEST POP POP POP POP POP POP JUMP JUMPDEST PUSH0 PUSH2 0x3F30 DUP3 PUSH2 0x2BE0 JUMP JUMPDEST SWAP2 POP PUSH2 0x3F3B DUP4 PUSH2 0x2BE0 JUMP JUMPDEST SWAP3 POP DUP3 DUP3 MUL PUSH2 0x3F49 DUP2 PUSH2 0x2BE0 JUMP JUMPDEST SWAP2 POP DUP3 DUP3 DIV DUP5 EQ DUP4 ISZERO OR PUSH2 0x3F60 JUMPI PUSH2 0x3F5F PUSH2 0x362F JUMP JUMPDEST JUMPDEST POP SWAP3 SWAP2 POP POP JUMP JUMPDEST PUSH32 0x5374616C6C3A20636C6F73656400000000000000000000000000000000000000 PUSH0 DUP3 ADD MSTORE POP JUMP JUMPDEST PUSH0 PUSH2 0x3F9B PUSH1 0xD DUP4 PUSH2 0x2AD7 JUMP JUMPDEST SWAP2 POP PUSH2 0x3FA6 DUP3 PUSH2 0x3F67 JUMP JUMPDEST PUSH1 0x20 DUP3 ADD SWAP1 POP SWAP2 SWAP1 POP JUMP JUMPDEST PUSH0 PUSH1 0x20 DUP3 ADD SWAP1 POP DUP2 DUP2 SUB PUSH0 DUP4 ADD MSTORE PUSH2 0x3FC8 DUP2 PUSH2 0x3F8F JUMP JUMPDEST SWAP1 POP SWAP2 SWAP1 POP JUMP JUMPDEST PUSH32 0x5061793A20616D6F756E74207265717569726564000000000000000000000000 PUSH0 DUP3 ADD MSTORE POP JUMP JUMPDEST PUSH0 PUSH2 0x4003 PUSH1 0x14 DUP4 PUSH2 0x2AD7 JUMP JUMPDEST SWAP2 POP PUSH2 0x400E DUP3 PUSH2 0x3FCF JUMP JUMPDEST PUSH1 0x20 DUP3 ADD SWAP1 POP SWAP2 SWAP1 POP JUMP JUMPDEST PUSH0 PUSH1 0x20 DUP3 ADD SWAP1 POP DUP2 DUP2 SUB PUSH0 DUP4 ADD MSTORE PUSH2 0x4030 DUP2 PUSH2 0x3FF7 JUMP JUMPDEST SWAP1 POP SWAP2 SWAP1 POP JUMP JUMPDEST PUSH32 0x4F6E6C79206F7267616E697A6572000000000000000000000000000000000000 PUSH0 DUP3 ADD MSTORE POP JUMP JUMPDEST PUSH0 PUSH2 0x406B PUSH1 0xE DUP4 PUSH2 0x2AD7 JUMP JUMPDEST SWAP2 POP PUSH2 0x4076 DUP3 PUSH2 0x4037 JUMP JUMPDEST PUSH1 0x20 DUP3 ADD SWAP1 POP SWAP2 SWAP1 POP JUMP JUMPDEST PUSH0 PUSH1 0x20 DUP3 ADD SWAP1 POP DUP2 DUP2 SUB PUSH0 DUP4 ADD MSTORE PUSH2 0x4098 DUP2 PUSH2 0x405F JUMP JUMPDEST SWAP1 POP SWAP2 SWAP1 POP JUMP JUMPDEST PUSH32 0x5A65726F20616464726573730000000000000000000000000000000000000000 PUSH0 DUP3 ADD MSTORE POP JUMP JUMPDEST PUSH0 PUSH2 0x40D3 PUSH1 0xC DUP4 PUSH2 0x2AD7 JUMP JUMPDEST SWAP2 POP PUSH2 0x40DE DUP3 PUSH2 0x409F JUMP JUMPDEST PUSH1 0x20 DUP3 ADD SWAP1 POP SWAP2 SWAP1 POP JUMP JUMPDEST PUSH0 PUSH1 0x20 DUP3 ADD SWAP1 POP DUP2 DUP2 SUB PUSH0 DUP4 ADD MSTORE PUSH2 0x4100 DUP2 PUSH2 0x40C7 JUMP JUMPDEST SWAP1 POP SWAP2 SWAP1 POP JUMP JUMPDEST PUSH32 0x4275793A20717479203E20300000000000000000000000000000000000000000 PUSH0 DUP3 ADD MSTORE POP JUMP JUMPDEST PUSH0 PUSH2 0x413B PUSH1 0xC DUP4 PUSH2 0x2AD7 JUMP JUMPDEST SWAP2 POP PUSH2 0x4146 DUP3 PUSH2 0x4107 JUMP JUMPDEST PUSH1 0x20 DUP3 ADD SWAP1 POP SWAP2 SWAP1 POP JUMP JUMPDEST PUSH0 PUSH1 0x20 DUP3 ADD SWAP1 POP DUP2 DUP2 SUB PUSH0 DUP4 ADD MSTORE PUSH2 0x4168 DUP2 PUSH2 0x412F JUMP JUMPDEST SWAP1 POP SWAP2 SWAP1 POP JUMP JUMPDEST PUSH32 0x4275793A207374616C6C206E6F742066697865642D7072696365000000000000 PUSH0 DUP3 ADD MSTORE POP JUMP JUMPDEST PUSH0 PUSH2 0x41A3 PUSH1 0x1A DUP4 PUSH2 0x2AD7 JUMP JUMPDEST SWAP2 POP PUSH2 0x41AE DUP3 PUSH2 0x416F JUMP JUMPDEST PUSH1 0x20 DUP3 ADD SWAP1 POP SWAP2 SWAP1 POP JUMP JUMPDEST PUSH0 PUSH1 0x20 DUP3 ADD SWAP1 POP DUP2 DUP2 SUB PUSH0 DUP4 ADD MSTORE PUSH2 0x41D0 DUP2 PUSH2 0x4197 JUMP JUMPDEST SWAP1 POP SWAP2 SWAP1 POP JUMP JUMPDEST PUSH32 0x4275793A20696E636F7272656374207061796D656E7400000000000000000000 PUSH0 DUP3 ADD MSTORE POP JUMP JUMPDEST PUSH0 PUSH2 0x420B PUSH1 0x16 DUP4 PUSH2 0x2AD7 JUMP JUMPDEST SWAP2 POP PUSH2 0x4216 DUP3 PUSH2 0x41D7 JUMP JUMPDEST PUSH1 0x20 DUP3 ADD SWAP1 POP SWAP2 SWAP1 POP JUMP JUMPDEST PUSH0 PUSH1 0x20 DUP3 ADD SWAP1 POP DUP2 DUP2 SUB PUSH0 DUP4 ADD MSTORE PUSH2 0x4238 DUP2 PUSH2 0x41FF JUMP JUMPDEST SWAP1 POP SWAP2 SWAP1 POP JUMP JUMPDEST PUSH32 0x5061793A20696E646578206F6F62000000000000000000000000000000000000 PUSH0 DUP3 ADD MSTORE POP JUMP JUMPDEST PUSH0 PUSH2 0x4273 PUSH1 0xE DUP4 PUSH2 0x2AD7 JUMP JUMPDEST SWAP2 POP PUSH2 0x427E DUP3 PUSH2 0x423F JUMP JUMPDEST PUSH1 0x20 DUP3 ADD SWAP1 POP SWAP2 SWAP1 POP JUMP JUMPDEST PUSH0 PUSH1 0x20 DUP3 ADD SWAP1 POP DUP2 DUP2 SUB PUSH0 DUP4 ADD MSTORE PUSH2 0x42A0 DUP2 PUSH2 0x4267 JUMP JUMPDEST SWAP1 POP SWAP2 SWAP1 POP JUMP JUMPDEST PUSH32 0x4E487B7100000000000000000000000000000000000000000000000000000000 PUSH0 MSTORE PUSH1 0x32 PUSH1 0x4 MSTORE PUSH1 0x24 PUSH0 REVERT INVALID LOG2 PUSH5 0x6970667358 0x22 SLT KECCAK256 0x27 0x4D 0xBD EXTCALL 0xD PUSH23 0x84EBD0096038BE409E19581D7BA4BE4B52F6B1F4F94BC2 0x27 COINBASE 0xB3 PUSH5 0x736F6C6343 STOP ADDMOD 0x1E STOP CALLER "
		},
		"gasEstimates": {
			"creation": {
				"codeDepositCost": "3432400",
				"executionCost": "28099",
				"totalCost": "3460499"
			},
			"external": {
				"buyFromStall(uint256,uint256)": "infinite",
				"closeEarly(uint256)": "32692",
				"getPaymentByIndex(uint256,uint256)": "infinite",
				"getPaymentCount(uint256)": "infinite",
				"getStallById(uint256)": "infinite",
				"isStallClosed(uint256)": "infinite",
				"isTPMember(address)": "2921",
				"issueRefund(address,uint256,uint256)": "infinite",
				"organizer()": "2597",
				"payToStall(uint256)": "infinite",
				"paymentsByStall(uint256,uint256)": "infinite",
				"registerStall(string,uint8,uint256)": "infinite",
				"requireMemberToRegister()": "2510",
				"setMember(address,bool)": "infinite",
				"setRequireMemberToRegister(bool)": "infinite",
				"stallCounter()": "2513",
				"stalls(uint256)": "infinite",
				"totalPaidByBuyer(uint256,address)": "infinite",
				"totalRefundedToBuyer(uint256,address)": "infinite",
				"transferOrganizer(address)": "30621",
				"updatePrice(uint256,uint256)": "infinite",
				"userPayments(address,uint256)": "infinite",
				"withdrawFunds(uint256)": "infinite"
			},
			"internal": {
				"_closeIfExpired(uint256)": "infinite",
				"_durationOf(uint256)": "infinite"
			}
		},
		"methodIdentifiers": {
			"buyFromStall(uint256,uint256)": "874d3e0e",
			"closeEarly(uint256)": "14c9b8a5",
			"getPaymentByIndex(uint256,uint256)": "8c672ba1",
			"getPaymentCount(uint256)": "ad1a17b4",
			"getStallById(uint256)": "9b8ed4bf",
			"isStallClosed(uint256)": "3330074d",
			"isTPMember(address)": "b034438e",
			"issueRefund(address,uint256,uint256)": "0f0faef3",
			"organizer()": "61203265",
			"payToStall(uint256)": "5f593a61",
			"paymentsByStall(uint256,uint256)": "227d4fe5",
			"registerStall(string,uint8,uint256)": "1c823ef1",
			"requireMemberToRegister()": "a7f6353a",
			"setMember(address,bool)": "744cd69c",
			"setRequireMemberToRegister(bool)": "ce6f8ca9",
			"stallCounter()": "897c77d1",
			"stalls(uint256)": "6d0f9408",
			"totalPaidByBuyer(uint256,address)": "fa144d53",
			"totalRefundedToBuyer(uint256,address)": "5b796ecc",
			"transferOrganizer(address)": "768a4d8d",
			"updatePrice(uint256,uint256)": "82367b2d",
			"userPayments(address,uint256)": "8cfeab35",
			"withdrawFunds(uint256)": "155dd5ee"
		}
	},
	"abi": [
		{
			"inputs": [],
			"stateMutability": "nonpayable",
			"type": "constructor"
		},
		{
			"anonymous": false,
			"inputs": [
				{
					"indexed": true,
					"internalType": "address",
					"name": "owner",
					"type": "address"
				},
				{
					"indexed": true,
					"internalType": "uint256",
					"name": "stallId",
					"type": "uint256"
				},
				{
					"indexed": false,
					"internalType": "uint256",
					"name": "amount",
					"type": "uint256"
				}
			],
			"name": "FundsWithdrawn",
			"type": "event"
		},
		{
			"anonymous": false,
			"inputs": [
				{
					"indexed": true,
					"internalType": "address",
					"name": "account",
					"type": "address"
				},
				{
					"indexed": false,
					"internalType": "bool",
					"name": "isMember",
					"type": "bool"
				}
			],
			"name": "MemberUpdated",
			"type": "event"
		},
		{
			"anonymous": false,
			"inputs": [
				{
					"indexed": true,
					"internalType": "address",
					"name": "oldOrganizer",
					"type": "address"
				},
				{
					"indexed": true,
					"internalType": "address",
					"name": "newOrganizer",
					"type": "address"
				}
			],
			"name": "OrganizerTransferred",
			"type": "event"
		},
		{
			"anonymous": false,
			"inputs": [
				{
					"indexed": true,
					"internalType": "address",
					"name": "payer",
					"type": "address"
				},
				{
					"indexed": true,
					"internalType": "uint256",
					"name": "stallId",
					"type": "uint256"
				},
				{
					"indexed": false,
					"internalType": "uint256",
					"name": "amount",
					"type": "uint256"
				}
			],
			"name": "PaymentMade",
			"type": "event"
		},
		{
			"anonymous": false,
			"inputs": [
				{
					"indexed": true,
					"internalType": "uint256",
					"name": "stallId",
					"type": "uint256"
				},
				{
					"indexed": false,
					"internalType": "uint256",
					"name": "newPrice",
					"type": "uint256"
				}
			],
			"name": "PriceUpdated",
			"type": "event"
		},
		{
			"anonymous": false,
			"inputs": [
				{
					"indexed": true,
					"internalType": "address",
					"name": "to",
					"type": "address"
				},
				{
					"indexed": true,
					"internalType": "uint256",
					"name": "stallId",
					"type": "uint256"
				},
				{
					"indexed": false,
					"internalType": "uint256",
					"name": "amount",
					"type": "uint256"
				}
			],
			"name": "RefundIssued",
			"type": "event"
		},
		{
			"anonymous": false,
			"inputs": [
				{
					"indexed": false,
					"internalType": "bool",
					"name": "enabled",
					"type": "bool"
				}
			],
			"name": "RequireMemberToRegisterSet",
			"type": "event"
		},
		{
			"anonymous": false,
			"inputs": [
				{
					"indexed": true,
					"internalType": "uint256",
					"name": "stallId",
					"type": "uint256"
				}
			],
			"name": "StallClosed",
			"type": "event"
		},
		{
			"anonymous": false,
			"inputs": [
				{
					"indexed": true,
					"internalType": "uint256",
					"name": "stallId",
					"type": "uint256"
				}
			],
			"name": "StallClosedEarly",
			"type": "event"
		},
		{
			"anonymous": false,
			"inputs": [
				{
					"indexed": true,
					"internalType": "uint256",
					"name": "id",
					"type": "uint256"
				},
				{
					"indexed": true,
					"internalType": "address",
					"name": "owner",
					"type": "address"
				},
				{
					"indexed": false,
					"internalType": "uint256",
					"name": "pricePerItem",
					"type": "uint256"
				}
			],
			"name": "StallRegistered",
			"type": "event"
		},
		{
			"inputs": [
				{
					"internalType": "uint256",
					"name": "_stallId",
					"type": "uint256"
				},
				{
					"internalType": "uint256",
					"name": "qty",
					"type": "uint256"
				}
			],
			"name": "buyFromStall",
			"outputs": [],
			"stateMutability": "payable",
			"type": "function"
		},
		{
			"inputs": [
				{
					"internalType": "uint256",
					"name": "_stallId",
					"type": "uint256"
				}
			],
			"name": "closeEarly",
			"outputs": [],
			"stateMutability": "nonpayable",
			"type": "function"
		},
		{
			"inputs": [
				{
					"internalType": "uint256",
					"name": "_stallId",
					"type": "uint256"
				},
				{
					"internalType": "uint256",
					"name": "_index",
					"type": "uint256"
				}
			],
			"name": "getPaymentByIndex",
			"outputs": [
				{
					"components": [
						{
							"internalType": "address",
							"name": "payer",
							"type": "address"
						},
						{
							"internalType": "uint256",
							"name": "amount",
							"type": "uint256"
						},
						{
							"internalType": "uint256",
							"name": "timestamp",
							"type": "uint256"
						}
					],
					"internalType": "struct CCNCarnival.Payment",
					"name": "",
					"type": "tuple"
				}
			],
			"stateMutability": "view",
			"type": "function"
		},
		{
			"inputs": [
				{
					"internalType": "uint256",
					"name": "_stallId",
					"type": "uint256"
				}
			],
			"name": "getPaymentCount",
			"outputs": [
				{
					"internalType": "uint256",
					"name": "",
					"type": "uint256"
				}
			],
			"stateMutability": "view",
			"type": "function"
		},
		{
			"inputs": [
				{
					"internalType": "uint256",
					"name": "_id",
					"type": "uint256"
				}
			],
			"name": "getStallById",
			"outputs": [
				{
					"components": [
						{
							"internalType": "uint256",
							"name": "id",
							"type": "uint256"
						},
						{
							"internalType": "address payable",
							"name": "owner",
							"type": "address"
						},
						{
							"internalType": "string",
							"name": "name",
							"type": "string"
						},
						{
							"internalType": "uint8",
							"name": "operatingDays",
							"type": "uint8"
						},
						{
							"internalType": "uint256",
							"name": "balance",
							"type": "uint256"
						},
						{
							"internalType": "bool",
							"name": "exists",
							"type": "bool"
						},
						{
							"internalType": "uint256",
							"name": "createdAt",
							"type": "uint256"
						},
						{
							"internalType": "enum CCNCarnival.StallStatus",
							"name": "status",
							"type": "uint8"
						},
						{
							"internalType": "uint256",
							"name": "pricePerItem",
							"type": "uint256"
						}
					],
					"internalType": "struct CCNCarnival.Stall",
					"name": "",
					"type": "tuple"
				}
			],
			"stateMutability": "view",
			"type": "function"
		},
		{
			"inputs": [
				{
					"internalType": "uint256",
					"name": "_stallId",
					"type": "uint256"
				}
			],
			"name": "isStallClosed",
			"outputs": [
				{
					"internalType": "bool",
					"name": "",
					"type": "bool"
				}
			],
			"stateMutability": "view",
			"type": "function"
		},
		{
			"inputs": [
				{
					"internalType": "address",
					"name": "",
					"type": "address"
				}
			],
			"name": "isTPMember",
			"outputs": [
				{
					"internalType": "bool",
					"name": "",
					"type": "bool"
				}
			],
			"stateMutability": "view",
			"type": "function"
		},
		{
			"inputs": [
				{
					"internalType": "address payable",
					"name": "_buyer",
					"type": "address"
				},
				{
					"internalType": "uint256",
					"name": "_stallId",
					"type": "uint256"
				},
				{
					"internalType": "uint256",
					"name": "_amount",
					"type": "uint256"
				}
			],
			"name": "issueRefund",
			"outputs": [],
			"stateMutability": "nonpayable",
			"type": "function"
		},
		{
			"inputs": [],
			"name": "organizer",
			"outputs": [
				{
					"internalType": "address",
					"name": "",
					"type": "address"
				}
			],
			"stateMutability": "view",
			"type": "function"
		},
		{
			"inputs": [
				{
					"internalType": "uint256",
					"name": "_stallId",
					"type": "uint256"
				}
			],
			"name": "payToStall",
			"outputs": [],
			"stateMutability": "payable",
			"type": "function"
		},
		{
			"inputs": [
				{
					"internalType": "uint256",
					"name": "",
					"type": "uint256"
				},
				{
					"internalType": "uint256",
					"name": "",
					"type": "uint256"
				}
			],
			"name": "paymentsByStall",
			"outputs": [
				{
					"internalType": "address",
					"name": "payer",
					"type": "address"
				},
				{
					"internalType": "uint256",
					"name": "amount",
					"type": "uint256"
				},
				{
					"internalType": "uint256",
					"name": "timestamp",
					"type": "uint256"
				}
			],
			"stateMutability": "view",
			"type": "function"
		},
		{
			"inputs": [
				{
					"internalType": "string",
					"name": "_name",
					"type": "string"
				},
				{
					"internalType": "uint8",
					"name": "_operatingDays",
					"type": "uint8"
				},
				{
					"internalType": "uint256",
					"name": "_pricePerItem",
					"type": "uint256"
				}
			],
			"name": "registerStall",
			"outputs": [],
			"stateMutability": "nonpayable",
			"type": "function"
		},
		{
			"inputs": [],
			"name": "requireMemberToRegister",
			"outputs": [
				{
					"internalType": "bool",
					"name": "",
					"type": "bool"
				}
			],
			"stateMutability": "view",
			"type": "function"
		},
		{
			"inputs": [
				{
					"internalType": "address",
					"name": "_account",
					"type": "address"
				},
				{
					"internalType": "bool",
					"name": "_isMember",
					"type": "bool"
				}
			],
			"name": "setMember",
			"outputs": [],
			"stateMutability": "nonpayable",
			"type": "function"
		},
		{
			"inputs": [
				{
					"internalType": "bool",
					"name": "_enabled",
					"type": "bool"
				}
			],
			"name": "setRequireMemberToRegister",
			"outputs": [],
			"stateMutability": "nonpayable",
			"type": "function"
		},
		{
			"inputs": [],
			"name": "stallCounter",
			"outputs": [
				{
					"internalType": "uint256",
					"name": "",
					"type": "uint256"
				}
			],
			"stateMutability": "view",
			"type": "function"
		},
		{
			"inputs": [
				{
					"internalType": "uint256",
					"name": "",
					"type": "uint256"
				}
			],
			"name": "stalls",
			"outputs": [
				{
					"internalType": "uint256",
					"name": "id",
					"type": "uint256"
				},
				{
					"internalType": "address payable",
					"name": "owner",
					"type": "address"
				},
				{
					"internalType": "string",
					"name": "name",
					"type": "string"
				},
				{
					"internalType": "uint8",
					"name": "operatingDays",
					"type": "uint8"
				},
				{
					"internalType": "uint256",
					"name": "balance",
					"type": "uint256"
				},
				{
					"internalType": "bool",
					"name": "exists",
					"type": "bool"
				},
				{
					"internalType": "uint256",
					"name": "createdAt",
					"type": "uint256"
				},
				{
					"internalType": "enum CCNCarnival.StallStatus",
					"name": "status",
					"type": "uint8"
				},
				{
					"internalType": "uint256",
					"name": "pricePerItem",
					"type": "uint256"
				}
			],
			"stateMutability": "view",
			"type": "function"
		},
		{
			"inputs": [
				{
					"internalType": "uint256",
					"name": "",
					"type": "uint256"
				},
				{
					"internalType": "address",
					"name": "",
					"type": "address"
				}
			],
			"name": "totalPaidByBuyer",
			"outputs": [
				{
					"internalType": "uint256",
					"name": "",
					"type": "uint256"
				}
			],
			"stateMutability": "view",
			"type": "function"
		},
		{
			"inputs": [
				{
					"internalType": "uint256",
					"name": "",
					"type": "uint256"
				},
				{
					"internalType": "address",
					"name": "",
					"type": "address"
				}
			],
			"name": "totalRefundedToBuyer",
			"outputs": [
				{
					"internalType": "uint256",
					"name": "",
					"type": "uint256"
				}
			],
			"stateMutability": "view",
			"type": "function"
		},
		{
			"inputs": [
				{
					"internalType": "address",
					"name": "_newOrganizer",
					"type": "address"
				}
			],
			"name": "transferOrganizer",
			"outputs": [],
			"stateMutability": "nonpayable",
			"type": "function"
		},
		{
			"inputs": [
				{
					"internalType": "uint256",
					"name": "_stallId",
					"type": "uint256"
				},
				{
					"internalType": "uint256",
					"name": "_newPrice",
					"type": "uint256"
				}
			],
			"name": "updatePrice",
			"outputs": [],
			"stateMutability": "nonpayable",
			"type": "function"
		},
		{
			"inputs": [
				{
					"internalType": "address",
					"name": "",
					"type": "address"
				},
				{
					"internalType": "uint256",
					"name": "",
					"type": "uint256"
				}
			],
			"name": "userPayments",
			"outputs": [
				{
					"internalType": "uint256",
					"name": "",
					"type": "uint256"
				}
			],
			"stateMutability": "view",
			"type": "function"
		},
		{
			"inputs": [
				{
					"internalType": "uint256",
					"name": "_stallId",
					"type": "uint256"
				}
			],
			"name": "withdrawFunds",
			"outputs": [],
			"stateMutability": "nonpayable",
			"type": "function"
		},
		{
			"stateMutability": "payable",
			"type": "receive"
		}
	]
}